{
  "_format": "hh-sol-artifact-1",
  "contractName": "VerifiedMarkets",
  "sourceName": "contracts/VerifiedMarkets.sol",
  "abi": [
    {
      "inputs": [
        {
          "internalType": "address",
          "name": "comet_",
          "type": "address"
        }
      ],
      "stateMutability": "nonpayable",
      "type": "constructor"
    },
    {
      "inputs": [],
      "name": "ReentrancyGuardReentrantCall",
      "type": "error"
    },
    {
      "inputs": [
        {
          "internalType": "uint8",
          "name": "bits",
          "type": "uint8"
        },
        {
          "internalType": "uint256",
          "name": "value",
          "type": "uint256"
        }
      ],
      "name": "SafeCastOverflowedUintDowncast",
      "type": "error"
    },
    {
      "anonymous": false,
      "inputs": [
        {
          "indexed": true,
          "internalType": "address",
          "name": "borrower",
          "type": "address"
        },
        {
          "indexed": true,
          "internalType": "address",
          "name": "base",
          "type": "address"
        },
        {
          "indexed": false,
          "internalType": "uint256",
          "name": "amount",
          "type": "uint256"
        },
        {
          "indexed": false,
          "internalType": "address",
          "name": "asset",
          "type": "address"
        }
      ],
      "name": "Borrowed",
      "type": "event"
    },
    {
      "anonymous": false,
      "inputs": [
        {
          "indexed": true,
          "internalType": "address",
          "name": "issuer",
          "type": "address"
        },
        {
          "indexed": true,
          "internalType": "address",
          "name": "asset",
          "type": "address"
        },
        {
          "indexed": false,
          "internalType": "address",
          "name": "bond",
          "type": "address"
        },
        {
          "indexed": false,
          "internalType": "uint256",
          "name": "apy",
          "type": "uint256"
        },
        {
          "indexed": false,
          "internalType": "string",
          "name": "issuingDocs",
          "type": "string"
        },
        {
          "indexed": false,
          "internalType": "uint256",
          "name": "couponFrequency",
          "type": "uint256"
        },
        {
          "indexed": false,
          "internalType": "uint256",
          "name": "tenure",
          "type": "uint256"
        }
      ],
      "name": "NewRWA",
      "type": "event"
    },
    {
      "anonymous": false,
      "inputs": [
        {
          "indexed": true,
          "internalType": "address",
          "name": "issuer",
          "type": "address"
        },
        {
          "indexed": true,
          "internalType": "address",
          "name": "asset",
          "type": "address"
        },
        {
          "indexed": false,
          "internalType": "address",
          "name": "collateral",
          "type": "address"
        },
        {
          "indexed": false,
          "internalType": "uint256",
          "name": "amount",
          "type": "uint256"
        }
      ],
      "name": "PostedCollateral",
      "type": "event"
    },
    {
      "anonymous": false,
      "inputs": [
        {
          "indexed": true,
          "internalType": "address",
          "name": "borrower",
          "type": "address"
        },
        {
          "indexed": true,
          "internalType": "address",
          "name": "base",
          "type": "address"
        },
        {
          "indexed": false,
          "internalType": "uint256",
          "name": "amount",
          "type": "uint256"
        }
      ],
      "name": "Repaid",
      "type": "event"
    },
    {
      "inputs": [
        {
          "internalType": "address",
          "name": "asset",
          "type": "address"
        }
      ],
      "name": "borrowBase",
      "outputs": [],
      "stateMutability": "nonpayable",
      "type": "function"
    },
    {
      "inputs": [],
      "name": "comet",
      "outputs": [
        {
          "internalType": "contract Comet",
          "name": "",
          "type": "address"
        }
      ],
      "stateMutability": "view",
      "type": "function"
    },
    {
      "inputs": [
        {
          "internalType": "address",
          "name": "bond",
          "type": "address"
        },
        {
          "internalType": "address",
          "name": "issuer",
          "type": "address"
        },
        {
          "internalType": "address",
          "name": "factory",
          "type": "address"
        }
      ],
      "name": "postCollateral",
      "outputs": [],
      "stateMutability": "nonpayable",
      "type": "function"
    },
    {
      "inputs": [
        {
          "internalType": "address",
          "name": "asset",
          "type": "address"
        },
        {
          "internalType": "uint256",
          "name": "amount",
          "type": "uint256"
        }
      ],
      "name": "repayBase",
      "outputs": [],
      "stateMutability": "nonpayable",
      "type": "function"
    },
    {
      "inputs": [
        {
          "internalType": "address",
          "name": "asset",
          "type": "address"
        },
        {
          "internalType": "address",
          "name": "collateral",
          "type": "address"
        }
      ],
      "name": "repayLenders",
      "outputs": [],
      "stateMutability": "nonpayable",
      "type": "function"
    },
    {
      "inputs": [
        {
          "internalType": "address",
          "name": "asset",
          "type": "address"
        },
        {
          "internalType": "address",
          "name": "bond",
          "type": "address"
        },
        {
          "internalType": "uint256",
          "name": "apy",
          "type": "uint256"
        },
        {
          "internalType": "string",
          "name": "issuingDocs",
          "type": "string"
        },
        {
          "internalType": "uint256",
          "name": "frequency",
          "type": "uint256"
        },
        {
          "internalType": "address",
          "name": "factory",
          "type": "address"
        }
      ],
      "name": "submitNewRWA",
      "outputs": [],
      "stateMutability": "nonpayable",
      "type": "function"
    },
    {
      "inputs": [
        {
          "internalType": "address",
          "name": "bond",
          "type": "address"
        },
        {
          "internalType": "address",
          "name": "issuer",
          "type": "address"
        },
        {
          "internalType": "address",
          "name": "factory",
          "type": "address"
        }
      ],
      "name": "withdrawCollateral",
      "outputs": [],
      "stateMutability": "nonpayable",
      "type": "function"
    }
  ],
  "bytecode": "0x60a06040523480156200001157600080fd5b5060405162006166380380620061668339818101604052810190620000379190620000e4565b60016000819055508073ffffffffffffffffffffffffffffffffffffffff1660808173ffffffffffffffffffffffffffffffffffffffff16815250505062000116565b600080fd5b600073ffffffffffffffffffffffffffffffffffffffff82169050919050565b6000620000ac826200007f565b9050919050565b620000be816200009f565b8114620000ca57600080fd5b50565b600081519050620000de81620000b3565b92915050565b600060208284031215620000fd57620000fc6200007a565b5b60006200010d84828501620000cd565b91505092915050565b608051615faf620001b760003960008181610659015281816107400152818161077c01528181610960015281816109f401528181610b4501528181610c8101528181610e6a01528181610f3a01528181611210015281816112fa0152818161156f01528181611600015281816117cb01528181611bb301528181612517015281816128b80152818161295601528181612b440152612d450152615faf6000f3fe608060405234801561001057600080fd5b506004361061007d5760003560e01c80633f53b0a71161005b5780633f53b0a7146100d657806371b92aed146100f2578063ba3e9c121461010e578063befff4271461012c5761007d565b80630e76fe091461008257806318eb20f81461009e5780632511e8a0146100ba575b600080fd5b61009c600480360381019061009791906148ea565b610148565b005b6100b860048036038101906100b39190614993565b6105a7565b005b6100d460048036038101906100cf91906149c0565b611450565b005b6100f060048036038101906100eb9190614a00565b61194d565b005b61010c60048036038101906101079190614a40565b61204e565b005b610116612515565b6040516101239190614af2565b60405180910390f35b61014660048036038101906101419190614a40565b612539565b005b6101506130b0565b60008173ffffffffffffffffffffffffffffffffffffffff16635af4730a876040518263ffffffff1660e01b815260040161018b9190614b1c565b602060405180830381865afa1580156101a8573d6000803e3d6000fd5b505050506040513d601f19601f820116820180604052508101906101cc9190614b4c565b9050600073ffffffffffffffffffffffffffffffffffffffff168773ffffffffffffffffffffffffffffffffffffffff16141580156102a457503373ffffffffffffffffffffffffffffffffffffffff168673ffffffffffffffffffffffffffffffffffffffff1663525564216040518163ffffffff1660e01b8152600401602060405180830381865afa158015610268573d6000803e3d6000fd5b505050506040513d601f19601f8201168201806040525081019061028c9190614b8e565b73ffffffffffffffffffffffffffffffffffffffff16145b80156102b05750600085115b80156102bc5750600083115b80156102c85750600081115b610307576040517f08c379a00000000000000000000000000000000000000000000000000000000081526004016102fe90614c18565b60405180910390fd5b600073ffffffffffffffffffffffffffffffffffffffff16600160003373ffffffffffffffffffffffffffffffffffffffff1673ffffffffffffffffffffffffffffffffffffffff16815260200190815260200160002060008973ffffffffffffffffffffffffffffffffffffffff1673ffffffffffffffffffffffffffffffffffffffff16815260200190815260200160002060000160009054906101000a900473ffffffffffffffffffffffffffffffffffffffff1673ffffffffffffffffffffffffffffffffffffffff16036105965760006040518060c001604052808873ffffffffffffffffffffffffffffffffffffffff1681526020018781526020018681526020018581526020018381526020016000815250905080600160003373ffffffffffffffffffffffffffffffffffffffff1673ffffffffffffffffffffffffffffffffffffffff16815260200190815260200160002060008a73ffffffffffffffffffffffffffffffffffffffff1673ffffffffffffffffffffffffffffffffffffffff16815260200190815260200160002060008201518160000160006101000a81548173ffffffffffffffffffffffffffffffffffffffff021916908373ffffffffffffffffffffffffffffffffffffffff1602179055506020820151816001015560408201518160020190816105059190614e45565b50606082015181600301556080820151816004015560a082015181600501559050508773ffffffffffffffffffffffffffffffffffffffff163373ffffffffffffffffffffffffffffffffffffffff167feea9cf30caf2394a00a8a7f9ded3fca78994b34652589e0e6e40d1c59e750e2d898989898860405161058c959493929190614f89565b60405180910390a3505b5061059f6130f6565b505050505050565b6105af6130b0565b6000600160003373ffffffffffffffffffffffffffffffffffffffff1673ffffffffffffffffffffffffffffffffffffffff16815260200190815260200160002060008373ffffffffffffffffffffffffffffffffffffffff1673ffffffffffffffffffffffffffffffffffffffff16815260200190815260200160002060000160009054906101000a900473ffffffffffffffffffffffffffffffffffffffff169050600115157f000000000000000000000000000000000000000000000000000000000000000073ffffffffffffffffffffffffffffffffffffffff166338aa813f836040518263ffffffff1660e01b81526004016106b09190614b1c565b602060405180830381865afa1580156106cd573d6000803e3d6000fd5b505050506040513d601f19601f820116820180604052508101906106f1919061501b565b151514610733576040517f08c379a000000000000000000000000000000000000000000000000000000000815260040161072a90615094565b60405180910390fd5b60006301e13380905060007f000000000000000000000000000000000000000000000000000000000000000073ffffffffffffffffffffffffffffffffffffffff16639fa83b5a7f000000000000000000000000000000000000000000000000000000000000000073ffffffffffffffffffffffffffffffffffffffff16637eb711316040518163ffffffff1660e01b8152600401602060405180830381865afa1580156107e5573d6000803e3d6000fd5b505050506040513d601f19601f820116820180604052508101906108099190614b4c565b6040518263ffffffff1660e01b815260040161082591906150b4565b602060405180830381865afa158015610842573d6000803e3d6000fd5b505050506040513d601f19601f82011682018060405250810190610866919061510f565b67ffffffffffffffff1690506000606483601884610884919061519a565b61088e91906151cb565b61089891906151cb565b905080600160003373ffffffffffffffffffffffffffffffffffffffff1673ffffffffffffffffffffffffffffffffffffffff16815260200190815260200160002060008773ffffffffffffffffffffffffffffffffffffffff1673ffffffffffffffffffffffffffffffffffffffff16815260200190815260200160002060010154101561095c576040517f08c379a000000000000000000000000000000000000000000000000000000000815260040161095390615259565b60405180910390fd5b60007f000000000000000000000000000000000000000000000000000000000000000073ffffffffffffffffffffffffffffffffffffffff1663c55dae636040518163ffffffff1660e01b8152600401602060405180830381865afa1580156109c9573d6000803e3d6000fd5b505050506040513d601f19601f820116820180604052508101906109ed9190614b8e565b90506000807f000000000000000000000000000000000000000000000000000000000000000073ffffffffffffffffffffffffffffffffffffffff16635c2549ee88600260003373ffffffffffffffffffffffffffffffffffffffff1673ffffffffffffffffffffffffffffffffffffffff16815260200190815260200160002060008c73ffffffffffffffffffffffffffffffffffffffff1673ffffffffffffffffffffffffffffffffffffffff16815260200190815260200160002060000160009054906101000a900473ffffffffffffffffffffffffffffffffffffffff166040518363ffffffff1660e01b8152600401610aec929190615279565b602060405180830381865afa158015610b09573d6000803e3d6000fd5b505050506040513d601f19601f82011682018060405250810190610b2d91906152ea565b6fffffffffffffffffffffffffffffffff16905060007f000000000000000000000000000000000000000000000000000000000000000073ffffffffffffffffffffffffffffffffffffffff16633b3bec2e600260003373ffffffffffffffffffffffffffffffffffffffff1673ffffffffffffffffffffffffffffffffffffffff16815260200190815260200160002060008c73ffffffffffffffffffffffffffffffffffffffff1673ffffffffffffffffffffffffffffffffffffffff16815260200190815260200160002060000160009054906101000a900473ffffffffffffffffffffffffffffffffffffffff166040518263ffffffff1660e01b8152600401610c3b9190614b1c565b61010060405180830381865afa158015610c59573d6000803e3d6000fd5b505050506040513d601f19601f82011682018060405250810190610c7d919061541f565b90507f000000000000000000000000000000000000000000000000000000000000000073ffffffffffffffffffffffffffffffffffffffff166341976e09600260003373ffffffffffffffffffffffffffffffffffffffff1673ffffffffffffffffffffffffffffffffffffffff16815260200190815260200160002060008c73ffffffffffffffffffffffffffffffffffffffff1673ffffffffffffffffffffffffffffffffffffffff16815260200190815260200160002060000160009054906101000a900473ffffffffffffffffffffffffffffffffffffffff166040518263ffffffff1660e01b8152600401610d779190614b1c565b602060405180830381865afa158015610d94573d6000803e3d6000fd5b505050506040513d601f19601f82011682018060405250810190610db89190614b4c565b600260003373ffffffffffffffffffffffffffffffffffffffff1673ffffffffffffffffffffffffffffffffffffffff16815260200190815260200160002060008b73ffffffffffffffffffffffffffffffffffffffff1673ffffffffffffffffffffffffffffffffffffffff16815260200190815260200160002060010154826080015167ffffffffffffffff16610e5191906151cb565b610e5b91906151cb565b83610e66919061544d565b92507f000000000000000000000000000000000000000000000000000000000000000073ffffffffffffffffffffffffffffffffffffffff1663300e6beb6040518163ffffffff1660e01b8152600401602060405180830381865afa158015610ed3573d6000803e3d6000fd5b505050506040513d601f19601f82011682018060405250810190610ef79190614b4c565b8311610f38576040517f08c379a0000000000000000000000000000000000000000000000000000000008152600401610f2f906154cd565b60405180910390fd5b7f000000000000000000000000000000000000000000000000000000000000000073ffffffffffffffffffffffffffffffffffffffff166326441318893087876040518563ffffffff1660e01b8152600401610f9794939291906154ed565b600060405180830381600087803b158015610fb157600080fd5b505af1158015610fc5573d6000803e3d6000fd5b505050506000600160003373ffffffffffffffffffffffffffffffffffffffff1673ffffffffffffffffffffffffffffffffffffffff16815260200190815260200160002060008b73ffffffffffffffffffffffffffffffffffffffff1673ffffffffffffffffffffffffffffffffffffffff16815260200190815260200160002060010154670de0b6b3a764000061105e919061544d565b905060006110eb82600160003373ffffffffffffffffffffffffffffffffffffffff1673ffffffffffffffffffffffffffffffffffffffff16815260200190815260200160002060008e73ffffffffffffffffffffffffffffffffffffffff1673ffffffffffffffffffffffffffffffffffffffff16815260200190815260200160002060040154613100565b90506110f785826131bd565b935083600160003373ffffffffffffffffffffffffffffffffffffffff1673ffffffffffffffffffffffffffffffffffffffff16815260200190815260200160002060008d73ffffffffffffffffffffffffffffffffffffffff1673ffffffffffffffffffffffffffffffffffffffff1681526020019081526020016000206005016000828254611188919061544d565b925050819055508573ffffffffffffffffffffffffffffffffffffffff1663a9059cbb33866040518363ffffffff1660e01b81526004016111ca929190615532565b6020604051808303816000875af11580156111e9573d6000803e3d6000fd5b505050506040513d601f19601f8201168201806040525081019061120d919061501b565b507f000000000000000000000000000000000000000000000000000000000000000073ffffffffffffffffffffffffffffffffffffffff166390323177308c896112578a8a613295565b6040518563ffffffff1660e01b815260040161127694939291906154ed565b600060405180830381600087803b15801561129057600080fd5b505af11580156112a4573d6000803e3d6000fd5b50505050600560008b73ffffffffffffffffffffffffffffffffffffffff1673ffffffffffffffffffffffffffffffffffffffff16815260200190815260200160002060405180604001604052804281526020017f000000000000000000000000000000000000000000000000000000000000000073ffffffffffffffffffffffffffffffffffffffff1663374c49b48e6040518263ffffffff1660e01b81526004016113519190614b1c565b602060405180830381865afa15801561136e573d6000803e3d6000fd5b505050506040513d601f19601f820116820180604052508101906113929190614b4c565b8152509080600181540180825580915050600190039060005260206000209060020201600090919091909150600082015181600001556020820151816001015550508573ffffffffffffffffffffffffffffffffffffffff163373ffffffffffffffffffffffffffffffffffffffff167f6307558490eadb9b37b03c11433d50aef004f9316be36f5d959936dfed4d5a72868e60405161143392919061555b565b60405180910390a35050505050505050505061144d6130f6565b50565b6114586130b0565b6000600160003373ffffffffffffffffffffffffffffffffffffffff1673ffffffffffffffffffffffffffffffffffffffff16815260200190815260200160002060008473ffffffffffffffffffffffffffffffffffffffff1673ffffffffffffffffffffffffffffffffffffffff16815260200190815260200160002060000160009054906101000a900473ffffffffffffffffffffffffffffffffffffffff169050600073ffffffffffffffffffffffffffffffffffffffff168173ffffffffffffffffffffffffffffffffffffffff160361156b576040517f08c379a0000000000000000000000000000000000000000000000000000000008152600401611562906155d0565b60405180910390fd5b60007f000000000000000000000000000000000000000000000000000000000000000073ffffffffffffffffffffffffffffffffffffffff1663c55dae636040518163ffffffff1660e01b8152600401602060405180830381865afa1580156115d8573d6000803e3d6000fd5b505050506040513d601f19601f820116820180604052508101906115fc9190614b8e565b90507f000000000000000000000000000000000000000000000000000000000000000073ffffffffffffffffffffffffffffffffffffffff166390323177338484876040518563ffffffff1660e01b815260040161165d94939291906154ed565b600060405180830381600087803b15801561167757600080fd5b505af115801561168b573d6000803e3d6000fd5b5050505082600160003373ffffffffffffffffffffffffffffffffffffffff1673ffffffffffffffffffffffffffffffffffffffff16815260200190815260200160002060008673ffffffffffffffffffffffffffffffffffffffff1673ffffffffffffffffffffffffffffffffffffffff168152602001908152602001600020600501600082825461171e91906155f0565b925050819055506000600260003373ffffffffffffffffffffffffffffffffffffffff1673ffffffffffffffffffffffffffffffffffffffff16815260200190815260200160002060008673ffffffffffffffffffffffffffffffffffffffff1673ffffffffffffffffffffffffffffffffffffffff16815260200190815260200160002060000160009054906101000a900473ffffffffffffffffffffffffffffffffffffffff1690507f000000000000000000000000000000000000000000000000000000000000000073ffffffffffffffffffffffffffffffffffffffff166326441318338584600260003373ffffffffffffffffffffffffffffffffffffffff1673ffffffffffffffffffffffffffffffffffffffff16815260200190815260200160002060008b73ffffffffffffffffffffffffffffffffffffffff1673ffffffffffffffffffffffffffffffffffffffff168152602001908152602001600020600101546040518563ffffffff1660e01b81526004016118a794939291906154ed565b600060405180830381600087803b1580156118c157600080fd5b505af11580156118d5573d6000803e3d6000fd5b505050508173ffffffffffffffffffffffffffffffffffffffff163373ffffffffffffffffffffffffffffffffffffffff167f0a3fbbea70e93f2daafa3102f5c9a1b8315e6d7a1e43e4bc020bc1162327470a8660405161193691906150b4565b60405180910390a35050506119496130f6565b5050565b6119556130b0565b6000600160003373ffffffffffffffffffffffffffffffffffffffff1673ffffffffffffffffffffffffffffffffffffffff16815260200190815260200160002060008473ffffffffffffffffffffffffffffffffffffffff1673ffffffffffffffffffffffffffffffffffffffff16815260200190815260200160002060000160009054906101000a900473ffffffffffffffffffffffffffffffffffffffff16905060006001600560008473ffffffffffffffffffffffffffffffffffffffff1673ffffffffffffffffffffffffffffffffffffffff16815260200190815260200160002080549050611a4a91906155f0565b9050600160003373ffffffffffffffffffffffffffffffffffffffff1673ffffffffffffffffffffffffffffffffffffffff16815260200190815260200160002060008573ffffffffffffffffffffffffffffffffffffffff1673ffffffffffffffffffffffffffffffffffffffff16815260200190815260200160002060030154611ba6600560008573ffffffffffffffffffffffffffffffffffffffff1673ffffffffffffffffffffffffffffffffffffffff1681526020019081526020016000208381548110611b2057611b1f615624565b5b906000526020600020906002020160000154600560008673ffffffffffffffffffffffffffffffffffffffff1673ffffffffffffffffffffffffffffffffffffffff168152602001908152602001600020600185611b7e91906155f0565b81548110611b8f57611b8e615624565b5b906000526020600020906002020160000154613295565b1115612040576000611cb37f000000000000000000000000000000000000000000000000000000000000000073ffffffffffffffffffffffffffffffffffffffff1663374c49b4856040518263ffffffff1660e01b8152600401611c0a9190614b1c565b602060405180830381865afa158015611c27573d6000803e3d6000fd5b505050506040513d601f19601f82011682018060405250810190611c4b9190614b4c565b600560008673ffffffffffffffffffffffffffffffffffffffff1673ffffffffffffffffffffffffffffffffffffffff1681526020019081526020016000208481548110611c9c57611c9b615624565b5b906000526020600020906002020160010154613295565b9050611daa81611da5600560008773ffffffffffffffffffffffffffffffffffffffff1673ffffffffffffffffffffffffffffffffffffffff168152602001908152602001600020600081548110611d0e57611d0d615624565b5b906000526020600020906002020160010154600160003373ffffffffffffffffffffffffffffffffffffffff1673ffffffffffffffffffffffffffffffffffffffff16815260200190815260200160002060008a73ffffffffffffffffffffffffffffffffffffffff1673ffffffffffffffffffffffffffffffffffffffff168152602001908152602001600020600301546131bd565b6132f4565b905060005b600360008573ffffffffffffffffffffffffffffffffffffffff1673ffffffffffffffffffffffffffffffffffffffff1681526020019081526020016000208054905081101561203d578473ffffffffffffffffffffffffffffffffffffffff1663a9059cbb600360008773ffffffffffffffffffffffffffffffffffffffff1673ffffffffffffffffffffffffffffffffffffffff1681526020019081526020016000208381548110611e6657611e65615624565b5b9060005260206000200160009054906101000a900473ffffffffffffffffffffffffffffffffffffffff16611fcf8560046000600360008c73ffffffffffffffffffffffffffffffffffffffff1673ffffffffffffffffffffffffffffffffffffffff1681526020019081526020016000208881548110611eea57611ee9615624565b5b9060005260206000200160009054906101000a900473ffffffffffffffffffffffffffffffffffffffff1673ffffffffffffffffffffffffffffffffffffffff1673ffffffffffffffffffffffffffffffffffffffff16815260200190815260200160002060008a73ffffffffffffffffffffffffffffffffffffffff1673ffffffffffffffffffffffffffffffffffffffff16815260200190815260200160002060008b73ffffffffffffffffffffffffffffffffffffffff1673ffffffffffffffffffffffffffffffffffffffff168152602001908152602001600020546131bd565b6040518363ffffffff1660e01b8152600401611fec929190615532565b6020604051808303816000875af115801561200b573d6000803e3d6000fd5b505050506040513d601f19601f8201168201806040525081019061202f919061501b565b508080600101915050611daf565b50505b505061204a6130f6565b5050565b6120566130b0565b60008273ffffffffffffffffffffffffffffffffffffffff16638fba9c7c8573ffffffffffffffffffffffffffffffffffffffff1663525564216040518163ffffffff1660e01b8152600401602060405180830381865afa1580156120bf573d6000803e3d6000fd5b505050506040513d601f19601f820116820180604052508101906120e39190614b8e565b866040518363ffffffff1660e01b8152600401612101929190615279565b60a060405180830381865afa15801561211e573d6000803e3d6000fd5b505050506040513d601f19601f820116820180604052508101906121429190615689565b9450505050506121cb818373ffffffffffffffffffffffffffffffffffffffff16635af4730a876040518263ffffffff1660e01b81526004016121859190614b1c565b602060405180830381865afa1580156121a2573d6000803e3d6000fd5b505050506040513d601f19601f820116820180604052508101906121c69190614b4c565b6132f4565b42101561220d576040517f08c379a000000000000000000000000000000000000000000000000000000000815260040161220490615750565b60405180910390fd5b60008373ffffffffffffffffffffffffffffffffffffffff1663410a6c7d33876040518363ffffffff1660e01b815260040161224a929190615279565b608060405180830381865afa158015612267573d6000803e3d6000fd5b505050506040513d601f19601f8201168201806040525081019061228b9190615770565b509250505060008373ffffffffffffffffffffffffffffffffffffffff1663b9467629836040518263ffffffff1660e01b81526004016122cb91906157e6565b602060405180830381865afa1580156122e8573d6000803e3d6000fd5b505050506040513d601f19601f8201168201806040525081019061230c9190614b8e565b90508073ffffffffffffffffffffffffffffffffffffffff1663a9059cbb33600460003373ffffffffffffffffffffffffffffffffffffffff1673ffffffffffffffffffffffffffffffffffffffff16815260200190815260200160002060008a73ffffffffffffffffffffffffffffffffffffffff1673ffffffffffffffffffffffffffffffffffffffff16815260200190815260200160002060008573ffffffffffffffffffffffffffffffffffffffff1673ffffffffffffffffffffffffffffffffffffffff168152602001908152602001600020546040518363ffffffff1660e01b8152600401612402929190615532565b6020604051808303816000875af1158015612421573d6000803e3d6000fd5b505050506040513d601f19601f82011682018060405250810190612445919061501b565b506000600460003373ffffffffffffffffffffffffffffffffffffffff1673ffffffffffffffffffffffffffffffffffffffff16815260200190815260200160002060008873ffffffffffffffffffffffffffffffffffffffff1673ffffffffffffffffffffffffffffffffffffffff16815260200190815260200160002060008373ffffffffffffffffffffffffffffffffffffffff1673ffffffffffffffffffffffffffffffffffffffff168152602001908152602001600020819055505050506125106130f6565b505050565b7f000000000000000000000000000000000000000000000000000000000000000081565b6125416130b0565b60008373ffffffffffffffffffffffffffffffffffffffff1663525564216040518163ffffffff1660e01b8152600401602060405180830381865afa15801561258e573d6000803e3d6000fd5b505050506040513d601f19601f820116820180604052508101906125b29190614b8e565b9050600073ffffffffffffffffffffffffffffffffffffffff168173ffffffffffffffffffffffffffffffffffffffff1603612623576040517f08c379a000000000000000000000000000000000000000000000000000000000815260040161261a9061584d565b60405180910390fd5b6000808473ffffffffffffffffffffffffffffffffffffffff1663410a6c7d33886040518363ffffffff1660e01b8152600401612661929190615279565b608060405180830381865afa15801561267e573d6000803e3d6000fd5b505050506040513d601f19601f820116820180604052508101906126a29190615770565b9091925050809250819350505060008473ffffffffffffffffffffffffffffffffffffffff1663b9467629836040518263ffffffff1660e01b81526004016126ea91906157e6565b602060405180830381865afa158015612707573d6000803e3d6000fd5b505050506040513d601f19601f8201168201806040525081019061272b9190614b8e565b90508573ffffffffffffffffffffffffffffffffffffffff16638fba9c7c85896040518363ffffffff1660e01b8152600401612768929190615279565b60a060405180830381865afa158015612785573d6000803e3d6000fd5b505050506040513d601f19601f820116820180604052508101906127a99190615689565b909192935090919250909150508092505060008573ffffffffffffffffffffffffffffffffffffffff1663b9467629846040518263ffffffff1660e01b81526004016127f591906157e6565b602060405180830381865afa158015612812573d6000803e3d6000fd5b505050506040513d601f19601f820116820180604052508101906128369190614b8e565b9050600073ffffffffffffffffffffffffffffffffffffffff168273ffffffffffffffffffffffffffffffffffffffff16141580156128755750600084115b6128b4576040517f08c379a00000000000000000000000000000000000000000000000000000000081526004016128ab90615094565b60405180910390fd5b60007f000000000000000000000000000000000000000000000000000000000000000073ffffffffffffffffffffffffffffffffffffffff166359e017bd846040518263ffffffff1660e01b815260040161290f9190614b1c565b6040805180830381865afa15801561292b573d6000803e3d6000fd5b505050506040513d601f19601f8201168201806040525081019061294f919061586d565b50905060007f000000000000000000000000000000000000000000000000000000000000000073ffffffffffffffffffffffffffffffffffffffff16633b3bec2e856040518263ffffffff1660e01b81526004016129ad9190614b1c565b61010060405180830381865afa1580156129cb573d6000803e3d6000fd5b505050506040513d601f19601f820116820180604052508101906129ef919061541f565b9050816129fb87613352565b612a0591906158ad565b6fffffffffffffffffffffffffffffffff168160e001516fffffffffffffffffffffffffffffffff1611612a6e576040517f08c379a0000000000000000000000000000000000000000000000000000000008152600401612a659061593d565b60405180910390fd5b60008473ffffffffffffffffffffffffffffffffffffffff16600260008a73ffffffffffffffffffffffffffffffffffffffff1673ffffffffffffffffffffffffffffffffffffffff16815260200190815260200160002060008673ffffffffffffffffffffffffffffffffffffffff1673ffffffffffffffffffffffffffffffffffffffff16815260200190815260200160002060000160009054906101000a900473ffffffffffffffffffffffffffffffffffffffff1673ffffffffffffffffffffffffffffffffffffffff1603612d3e577f000000000000000000000000000000000000000000000000000000000000000073ffffffffffffffffffffffffffffffffffffffff166390323177308d888b6040518563ffffffff1660e01b8152600401612ba194939291906154ed565b600060405180830381600087803b158015612bbb57600080fd5b505af1158015612bcf573d6000803e3d6000fd5b5050505086600260008a73ffffffffffffffffffffffffffffffffffffffff1673ffffffffffffffffffffffffffffffffffffffff16815260200190815260200160002060008673ffffffffffffffffffffffffffffffffffffffff1673ffffffffffffffffffffffffffffffffffffffff1681526020019081526020016000206001016000828254612c62919061544d565b925050819055506001905086600460003373ffffffffffffffffffffffffffffffffffffffff1673ffffffffffffffffffffffffffffffffffffffff16815260200190815260200160002060008d73ffffffffffffffffffffffffffffffffffffffff1673ffffffffffffffffffffffffffffffffffffffff16815260200190815260200160002060008773ffffffffffffffffffffffffffffffffffffffff1673ffffffffffffffffffffffffffffffffffffffff1681526020019081526020016000206000828254612d36919061544d565b925050819055505b80613034577f000000000000000000000000000000000000000000000000000000000000000073ffffffffffffffffffffffffffffffffffffffff166390323177308d888b6040518563ffffffff1660e01b8152600401612da294939291906154ed565b600060405180830381600087803b158015612dbc57600080fd5b505af1158015612dd0573d6000803e3d6000fd5b50505050600060405180604001604052808773ffffffffffffffffffffffffffffffffffffffff16815260200189815250905080600260008b73ffffffffffffffffffffffffffffffffffffffff1673ffffffffffffffffffffffffffffffffffffffff16815260200190815260200160002060008773ffffffffffffffffffffffffffffffffffffffff1673ffffffffffffffffffffffffffffffffffffffff16815260200190815260200160002060008201518160000160006101000a81548173ffffffffffffffffffffffffffffffffffffffff021916908373ffffffffffffffffffffffffffffffffffffffff1602179055506020820151816001015590505087600460003373ffffffffffffffffffffffffffffffffffffffff1673ffffffffffffffffffffffffffffffffffffffff16815260200190815260200160002060008e73ffffffffffffffffffffffffffffffffffffffff1673ffffffffffffffffffffffffffffffffffffffff16815260200190815260200160002060008873ffffffffffffffffffffffffffffffffffffffff1673ffffffffffffffffffffffffffffffffffffffff16815260200190815260200160002081905550600360008d73ffffffffffffffffffffffffffffffffffffffff1673ffffffffffffffffffffffffffffffffffffffff168152602001908152602001600020339080600181540180825580915050600190039060005260206000200160009091909190916101000a81548173ffffffffffffffffffffffffffffffffffffffff021916908373ffffffffffffffffffffffffffffffffffffffff160217905550505b8373ffffffffffffffffffffffffffffffffffffffff163373ffffffffffffffffffffffffffffffffffffffff167f6d9c01d2a1bfe391d97dad0c8485ad9eb8603cf2404ea70f733fe47b186a0f51878a604051613093929190615532565b60405180910390a350505050505050506130ab6130f6565b505050565b6002600054036130ec576040517f3ee5aeb500000000000000000000000000000000000000000000000000000000815260040160405180910390fd5b6002600081905550565b6001600081905550565b6000670de0b6b3a76400008203613119578290506131b7565b670de0b6b3a7640000600261312e91906151cb565b82036131455761313e83846133b6565b90506131b7565b670de0b6b3a7640000600461315a91906151cb565b820361318057600061316c84856133b6565b905061317881826133b6565b9150506131b7565b600061318c8484613467565b905060006131a661319f836127106133b6565b60016136cd565b90506131b282826136cd565b925050505b92915050565b6000808203613201576040517f08c379a00000000000000000000000000000000000000000000000000000000081526004016131f8906159a9565b60405180910390fd5b60008303613212576000905061328f565b6000670de0b6b3a76400008461322891906151cb565b9050670de0b6b3a7640000848261323f919061519a565b1461327f576040517f08c379a000000000000000000000000000000000000000000000000000000000815260040161327690615a15565b60405180910390fd5b828161328b919061519a565b9150505b92915050565b6000828211156132da576040517f08c379a00000000000000000000000000000000000000000000000000000000081526004016132d190615a81565b60405180910390fd5b600082846132e891906155f0565b90508091505092915050565b6000808284613303919061544d565b905083811015613348576040517f08c379a000000000000000000000000000000000000000000000000000000000815260040161333f90615aed565b60405180910390fd5b8091505092915050565b60006fffffffffffffffffffffffffffffffff80168211156133ae576080826040517f6dfcc6500000000000000000000000000000000000000000000000000000000081526004016133a5929190615b48565b60405180910390fd5b819050919050565b60008082846133c591906151cb565b905060008414806133e057508284826133de919061519a565b145b61341f576040517f08c379a000000000000000000000000000000000000000000000000000000000815260040161341690615bbd565b60405180910390fd5b60008103613431576000915050613461565b6001670de0b6b3a764000060018361344991906155f0565b613453919061519a565b61345d919061544d565b9150505b92915050565b600080820361348057670de0b6b3a764000090506136c7565b6000830361349157600090506136c7565b600060ff84901c146134d8576040517f08c379a00000000000000000000000000000000000000000000000000000000081526004016134cf90615c29565b60405180910390fd5b600083905068056bc75e2d631000007f4000000000000000000000000000000000000000000000000000000000000000613512919061519a565b8310613553576040517f08c379a000000000000000000000000000000000000000000000000000000000815260040161354a90615c95565b60405180910390fd5b600083905060008267016345785d8a0000670de0b6b3a76400006135779190615cbf565b12801561359e575067016345785d8a0000670de0b6b3a764000061359b9190615d02565b83125b156136135760006135ae8461372b565b9050670de0b6b3a764000083670de0b6b3a7640000836135ce9190615d46565b6135d89190615d77565b6135e29190615def565b83670de0b6b3a7640000836135f79190615def565b6136019190615d77565b61360b9190615d02565b91505061362a565b8161361d846139ac565b6136279190615d77565b90505b670de0b6b3a76400008161363e9190615def565b9050807ffffffffffffffffffffffffffffffffffffffffffffffffdc702bd3a30fc000013158015613679575068070c1cc73b00c800008113155b6136b8576040517f08c379a00000000000000000000000000000000000000000000000000000000081526004016136af90615ea5565b60405180910390fd5b6136c181614000565b93505050505b92915050565b60008082846136dc919061544d565b905083811015613721576040517f08c379a000000000000000000000000000000000000000000000000000000000815260040161371890615aed565b60405180910390fd5b8091505092915050565b6000670de0b6b3a7640000826137419190615d77565b915060006ec097ce7bc90715b34b9f1000000000836137609190615d02565b6ec097ce7bc90715b34b9f1000000000808561377c9190615cbf565b6137869190615d77565b6137909190615def565b905060006ec097ce7bc90715b34b9f100000000082836137b09190615d77565b6137ba9190615def565b9050600082905060008190506ec097ce7bc90715b34b9f100000000083836137e29190615d77565b6137ec9190615def565b91506003826137fb9190615def565b816138069190615d02565b90506ec097ce7bc90715b34b9f100000000083836138249190615d77565b61382e9190615def565b915060058261383d9190615def565b816138489190615d02565b90506ec097ce7bc90715b34b9f100000000083836138669190615d77565b6138709190615def565b915060078261387f9190615def565b8161388a9190615d02565b90506ec097ce7bc90715b34b9f100000000083836138a89190615d77565b6138b29190615def565b91506009826138c19190615def565b816138cc9190615d02565b90506ec097ce7bc90715b34b9f100000000083836138ea9190615d77565b6138f49190615def565b9150600b826139039190615def565b8161390e9190615d02565b90506ec097ce7bc90715b34b9f1000000000838361392c9190615d77565b6139369190615def565b9150600d826139459190615def565b816139509190615d02565b90506ec097ce7bc90715b34b9f1000000000838361396e9190615d77565b6139789190615def565b9150600f826139879190615def565b816139929190615d02565b90506002816139a19190615d77565b945050505050919050565b6000670de0b6b3a76400008212156139f5576139e582670de0b6b3a7640000806139d69190615d77565b6139e09190615def565b6139ac565b6139ee90615ec5565b9050613ffb565b6000670de0b6b3a7640000770195e54c5dd42177f53a27172fa9ec630262827000000000613a239190615d77565b8312613a6757770195e54c5dd42177f53a27172fa9ec63026282700000000083613a4d9190615def565b92506806f05b59d3b200000081613a649190615d02565b90505b670de0b6b3a76400006b1425982cf597cd205cef7380613a879190615d77565b8312613abf576b1425982cf597cd205cef738083613aa59190615def565b92506803782dace9d900000081613abc9190615d02565b90505b606481613acc9190615d77565b9050606483613adb9190615d77565b92506e01855144814a7ff805980ff00840008312613b3c576e01855144814a7ff805980ff008400068056bc75e2d6310000084613b189190615d77565b613b229190615def565b925068ad78ebc5ac6200000081613b399190615d02565b90505b6b02df0ab5a80a22c61ab5a7008312613b95576b02df0ab5a80a22c61ab5a70068056bc75e2d6310000084613b719190615d77565b613b7b9190615def565b92506856bc75e2d63100000081613b929190615d02565b90505b693f1fce3da636ea5cf8508312613bea57693f1fce3da636ea5cf85068056bc75e2d6310000084613bc69190615d77565b613bd09190615def565b9250682b5e3af16b1880000081613be79190615d02565b90505b690127fa27722cc06cc5e28312613c3f57690127fa27722cc06cc5e268056bc75e2d6310000084613c1b9190615d77565b613c259190615def565b92506815af1d78b58c40000081613c3c9190615d02565b90505b68280e60114edb805d038312613c925768280e60114edb805d0368056bc75e2d6310000084613c6e9190615d77565b613c789190615def565b9250680ad78ebc5ac620000081613c8f9190615d02565b90505b680ebc5fb417461211108312613ce557680ebc5fb4174612111068056bc75e2d6310000084613cc19190615d77565b613ccb9190615def565b925068056bc75e2d6310000081613ce29190615d02565b90505b6808f00f760a4b2db55d8312613d38576808f00f760a4b2db55d68056bc75e2d6310000084613d149190615d77565b613d1e9190615def565b92506802b5e3af16b188000081613d359190615d02565b90505b6806f5f17757889379378312613d8b576806f5f177578893793768056bc75e2d6310000084613d679190615d77565b613d719190615def565b925068015af1d78b58c4000081613d889190615d02565b90505b6806248f33704b2866038312613ddd576806248f33704b28660368056bc75e2d6310000084613dba9190615d77565b613dc49190615def565b925067ad78ebc5ac62000081613dda9190615d02565b90505b6805c548670b9510e7ac8312613e2f576805c548670b9510e7ac68056bc75e2d6310000084613e0c9190615d77565b613e169190615def565b92506756bc75e2d631000081613e2c9190615d02565b90505b600068056bc75e2d6310000084613e469190615d02565b68056bc75e2d631000008086613e5c9190615cbf565b613e669190615d77565b613e709190615def565b9050600068056bc75e2d631000008283613e8a9190615d77565b613e949190615def565b90506000829050600081905068056bc75e2d631000008383613eb69190615d77565b613ec09190615def565b9150600382613ecf9190615def565b81613eda9190615d02565b905068056bc75e2d631000008383613ef29190615d77565b613efc9190615def565b9150600582613f0b9190615def565b81613f169190615d02565b905068056bc75e2d631000008383613f2e9190615d77565b613f389190615def565b9150600782613f479190615def565b81613f529190615d02565b905068056bc75e2d631000008383613f6a9190615d77565b613f749190615def565b9150600982613f839190615def565b81613f8e9190615d02565b905068056bc75e2d631000008383613fa69190615d77565b613fb09190615def565b9150600b82613fbf9190615def565b81613fca9190615d02565b9050600281613fd99190615d77565b905060648186613fe99190615d02565b613ff39190615def565b955050505050505b919050565b60007ffffffffffffffffffffffffffffffffffffffffffffffffdc702bd3a30fc0000821215801561403b575068070c1cc73b00c800008213155b61407a576040517f08c379a000000000000000000000000000000000000000000000000000000000815260040161407190615f59565b60405180910390fd5b60008212156140ba576140958261409090615ec5565b614000565b670de0b6b3a7640000806140a99190615d77565b6140b39190615def565b90506146f7565b60006806f05b59d3b20000008312614103576806f05b59d3b2000000836140e19190615cbf565b9250770195e54c5dd42177f53a27172fa9ec6302628270000000009050614144565b6803782dace9d9000000831261413e576803782dace9d9000000836141289190615cbf565b92506b1425982cf597cd205cef73809050614143565b600190505b5b6064836141519190615d77565b9250600068056bc75e2d63100000905068ad78ebc5ac6200000084126141ba5768ad78ebc5ac62000000846141869190615cbf565b935068056bc75e2d631000006e01855144814a7ff805980ff0084000826141ad9190615d77565b6141b79190615def565b90505b6856bc75e2d6310000008412614210576856bc75e2d631000000846141df9190615cbf565b935068056bc75e2d631000006b02df0ab5a80a22c61ab5a700826142039190615d77565b61420d9190615def565b90505b682b5e3af16b18800000841261426457682b5e3af16b18800000846142359190615cbf565b935068056bc75e2d63100000693f1fce3da636ea5cf850826142579190615d77565b6142619190615def565b90505b6815af1d78b58c40000084126142b8576815af1d78b58c400000846142899190615cbf565b935068056bc75e2d63100000690127fa27722cc06cc5e2826142ab9190615d77565b6142b59190615def565b90505b680ad78ebc5ac6200000841261430b57680ad78ebc5ac6200000846142dd9190615cbf565b935068056bc75e2d6310000068280e60114edb805d03826142fe9190615d77565b6143089190615def565b90505b68056bc75e2d63100000841261435e5768056bc75e2d63100000846143309190615cbf565b935068056bc75e2d63100000680ebc5fb41746121110826143519190615d77565b61435b9190615def565b90505b6802b5e3af16b188000084126143b1576802b5e3af16b1880000846143839190615cbf565b935068056bc75e2d631000006808f00f760a4b2db55d826143a49190615d77565b6143ae9190615def565b90505b68015af1d78b58c4000084126144045768015af1d78b58c40000846143d69190615cbf565b935068056bc75e2d631000006806f5f1775788937937826143f79190615d77565b6144019190615def565b90505b600068056bc75e2d631000009050600085905080826144239190615d02565b9150600268056bc75e2d63100000878361443d9190615d77565b6144479190615def565b6144519190615def565b9050808261445f9190615d02565b9150600368056bc75e2d6310000087836144799190615d77565b6144839190615def565b61448d9190615def565b9050808261449b9190615d02565b9150600468056bc75e2d6310000087836144b59190615d77565b6144bf9190615def565b6144c99190615def565b905080826144d79190615d02565b9150600568056bc75e2d6310000087836144f19190615d77565b6144fb9190615def565b6145059190615def565b905080826145139190615d02565b9150600668056bc75e2d63100000878361452d9190615d77565b6145379190615def565b6145419190615def565b9050808261454f9190615d02565b9150600768056bc75e2d6310000087836145699190615d77565b6145739190615def565b61457d9190615def565b9050808261458b9190615d02565b9150600868056bc75e2d6310000087836145a59190615d77565b6145af9190615def565b6145b99190615def565b905080826145c79190615d02565b9150600968056bc75e2d6310000087836145e19190615d77565b6145eb9190615def565b6145f59190615def565b905080826146039190615d02565b9150600a68056bc75e2d63100000878361461d9190615d77565b6146279190615def565b6146319190615def565b9050808261463f9190615d02565b9150600b68056bc75e2d6310000087836146599190615d77565b6146639190615def565b61466d9190615def565b9050808261467b9190615d02565b9150600c68056bc75e2d6310000087836146959190615d77565b61469f9190615def565b6146a99190615def565b905080826146b79190615d02565b915060648468056bc75e2d6310000084866146d29190615d77565b6146dc9190615def565b6146e69190615d77565b6146f09190615def565b9450505050505b919050565b6000604051905090565b600080fd5b600080fd5b600073ffffffffffffffffffffffffffffffffffffffff82169050919050565b600061473b82614710565b9050919050565b61474b81614730565b811461475657600080fd5b50565b60008135905061476881614742565b92915050565b6000819050919050565b6147818161476e565b811461478c57600080fd5b50565b60008135905061479e81614778565b92915050565b600080fd5b600080fd5b6000601f19601f8301169050919050565b7f4e487b7100000000000000000000000000000000000000000000000000000000600052604160045260246000fd5b6147f7826147ae565b810181811067ffffffffffffffff82111715614816576148156147bf565b5b80604052505050565b60006148296146fc565b905061483582826147ee565b919050565b600067ffffffffffffffff821115614855576148546147bf565b5b61485e826147ae565b9050602081019050919050565b82818337600083830152505050565b600061488d6148888461483a565b61481f565b9050828152602081018484840111156148a9576148a86147a9565b5b6148b484828561486b565b509392505050565b600082601f8301126148d1576148d06147a4565b5b81356148e184826020860161487a565b91505092915050565b60008060008060008060c0878903121561490757614906614706565b5b600061491589828a01614759565b965050602061492689828a01614759565b955050604061493789828a0161478f565b945050606087013567ffffffffffffffff8111156149585761495761470b565b5b61496489828a016148bc565b935050608061497589828a0161478f565b92505060a061498689828a01614759565b9150509295509295509295565b6000602082840312156149a9576149a8614706565b5b60006149b784828501614759565b91505092915050565b600080604083850312156149d7576149d6614706565b5b60006149e585828601614759565b92505060206149f68582860161478f565b9150509250929050565b60008060408385031215614a1757614a16614706565b5b6000614a2585828601614759565b9250506020614a3685828601614759565b9150509250929050565b600080600060608486031215614a5957614a58614706565b5b6000614a6786828701614759565b9350506020614a7886828701614759565b9250506040614a8986828701614759565b9150509250925092565b6000819050919050565b6000614ab8614ab3614aae84614710565b614a93565b614710565b9050919050565b6000614aca82614a9d565b9050919050565b6000614adc82614abf565b9050919050565b614aec81614ad1565b82525050565b6000602082019050614b076000830184614ae3565b92915050565b614b1681614730565b82525050565b6000602082019050614b316000830184614b0d565b92915050565b600081519050614b4681614778565b92915050565b600060208284031215614b6257614b61614706565b5b6000614b7084828501614b37565b91505092915050565b600081519050614b8881614742565b92915050565b600060208284031215614ba457614ba3614706565b5b6000614bb284828501614b79565b91505092915050565b600082825260208201905092915050565b7f496e76616c696420726571756573740000000000000000000000000000000000600082015250565b6000614c02600f83614bbb565b9150614c0d82614bcc565b602082019050919050565b60006020820190508181036000830152614c3181614bf5565b9050919050565b600081519050919050565b7f4e487b7100000000000000000000000000000000000000000000000000000000600052602260045260246000fd5b60006002820490506001821680614c8a57607f821691505b602082108103614c9d57614c9c614c43565b5b50919050565b60008190508160005260206000209050919050565b60006020601f8301049050919050565b600082821b905092915050565b600060088302614d057fffffffffffffffffffffffffffffffffffffffffffffffffffffffffffffffff82614cc8565b614d0f8683614cc8565b95508019841693508086168417925050509392505050565b6000614d42614d3d614d388461476e565b614a93565b61476e565b9050919050565b6000819050919050565b614d5c83614d27565b614d70614d6882614d49565b848454614cd5565b825550505050565b600090565b614d85614d78565b614d90818484614d53565b505050565b5b81811015614db457614da9600082614d7d565b600181019050614d96565b5050565b601f821115614df957614dca81614ca3565b614dd384614cb8565b81016020851015614de2578190505b614df6614dee85614cb8565b830182614d95565b50505b505050565b600082821c905092915050565b6000614e1c60001984600802614dfe565b1980831691505092915050565b6000614e358383614e0b565b9150826002028217905092915050565b614e4e82614c38565b67ffffffffffffffff811115614e6757614e666147bf565b5b614e718254614c72565b614e7c828285614db8565b600060209050601f831160018114614eaf5760008415614e9d578287015190505b614ea78582614e29565b865550614f0f565b601f198416614ebd86614ca3565b60005b82811015614ee557848901518255600182019150602085019450602081019050614ec0565b86831015614f025784890151614efe601f891682614e0b565b8355505b6001600288020188555050505b505050505050565b614f208161476e565b82525050565b60005b83811015614f44578082015181840152602081019050614f29565b60008484015250505050565b6000614f5b82614c38565b614f658185614bbb565b9350614f75818560208601614f26565b614f7e816147ae565b840191505092915050565b600060a082019050614f9e6000830188614b0d565b614fab6020830187614f17565b8181036040830152614fbd8186614f50565b9050614fcc6060830185614f17565b614fd96080830184614f17565b9695505050505050565b60008115159050919050565b614ff881614fe3565b811461500357600080fd5b50565b60008151905061501581614fef565b92915050565b60006020828403121561503157615030614706565b5b600061503f84828501615006565b91505092915050565b7f4e6f20636f6c6c61746572616c00000000000000000000000000000000000000600082015250565b600061507e600d83614bbb565b915061508982615048565b602082019050919050565b600060208201905081810360008301526150ad81615071565b9050919050565b60006020820190506150c96000830184614f17565b92915050565b600067ffffffffffffffff82169050919050565b6150ec816150cf565b81146150f757600080fd5b50565b600081519050615109816150e3565b92915050565b60006020828403121561512557615124614706565b5b6000615133848285016150fa565b91505092915050565b7f4e487b7100000000000000000000000000000000000000000000000000000000600052601260045260246000fd5b7f4e487b7100000000000000000000000000000000000000000000000000000000600052601160045260246000fd5b60006151a58261476e565b91506151b08361476e565b9250826151c0576151bf61513c565b5b828204905092915050565b60006151d68261476e565b91506151e18361476e565b92508282026151ef8161476e565b915082820484148315176152065761520561516b565b5b5092915050565b7f426f72726f772041505900000000000000000000000000000000000000000000600082015250565b6000615243600a83614bbb565b915061524e8261520d565b602082019050919050565b6000602082019050818103600083015261527281615236565b9050919050565b600060408201905061528e6000830185614b0d565b61529b6020830184614b0d565b9392505050565b60006fffffffffffffffffffffffffffffffff82169050919050565b6152c7816152a2565b81146152d257600080fd5b50565b6000815190506152e4816152be565b92915050565b600060208284031215615300576152ff614706565b5b600061530e848285016152d5565b91505092915050565b600080fd5b600060ff82169050919050565b6153328161531c565b811461533d57600080fd5b50565b60008151905061534f81615329565b92915050565b6000610100828403121561536c5761536b615317565b5b61537761010061481f565b9050600061538784828501615340565b600083015250602061539b84828501614b79565b60208301525060406153af84828501614b79565b60408301525060606153c3848285016150fa565b60608301525060806153d7848285016150fa565b60808301525060a06153eb848285016150fa565b60a08301525060c06153ff848285016150fa565b60c08301525060e0615413848285016152d5565b60e08301525092915050565b6000610100828403121561543657615435614706565b5b600061544484828501615355565b91505092915050565b60006154588261476e565b91506154638361476e565b925082820190508082111561547b5761547a61516b565b5b92915050565b7f42617365206d696e696d756d0000000000000000000000000000000000000000600082015250565b60006154b7600c83614bbb565b91506154c282615481565b602082019050919050565b600060208201905081810360008301526154e6816154aa565b9050919050565b60006080820190506155026000830187614b0d565b61550f6020830186614b0d565b61551c6040830185614b0d565b6155296060830184614f17565b95945050505050565b60006040820190506155476000830185614b0d565b6155546020830184614f17565b9392505050565b60006040820190506155706000830185614f17565b61557d6020830184614b0d565b9392505050565b7f5265706179696e67204261736500000000000000000000000000000000000000600082015250565b60006155ba600d83614bbb565b91506155c582615584565b602082019050919050565b600060208201905081810360008301526155e9816155ad565b9050919050565b60006155fb8261476e565b91506156068361476e565b925082820390508181111561561e5761561d61516b565b5b92915050565b7f4e487b7100000000000000000000000000000000000000000000000000000000600052603260045260246000fd5b6000819050919050565b61566681615653565b811461567157600080fd5b50565b6000815190506156838161565d565b92915050565b600080600080600060a086880312156156a5576156a4614706565b5b60006156b388828901614b37565b95505060206156c488828901614b37565b94505060406156d588828901614b37565b93505060606156e688828901615674565b92505060806156f788828901614b37565b9150509295509295909350565b7f496e76616c696420726564656d7074696f6e0000000000000000000000000000600082015250565b600061573a601283614bbb565b915061574582615704565b602082019050919050565b600060208201905081810360008301526157698161572d565b9050919050565b6000806000806080858703121561578a57615789614706565b5b600061579887828801614b37565b94505060206157a987828801614b37565b93505060406157ba87828801615674565b92505060606157cb87828801614b37565b91505092959194509250565b6157e081615653565b82525050565b60006020820190506157fb60008301846157d7565b92915050565b7f496e76616c696420697373756572000000000000000000000000000000000000600082015250565b6000615837600e83614bbb565b915061584282615801565b602082019050919050565b600060208201905081810360008301526158668161582a565b9050919050565b6000806040838503121561588457615883614706565b5b6000615892858286016152d5565b92505060206158a3858286016152d5565b9150509250929050565b60006158b8826152a2565b91506158c3836152a2565b925082820190506fffffffffffffffffffffffffffffffff8111156158eb576158ea61516b565b5b92915050565b7f436f6c6c61746572616c20636170000000000000000000000000000000000000600082015250565b6000615927600e83614bbb565b9150615932826158f1565b602082019050919050565b600060208201905081810360008301526159568161591a565b9050919050565b7f5a45524f5f4449564953494f4e00000000000000000000000000000000000000600082015250565b6000615993600d83614bbb565b915061599e8261595d565b602082019050919050565b600060208201905081810360008301526159c281615986565b9050919050565b7f4449565f494e5445524e414c0000000000000000000000000000000000000000600082015250565b60006159ff600c83614bbb565b9150615a0a826159c9565b602082019050919050565b60006020820190508181036000830152615a2e816159f2565b9050919050565b7f5355425f4f564552464c4f570000000000000000000000000000000000000000600082015250565b6000615a6b600c83614bbb565b9150615a7682615a35565b602082019050919050565b60006020820190508181036000830152615a9a81615a5e565b9050919050565b7f4144445f4f564552464c4f570000000000000000000000000000000000000000600082015250565b6000615ad7600c83614bbb565b9150615ae282615aa1565b602082019050919050565b60006020820190508181036000830152615b0681615aca565b9050919050565b6000819050919050565b6000615b32615b2d615b2884615b0d565b614a93565b61531c565b9050919050565b615b4281615b17565b82525050565b6000604082019050615b5d6000830185615b39565b615b6a6020830184614f17565b9392505050565b7f4d554c5f4f564552464c4f570000000000000000000000000000000000000000600082015250565b6000615ba7600c83614bbb565b9150615bb282615b71565b602082019050919050565b60006020820190508181036000830152615bd681615b9a565b9050919050565b7f585f4f55545f4f465f424f554e44530000000000000000000000000000000000600082015250565b6000615c13600f83614bbb565b9150615c1e82615bdd565b602082019050919050565b60006020820190508181036000830152615c4281615c06565b9050919050565b7f595f4f55545f4f465f424f554e44530000000000000000000000000000000000600082015250565b6000615c7f600f83614bbb565b9150615c8a82615c49565b602082019050919050565b60006020820190508181036000830152615cae81615c72565b9050919050565b6000819050919050565b6000615cca82615cb5565b9150615cd583615cb5565b9250828203905081811260008412168282136000851215161715615cfc57615cfb61516b565b5b92915050565b6000615d0d82615cb5565b9150615d1883615cb5565b925082820190508281121560008312168382126000841215161715615d4057615d3f61516b565b5b92915050565b6000615d5182615cb5565b9150615d5c83615cb5565b925082615d6c57615d6b61513c565b5b828207905092915050565b6000615d8282615cb5565b9150615d8d83615cb5565b9250828202615d9b81615cb5565b91507f80000000000000000000000000000000000000000000000000000000000000008414600084121615615dd357615dd261516b565b5b8282058414831517615de857615de761516b565b5b5092915050565b6000615dfa82615cb5565b9150615e0583615cb5565b925082615e1557615e1461513c565b5b600160000383147f800000000000000000000000000000000000000000000000000000000000000083141615615e4e57615e4d61516b565b5b828205905092915050565b7f50524f445543545f4f55545f4f465f424f554e44530000000000000000000000600082015250565b6000615e8f601583614bbb565b9150615e9a82615e59565b602082019050919050565b60006020820190508181036000830152615ebe81615e82565b9050919050565b6000615ed082615cb5565b91507f80000000000000000000000000000000000000000000000000000000000000008203615f0257615f0161516b565b5b816000039050919050565b7f494e56414c49445f4558504f4e454e5400000000000000000000000000000000600082015250565b6000615f43601083614bbb565b9150615f4e82615f0d565b602082019050919050565b60006020820190508181036000830152615f7281615f36565b905091905056fea264697066735822122020bb7cdcc4c52114c5a0061bc565513beb72b66e4128ff9e5ede056b7895b72c64736f6c63430008180033",
  "linkReferences": {},
  "deployedLinkReferences": {}
}