{
  "_format": "hh-sol-artifact-1",
  "contractName": "VerifiedMarkets",
  "sourceName": "contracts/VerifiedMarkets.sol",
  "abi": [
    {
      "inputs": [
        {
          "internalType": "address",
          "name": "comet_",
          "type": "address"
        }
      ],
      "stateMutability": "nonpayable",
      "type": "constructor"
    },
    {
      "inputs": [],
      "name": "ReentrancyGuardReentrantCall",
      "type": "error"
    },
    {
      "inputs": [
        {
          "internalType": "uint8",
          "name": "bits",
          "type": "uint8"
        },
        {
          "internalType": "uint256",
          "name": "value",
          "type": "uint256"
        }
      ],
      "name": "SafeCastOverflowedUintDowncast",
      "type": "error"
    },
    {
      "anonymous": false,
      "inputs": [
        {
          "indexed": true,
          "internalType": "address",
          "name": "borrower",
          "type": "address"
        },
        {
          "indexed": true,
          "internalType": "address",
          "name": "base",
          "type": "address"
        },
        {
          "indexed": false,
          "internalType": "uint256",
          "name": "amount",
          "type": "uint256"
        },
        {
          "indexed": false,
          "internalType": "address",
          "name": "asset",
          "type": "address"
        }
      ],
      "name": "Borrowed",
      "type": "event"
    },
    {
      "anonymous": false,
      "inputs": [
        {
          "indexed": true,
          "internalType": "address",
          "name": "issuer",
          "type": "address"
        },
        {
          "indexed": true,
          "internalType": "address",
          "name": "asset",
          "type": "address"
        },
        {
          "indexed": false,
          "internalType": "address",
          "name": "bond",
          "type": "address"
        },
        {
          "indexed": false,
          "internalType": "uint256",
          "name": "apy",
          "type": "uint256"
        },
        {
          "indexed": false,
          "internalType": "string",
          "name": "issuingDocs",
          "type": "string"
        },
        {
          "indexed": false,
          "internalType": "uint256",
          "name": "couponFrequency",
          "type": "uint256"
        },
        {
          "indexed": false,
          "internalType": "uint256",
          "name": "tenure",
          "type": "uint256"
        }
      ],
      "name": "NewRWA",
      "type": "event"
    },
    {
      "anonymous": false,
      "inputs": [
        {
          "indexed": true,
          "internalType": "address",
          "name": "issuer",
          "type": "address"
        },
        {
          "indexed": true,
          "internalType": "address",
          "name": "asset",
          "type": "address"
        },
        {
          "indexed": false,
          "internalType": "address",
          "name": "collateral",
          "type": "address"
        },
        {
          "indexed": false,
          "internalType": "uint256",
          "name": "amount",
          "type": "uint256"
        }
      ],
      "name": "PostedCollateral",
      "type": "event"
    },
    {
      "anonymous": false,
      "inputs": [
        {
          "indexed": true,
          "internalType": "address",
          "name": "borrower",
          "type": "address"
        },
        {
          "indexed": true,
          "internalType": "address",
          "name": "base",
          "type": "address"
        },
        {
          "indexed": false,
          "internalType": "uint256",
          "name": "amount",
          "type": "uint256"
        }
      ],
      "name": "Repaid",
      "type": "event"
    },
    {
      "inputs": [
        {
          "internalType": "address",
          "name": "asset",
          "type": "address"
        }
      ],
      "name": "borrowBase",
      "outputs": [],
      "stateMutability": "nonpayable",
      "type": "function"
    },
    {
      "inputs": [],
      "name": "comet",
      "outputs": [
        {
          "internalType": "contract Comet",
          "name": "",
          "type": "address"
        }
      ],
      "stateMutability": "view",
      "type": "function"
    },
    {
      "inputs": [
        {
          "internalType": "address",
          "name": "bond",
          "type": "address"
        },
        {
          "internalType": "address",
          "name": "issuer",
          "type": "address"
        },
        {
          "internalType": "address",
          "name": "factory",
          "type": "address"
        }
      ],
      "name": "postCollateral",
      "outputs": [],
      "stateMutability": "nonpayable",
      "type": "function"
    },
    {
      "inputs": [
        {
          "internalType": "address",
          "name": "asset",
          "type": "address"
        },
        {
          "internalType": "uint256",
          "name": "amount",
          "type": "uint256"
        }
      ],
      "name": "repayBase",
      "outputs": [],
      "stateMutability": "nonpayable",
      "type": "function"
    },
    {
      "inputs": [
        {
          "internalType": "address",
          "name": "asset",
          "type": "address"
        },
        {
          "internalType": "address",
          "name": "collateral",
          "type": "address"
        }
      ],
      "name": "repayLenders",
      "outputs": [],
      "stateMutability": "nonpayable",
      "type": "function"
    },
    {
      "inputs": [
        {
          "internalType": "address",
          "name": "asset",
          "type": "address"
        },
        {
          "internalType": "address",
          "name": "bond",
          "type": "address"
        },
        {
          "internalType": "uint256",
          "name": "apy",
          "type": "uint256"
        },
        {
          "internalType": "string",
          "name": "issuingDocs",
          "type": "string"
        },
        {
          "internalType": "uint256",
          "name": "frequency",
          "type": "uint256"
        },
        {
          "internalType": "address",
          "name": "factory",
          "type": "address"
        }
      ],
      "name": "submitNewRWA",
      "outputs": [],
      "stateMutability": "nonpayable",
      "type": "function"
    },
    {
      "inputs": [
        {
          "internalType": "address",
          "name": "bond",
          "type": "address"
        },
        {
          "internalType": "address",
          "name": "issuer",
          "type": "address"
        },
        {
          "internalType": "address",
          "name": "factory",
          "type": "address"
        }
      ],
      "name": "withdrawCollateral",
      "outputs": [],
      "stateMutability": "nonpayable",
      "type": "function"
    }
  ],
  "bytecode": "0x60a0346200010357601f6200389a38819003918201601f19168301916001600160401b0383118484101762000108578084926020946040528339810103126200010357516001600160a01b038116908190036200010357600160005560805260405161377b90816200011f82396080518181816101d70152818161082101528181610c9e01528181610f080152818161114f015281816111a4015281816111fa015281816112a2015281816113240152818161139e0152818161141a01528181611491015281816114f501528181611558015281816115aa015281816115ec0152818161163f0152818161176b015281816117d50152818161182a015261188d0152f35b600080fd5b634e487b7160e01b600052604160045260246000fdfe6080604052600436101561001257600080fd5b6000803560e01c80630e76fe0914611ce257806318eb20f8146110e55780632511e8a014610ea65780633f53b0a714610ba757806371b92aed14610850578063ba3e9c121461080b5763befff4271461006a57600080fd5b34610808576060366003190112610808576100836121d8565b61008b6121ee565b90610094612204565b9061009d6124d1565b604051635255642160e01b81526001600160a01b038281169460209491929185836004818a5afa9283156107fd5788936107c2575b5083831691821561078c5760405163410a6c7d60e01b81523360048201526001600160a01b03871660248201529085169790956080876044818c5afa8a811561078057899481998293610747575b5088169a8b976040519b8c809a63b946762960e01b96878352600483015260249b8c915afa9b8c1561060f57839c6106fd575b506040516323eea71f60e21b81526001600160a01b039182166004820152908516602482015292919060a09084908180604481015b03915afa9182156106f05786938992936106ba575b506040519c8d938492835260048301525afa9889156106af578a99610678575b50858816908115158061066f575b6101d4906122ae565b867f0000000000000000000000000000000000000000000000000000000000000000166040516359e017bd60e01b81528360048201526040818981855afa908115610664578d9161061a575b508c604051631d9df61760e11b81528560048201526101009081818c81885afa91821561060f5760e093926105e2575b505001516001600160801b0390811691818c116105c3578116818c16018181116105b05716101561057b5760405163095ea7b360e01b81526001600160a01b0382166004820152602481018a90528c92919083908781604481858a5af1801561057057610543575b508784526002875289604085209d169c8d6000528752848a6040600020541614610489575b15610332575b604080516001600160a01b038d168152602081018c905284918e9133917f6d9c01d2a1bfe391d97dad0c8485ad9eb8603cf2404ea70f733fe47b186a0f519190819081015b0390a36001815580f35b803b15610485578983918c836103609560405196879586948593639032317760e01b8552306004860161240f565b03925af1801561047a57610462575b505060039360016040519161038383612244565b838352858301908a82528d526002865260408d208c60005286528860406000209351166bffffffffffffffffffffffff60a01b84541617835551910155338a526004835260408a2082600052835260406000209060005282528560406000205588525260408620805491600160401b831015610450575091610430826103289460017f6d9c01d2a1bfe391d97dad0c8485ad9eb8603cf2404ea70f733fe47b186a0f519795018155612470565b819291549060031b9133831b921b191617905591388080808981806102e3565b634e487b7160e01b8852604160045287fd5b61046b9061221a565b61047657893861036f565b8980fd5b6040513d84823e3d90fd5b8280fd5b50803b15610485576104b4838b8d6040519384928392639032317760e01b845288306004860161240f565b038183865af1908115610538578491610524575b5087905260028652604083208c600052865260016040600020016104ed8b825461243a565b9055600133845260048752604084208660005287526040600020856000528752604060002061051d8c825461243a565b90556102dd565b61052d9061221a565b6104855782386104c8565b6040513d86823e3d90fd5b61056290883d8a11610569575b61055a8183612260565b810190612296565b50386102b8565b503d610550565b6040513d87823e3d90fd5b60405162461bcd60e51b815260048101869052600e818901526d0436f6c6c61746572616c206361760941b6044820152606490fd5b634e487b7160e01b8f526011600452898ffd5b6040516306dfcc6560e41b815260806004820152808b018d9052604490fd5b6106019250803d10610608575b6105f98183612260565b81019061235c565b3880610250565b503d6105ef565b6040513d85823e3d90fd5b90506040813d60401161065c575b8161063560409383612260565b81010312610658576106518661064a83612348565b9201612348565b5038610220565b8c80fd5b3d9150610628565b6040513d8f823e3d90fd5b508715156101cb565b9098508281813d83116106a8575b6106908183612260565b81010312610476576106a190612282565b97386101bd565b503d610686565b6040513d8c823e3d90fd5b6106dd91935060a03d60a0116106e9575b6106d58183612260565b810190612488565b5092505050913861019d565b503d6106cb565b50604051903d90823e3d90fd5b939291909b508684813d8311610740575b6107188183612260565b8101031261073c578460a09161073061018896612282565b9d925092939450610153565b5080fd5b503d61070e565b899a5061076d91935060803d608011610779575b6107658183612260565b8101906124af565b509a9150999290610120565b503d61075b565b604051903d90823e3d90fd5b60405162461bcd60e51b815260048101889052600e60248201526d24b73b30b634b21034b9b9bab2b960911b6044820152606490fd5b9092508581813d83116107f6575b6107da8183612260565b810103126107f2576107eb90612282565b91386100d2565b8780fd5b503d6107d0565b6040513d8a823e3d90fd5b80fd5b50346108085780600319360112610808576040517f00000000000000000000000000000000000000000000000000000000000000006001600160a01b03168152602090f35b50346108085760603660031901126108085761086a6121d8565b6108726121ee565b61087a612204565b6108826124d1565b604051635255642160e01b81526020926001600160a01b0385811693909290918316908581600481885afa80156107fd5787918991610b68575b506040516323eea71f60e21b81526001600160a01b0391821660048201529116602482015260a08180604481015b0381855afa9283156107fd5784918994610b42575b50604051632d7a398560e11b8152600481018790529116928682602481875afa908115610b37578991610b01575b6109379250612698565b4210610ac75760405163410a6c7d60e01b81523360048201526001600160a01b038716602482015290608090829060449082905afa8015610abc5785918891610a99575b5060246040518094819363b946762960e01b835260048301525afa8015610a8e5784918791610a4f575b50338752600480835260408089206000878152908552818120959093168084529484529182902054915163a9059cbb60e01b81526001600160a01b039097169087015260248601529093908180604481015b038188885af1801561057057610a32575b50338452600482526040842090600052815260406000209160005252806040600020556001815580f35b610a4890833d85116105695761055a8183612260565b5038610a08565b82819392503d8311610a87575b610a668183612260565b81010312610a83576109f791610a7c8592612282565b90926109a5565b8580fd5b503d610a5c565b6040513d88823e3d90fd5b610ab2915060803d608011610779576107658183612260565b509150503861097b565b6040513d89823e3d90fd5b60405162461bcd60e51b815260048101869052601260248201527124b73b30b634b2103932b232b6b83a34b7b760711b6044820152606490fd5b90508682813d8311610b30575b610b188183612260565b81010312610b2b5761093791519061092d565b600080fd5b503d610b0e565b6040513d8b823e3d90fd5b610b5c91945060a03d60a0116106e9576106d58183612260565b935050505092386108ff565b809250878092503d8311610ba0575b610b818183612260565b810103126107f25760a087610b986108ea93612282565b9150916108bc565b503d610b77565b503461080857604036600319011261080857610bc16121d8565b610bc96121ee565b610bd16124d1565b3383526001916020908382526040852060018060a01b038092169081600052835281604060002054169182875260058452604087205492600019840193808511610e925781895260058652610c298560408b20612447565b5054828a526005875260408a2090916001190190868211610e7e57610c5a9291610c5291612447565b505490612653565b9333895287865260408920846000528652600394856040600020015410610c83575b8888815580f35b604051630dd3126d60e21b81526004810183905286816024817f000000000000000000000000000000000000000000000000000000000000000088165afa9081156106af5789908b92610e4a575b50610ce9610cf293858d5260058a5260408d20612447565b50015490612653565b92818952600586526040892093845415610e3457610d4290610d3c8b9995938b97600052878a600020015490338c52888b5260408c20906000528a528860406000200154906125a9565b90612698565b9281889116945b610d54575b50610c7c565b828852858752604088208054821015610e2e57610df29883610d93846040838c610d808f988590612470565b9054911b1c16948981528c875220612470565b9054908a1b1c168c526004825260408c208560005282526040600020876000528252610dc4604060002054876125a9565b60405163a9059cbb60e01b81526001600160a01b039092166004830152602482015298899081906044820190565b03818d895af19081156106af5789988992610e11575b50018997610d49565b610e2790893d8b116105695761055a8183612260565b5038610e08565b50610d4e565b634e487b7160e01b600052603260045260246000fd5b80939250888092503d8311610e77575b610e648183612260565b81010312610b2b57905188610ce9610cd1565b503d610e5a565b634e487b7160e01b8b52601160045260248bfd5b634e487b7160e01b89526011600452602489fd5b503461080857604036600319011261080857610ec06121d8565b602435610ecb6124d1565b33835260209160018352604084209060018060a01b03809116918286528452806040862054169182156110b05760405163c55dae6360e01b8152927f000000000000000000000000000000000000000000000000000000000000000083168685600481845afa9485156107fd578895611079575b50803b156107f257604051639032317760e01b8152888180610f678a8a88336004860161240f565b038183865af18015610b3757611062575b509087929133845260018852604084208360005288526005604060002001610fa1888254612463565b90553384526002885260408420836000528852846040600020541692338552600289526040852090600052885260016040600020015490803b1561105e5761100593858094604051968795869485936304c8826360e31b855230906004860161240f565b03925af1801561047a5761104a575b50507f0a3fbbea70e93f2daafa3102f5c9a1b8315e6d7a1e43e4bc020bc1162327470a9160405193845216923392a36001815580f35b6110539061221a565b61105e578438611014565b8480fd5b61107090989193929861221a565b96909138610f78565b9094508681813d83116110a9575b6110918183612260565b810103126107f2576110a290612282565b9338610f3f565b503d611087565b60405162461bcd60e51b815260048101869052600d60248201526c5265706179696e67204261736560981b6044820152606490fd5b5034610808576020366003190112610808576110ff6121d8565b6111076124d1565b3382526001602090815260408084206001600160a01b0384811686529083528185205491516338aa813f60e01b815291811660048301819052938593909291829060249082907f0000000000000000000000000000000000000000000000000000000000000000165afa9081156105705761118f916001918791611cc3575b501515146122ae565b604051637eb7113160e01b81526020816004817f00000000000000000000000000000000000000000000000000000000000000006001600160a01b03165afa908115610570578591611c91575b50604051634fd41dad60e11b815260048101919091526020816024817f00000000000000000000000000000000000000000000000000000000000000006001600160a01b03165afa8015610570578590611c50575b67ffffffffffffffff9150166a1a1a94ec861d5c3380000090818102918183041490151715611c3c57670de0b6b3a76400009033865260016020526040862060018060a01b038416875260205204600160408620015410611c0a5760405163c55dae6360e01b8152916020836004817f00000000000000000000000000000000000000000000000000000000000000006001600160a01b03165afa928315610570578593611bce575b503385526002602090815260408087206001600160a01b038581168952908352818820549151632e12a4f760e11b81528782166004820152911660248201529081806044810103817f00000000000000000000000000000000000000000000000000000000000000006001600160a01b03165afa8015610a8e57611b95575b503385526002602090815260408087206001600160a01b0385811689529252808720549051631d9df61760e11b815290821660048201529061010090829060249082907f0000000000000000000000000000000000000000000000000000000000000000165afa908115610a8e578691611b74575b503386526002602090815260408088206001600160a01b038681168a52908352818920600101548483015192516341976e0960e01b8152928216600484015291939290849060249082907f0000000000000000000000000000000000000000000000000000000000000000165afa9283156107fd578893611b3f575b50608061147361146661147c9567ffffffffffffffff946122ff565b8360608601511690612328565b920151166122ff565b6040516344c1e5eb60e01b81526020816004817f00000000000000000000000000000000000000000000000000000000000000006001600160a01b03165afa908115610abc578791611b05575b506114dd90670de0b6b3a7640000926122ff565b60405163e7dad6bd60e01b81529190046020826004817f00000000000000000000000000000000000000000000000000000000000000006001600160a01b03165afa918215610abc578792611ac9575b506040516341976e0960e01b81526001600160a01b03928316600482015291602090839060249082907f0000000000000000000000000000000000000000000000000000000000000000165afa908115610abc578791611a93575b6115929250612328565b60405163300e6beb60e01b81529094906020816004817f00000000000000000000000000000000000000000000000000000000000000006001600160a01b03165afa908115610abc578791611a61575b50851115611a2d577f00000000000000000000000000000000000000000000000000000000000000006001600160a01b03163b15610a83576040516304c8826360e31b815286818061163a898930886004860161240f565b0381837f00000000000000000000000000000000000000000000000000000000000000006001600160a01b03165af18015610abc57611a1a575b5033825260016020526040822060018060a01b03841687526020526001604087200154670de0b6b3a76400000180670de0b6b3a764000011611a06576116df6116e59133855260016020526040852060018060a01b0387168a52602052600460408a200154906124f4565b866125a9565b9433835260016020526040832060018060a01b03851688526020526005604088200161171287825461243a565b905560405163a9059cbb60e01b815233600482015260248101879052602081604481876001600160a01b038b165af18015610538576119e7575b506117ac602061175c8884612653565b60405163095ea7b360e01b81527f00000000000000000000000000000000000000000000000000000000000000006001600160a01b03166004820152602481019190915291829081906044820190565b0381876001600160a01b038b165af18015610538579187916117d3936119c8575b50612653565b7f00000000000000000000000000000000000000000000000000000000000000006001600160a01b03163b1561048557826118259160405180938192639032317760e01b83528987306004860161240f565b0381837f00000000000000000000000000000000000000000000000000000000000000006001600160a01b03165af1801561060f579083916119b4575b508190526005602090815260408084209051630dd3126d60e21b8152600481019390935290826024817f00000000000000000000000000000000000000000000000000000000000000006001600160a01b03165afa91821561060f57839261197c575b50604051906118d382612244565b42825260208201928352805490600160401b82101561196857906118fc91600182018155612447565b939093611954575051825551600190910155604080519384526001600160a01b03918216602085015291169133917f6307558490eadb9b37b03c11433d50aef004f9316be36f5d959936dfed4d5a7291a36001815580f35b634e487b7160e01b81526004819052602490fd5b634e487b7160e01b85526041600452602485fd5b9091506020813d6020116119ac575b8161199860209383612260565b810103126119a8575190386118c5565b8680fd5b3d915061198b565b6119bd9061221a565b61073c578138611862565b6119e09060203d6020116105695761055a8183612260565b50386117cd565b6119ff9060203d6020116105695761055a8183612260565b503861174c565b634e487b7160e01b83526011600452602483fd5b611a2591925061221a565b849038611674565b60405162461bcd60e51b815260206004820152600c60248201526b42617365206d696e696d756d60a01b6044820152606490fd5b90506020813d602011611a8b575b81611a7c60209383612260565b810103126119a85751386115e2565b3d9150611a6f565b90506020823d602011611ac1575b81611aae60209383612260565b810103126119a857611592915190611588565b3d9150611aa1565b9091506020813d602011611afd575b81611ae560209383612260565b810103126119a857611af690612282565b903861152d565b3d9150611ad8565b90506020813d602011611b37575b81611b2060209383612260565b810103126119a85751670de0b6b3a76400006114c9565b3d9150611b13565b92506020833d602011611b6c575b81611b5a60209383612260565b810103126107f257915191608061144a565b3d9150611b4d565b611b8f91506101003d61010011610608576105f98183612260565b386113ce565b6020813d602011611bc6575b81611bae60209383612260565b81010312610a8357611bbf90612348565b5038611359565b3d9150611ba1565b9092506020813d602011611c02575b81611bea60209383612260565b8101031261105e57611bfb90612282565b91386112da565b3d9150611bdd565b60405162461bcd60e51b815260206004820152600a602482015269426f72726f772041505960b01b6044820152606490fd5b634e487b7160e01b85526011600452602485fd5b506020813d602011611c89575b81611c6a60209383612260565b8101031261105e57611c8467ffffffffffffffff916122ea565b611231565b3d9150611c5d565b90506020813d602011611cbb575b81611cac60209383612260565b8101031261105e5751386111dc565b3d9150611c9f565b611cdc915060203d6020116105695761055a8183612260565b38611186565b50346108085760c036600319011261080857611cfc6121d8565b611d046121ee565b9060643567ffffffffffffffff81116121cc57366023820112156121cc57806004013567ffffffffffffffff811161196857849190611d4e601f8201601f19166020016080612260565b80608052366024828401011161048557602091819060240160a03701608001526001600160a01b0360a43590811691908290036121cc576020602492611d926124d1565b604051632d7a398560e11b81526001600160a01b038616600482015293849182905afa9182156105385784926121a0575b506001600160a01b038116151580612127575b8061211c575b80612111575b80612108575b156120d1573384526001602090815260408086206001600160a01b03848116885292528520541615611e1d575b836001815580f35b6040518060c081011067ffffffffffffffff60c0830111176119685760c0810160405260018060a01b038416815260208101906044358252604081016080815260843560608301528460808301528660a083015233875260016020526040872060018060a01b0385168852602052604087209260018060a01b038351166bffffffffffffffffffffffff60a01b8554161784555160018401555180519067ffffffffffffffff82116120bd576002840154600181811c911680156120b3575b602082101461209f57601f811161205b575b50602090601f8311600114611fe95791806005949260a0948b92611fde575b50508160011b916000199060031b1c19161760028501555b606081015160038501556080810151600485015501519101556040519260018060a01b03168352604435602084015260a06040840152608051918260a0850152845b838110611fca5750907feea9cf30caf2394a00a8a7f9ded3fca78994b34652589e0e6e40d1c59e750e2d918560c085870101526084356060860152608085015260018060a01b03169260c0813394601f80199101168101030190a3388080611e15565b60a081015185820160c00152602001611f67565b015190503880611f0d565b906002850189526020892091895b601f19851681106120435750926005949260019260a09583601f1981161061202a575b505050811b016002850155611f25565b015160001960f88460031b161c1916905538808061201a565b91926020600181928685015181550194019201611ff7565b60028501895260208920601f840160051c810160208510612098575b601f830160051c8201811061208d575050611eee565b8a8155600101612077565b5080612077565b634e487b7160e01b89526022600452602489fd5b90607f1690611edc565b634e487b7160e01b88526041600452602488fd5b60405162461bcd60e51b815260206004820152600f60248201526e125b9d985b1a59081c995c5d595cdd608a1b6044820152606490fd5b50811515611de8565b506084351515611de2565b506044351515611ddc565b50604051635255642160e01b81526020816004816001600160a01b0388165afa908115610570578591612166575b506001600160a01b03163314611dd6565b90506020813d602011612198575b8161218160209383612260565b8101031261105e5761219290612282565b38612155565b3d9150612174565b9091506020813d6020116121d0575b816121bc60209383612260565b810103126121cc57519038611dc3565b8380fd5b3d91506121af565b600435906001600160a01b0382168203610b2b57565b602435906001600160a01b0382168203610b2b57565b604435906001600160a01b0382168203610b2b57565b67ffffffffffffffff811161222e57604052565b634e487b7160e01b600052604160045260246000fd5b6040810190811067ffffffffffffffff82111761222e57604052565b90601f8019910116810190811067ffffffffffffffff82111761222e57604052565b51906001600160a01b0382168203610b2b57565b90816020910312610b2b57518015158103610b2b5790565b156122b557565b60405162461bcd60e51b815260206004820152600d60248201526c139bc818dbdb1b185d195c985b609a1b6044820152606490fd5b519067ffffffffffffffff82168203610b2b57565b8181029291811591840414171561231257565b634e487b7160e01b600052601160045260246000fd5b8115612332570490565b634e487b7160e01b600052601260045260246000fd5b51906001600160801b0382168203610b2b57565b80916101009283910312610b2b5760405191820182811067ffffffffffffffff82111761222e57604052805160ff81168103610b2b576124079160e09184526123a760208201612282565b60208501526123b860408201612282565b60408501526123c9606082016122ea565b60608501526123da608082016122ea565b60808501526123eb60a082016122ea565b60a08501526123fc60c082016122ea565b60c085015201612348565b60e082015290565b6001600160a01b03918216815291811660208301529091166040820152606081019190915260800190565b9190820180921161231257565b8054821015610e345760005260206000209060011b0190600090565b9190820391821161231257565b8054821015610e345760005260206000200190600090565b908160a0910312610b2b578051916020820151916040810151916080606083015192015190565b9190826080910312610b2b578151916020810151916060604083015192015190565b6002600054146124e2576002600055565b604051633ee5aeb560e01b8152600490fd5b90670de0b6b3a76400008103612508575090565b671bc16d674ec80000810361252557508061252291612e7b565b90565b673782dace9d900000810361254857506125428161252292612e7b565b80612e7b565b61255191612af4565b61255a81612dde565b60018101908181116123125781106125755761252291612698565b60405162461bcd60e51b815260206004820152600c60248201526b4144445f4f564552464c4f5760a01b6044820152606490fd5b90801561261e57816125bc575050600090565b670de0b6b3a7640000808302928084048203612312576125dc9084612328565b036125ea5761252291612328565b60405162461bcd60e51b815260206004820152600c60248201526b11125597d25395115493905360a21b6044820152606490fd5b60405162461bcd60e51b815260206004820152600d60248201526c2d22a927afa224ab24a9a4a7a760991b6044820152606490fd5b908181116126645761252291612463565b60405162461bcd60e51b815260206004820152600c60248201526b5355425f4f564552464c4f5760a01b6044820152606490fd5b906126a3908261243a565b9081106125755790565b9068056bc75e2d630fffff19820191821360011661231257565b906803782dace9d8ffffff19820191821360011661231257565b906806f05b59d3b1ffffff19820191821360011661231257565b9068ad78ebc5ac61ffffff19820191821360011661231257565b906856bc75e2d630ffffff19820191821360011661231257565b90682b5e3af16b187fffff19820191821360011661231257565b906815af1d78b58c3fffff19820191821360011661231257565b90680ad78ebc5ac61fffff19820191821360011661231257565b906802b5e3af16b187ffff19820191821360011661231257565b9068015af1d78b58c3ffff19820191821360011661231257565b906803782dace9d9000000916000838201938412911290801582169115161761231257565b9068ad78ebc5ac62000000916000838201938412911290801582169115161761231257565b906856bc75e2d631000000916000838201938412911290801582169115161761231257565b90682b5e3af16b18800000916000838201938412911290801582169115161761231257565b906815af1d78b58c400000916000838201938412911290801582169115161761231257565b90680ad78ebc5ac6200000916000838201938412911290801582169115161761231257565b9068056bc75e2d63100000916000838201938412911290801582169115161761231257565b906802b5e3af16b1880000916000838201938412911290801582169115161761231257565b9068015af1d78b58c40000916000838201938412911290801582169115161761231257565b9067ad78ebc5ac620000916000838201938412911290801582169115161761231257565b906756bc75e2d6310000916000838201938412911290801582169115161761231257565b908168056bc75e2d631000000191821260011661231257565b9190916000838201938412911290801582169115161761231257565b908160011b918083056002149015171561231257565b9060648202918083056064149015171561231257565b9068056bc75e2d631000009182810292818405149015171561231257565b906b02df0ab5a80a22c61ab5a7009182810292818405149015171561231257565b90693f1fce3da636ea5cf8509182810292818405149015171561231257565b90690127fa27722cc06cc5e29182810292818405149015171561231257565b9068280e60114edb805d039182810292818405149015171561231257565b90680ebc5fb417461211109182810292818405149015171561231257565b906808f00f760a4b2db55d9182810292818405149015171561231257565b906806f5f17757889379379182810292818405149015171561231257565b818102929160008212600160ff1b82141661231257818405149015171561231257565b8015612332576ec097ce7bc90715b34b9f10000000000590565b811561233257600160ff1b8114600019831416612312570590565b8115612dd0578015612dc9578060ff1c612d9257770bce5086492111aea88f4bb1ca6bcf584181ea8059f76532821015612d5b5780670c7d713b49da00001280612d4a575b15612d2a57670de0b6b3a7640000908181029081058203612312576ec097ce7bc90715b34b9f0fffffffff19810190600181831316612312576ec097ce7bc90715b34b9f1000000000918281029080820584149015171561231257828201916000848412911290801582169115161761231257828080612bbb81958295612ad9565b81612bc68280612a9c565b05968781818098858298612bdb848099612a9c565b059060038205612bea9161295f565b92612bf491612a9c565b059060058205612c039161295f565b92612c0d91612a9c565b059060078205612c1c9161295f565b92612c2691612a9c565b059060098205612c359161295f565b92612c3f91612a9c565b0590600b8205612c4e9161295f565b92612c5891612a9c565b0590600d8205612c679161295f565b92612c7191612a9c565b05600f9005612c7f9161295f565b612c889061297b565b9181612c9682828605612a9c565b930790612ca291612a9c565b05612cac9161295f565b670de0b6b3a7640000905b0580680238fd42c5cf03ffff19131580612d17575b15612cda5761252290613340565b60405162461bcd60e51b815260206004820152601560248201527450524f445543545f4f55545f4f465f424f554e445360581b6044820152606490fd5b5068070c1cc73b00c80000811315612ccc565b670de0b6b3a764000091612d40612d4592612eb2565b612a9c565b612cb7565b50670f43fc2c04ee00008112612b39565b60405162461bcd60e51b815260206004820152600f60248201526e595f4f55545f4f465f424f554e445360881b6044820152606490fd5b60405162461bcd60e51b815260206004820152600f60248201526e585f4f55545f4f465f424f554e445360881b6044820152606490fd5b5050600090565b5050670de0b6b3a764000090565b61271090818102918115918084048214831715612312578215612e67575b505015612e335780612e0e5750600090565b600019810190811161231257670de0b6b3a76400009004600181018091116123125790565b60405162461bcd60e51b815260206004820152600c60248201526b4d554c5f4f564552464c4f5760a01b6044820152606490fd5b612e7391925083612328565b143880612dfc565b612e8582826122ff565b918115918215612e6757505015612e335780612e0e5750600090565b600160ff1b81146123125760000390565b670de0b6b3a764000081126132e7576130b46125229160007e1600ef3172e58d2e933ec884fde10064c63b5372d805e203c00000000000008212156132bc575b73011798004d755d3c8bc8e03204cf44619e00000082121561326a575b6130af60056130a96130a261303661307a61309c613091613036613020612f41612f3b6130a99c612991565b9c612991565b6e01855144814a7ff805980ff008400081121561323a575b6b02df0ab5a80a22c61ab5a70081121561320d575b693f1fce3da636ea5cf8508112156131e2575b690127fa27722cc06cc5e28112156131b7575b68280e60114edb805d0381121561318d575b680ebc5fb41746121110811215613163575b6808f00f760a4b2db55d811215613139575b6806f5f177578893793781121561310f575b6806248f33704b2866038112156130e5575b6805c548670b9510e7ac8112156130bb575b61301a61301461300f836126ad565b6129a7565b9161288f565b90612ad9565b61308b6130806130366130456130368580612a9c565b68056bc75e2d63100000900590565b8098856130716130368461306b61306061303683809d612a9c565b94600386059061295f565b93612a9c565b9e8f059061295f565b9c612a9c565b9960078b059061295f565b98612a9c565b95600987059061295f565b94612a9c565b600b900590565b9061295f565b61297b565b6064900590565b6130d96130ca6130df926129a7565b6805c548670b9510e7ac900590565b9c612922565b9b613000565b6131036130f4613109926129a7565b6806248f33704b286603900590565b9c6128fe565b9b612fee565b61312d61311e613133926129a7565b6806f5f1775788937937900590565b9c6128d9565b9b612fdc565b61315761314861315d926129a7565b6808f00f760a4b2db55d900590565b9c6128b4565b9b612fca565b613181613172613187926129a7565b680ebc5fb41746121110900590565b9c61288f565b9b612fb8565b6131ab61319c6131b1926129a7565b68280e60114edb805d03900590565b9c61286a565b9b612fa6565b6131d66131c66131dc926129a7565b690127fa27722cc06cc5e2900590565b9c612845565b9b612f94565b6132016131f1613207926129a7565b693f1fce3da636ea5cf850900590565b9c612820565b9b612f81565b61322e61321c613234926129a7565b6b02df0ab5a80a22c61ab5a700900590565b9c6127fb565b9b612f6e565b61325e613249613264926129a7565b6e01855144814a7ff805980ff0084000900590565b9c6127d6565b9b612f59565b906130af60056130a96130a261303661307a61309c613091613036613020612f41612f3b6132a96b1425982cf597cd205cef73806130a99e059e6127b1565b9c50505050505050505050505050612f0f565b50770195e54c5dd42177f53a27172fa9ec63026282700000000090056806f05b59d3b2000000612ef2565b6132f36132f891612abf565b612eb2565b61252290612ea1565b1561330857565b60405162461bcd60e51b815260206004820152601060248201526f1253959053125117d1561413d391539560821b6044820152606490fd5b680238fd42c5cf03ffff1981121580613732575b61335d90613301565b60008112613718576806f05b59d3b200000081126136de5761337e906126e1565b6133a0770195e54c5dd42177f53a27172fa9ec63026282700000000091612991565b68056bc75e2d631000009068ad78ebc5ac620000008112156136be575b6856bc75e2d6310000008112156136a3575b682b5e3af16b18800000811215613688575b6815af1d78b58c40000081121561366d575b680ad78ebc5ac6200000811215613652575b68056bc75e2d63100000811215613637575b6802b5e3af16b188000081121561361c575b68015af1d78b58c40000811215613601575b80808080808080808061344d81612946565b6134578280612a9c565b68056bc75e2d6310000090056002900590816134729161295f565b9161347c91612a9c565b68056bc75e2d6310000090056003900590816134979161295f565b916134a191612a9c565b68056bc75e2d6310000090056004900590816134bc9161295f565b916134c691612a9c565b68056bc75e2d6310000090056005900590816134e19161295f565b916134eb91612a9c565b68056bc75e2d6310000090056006900590816135069161295f565b9161351091612a9c565b68056bc75e2d63100000900560079005908161352b9161295f565b9161353591612a9c565b68056bc75e2d6310000090056008900590816135509161295f565b9161355a91612a9c565b68056bc75e2d6310000090056009900590816135759161295f565b9161357f91612a9c565b68056bc75e2d631000009005600a9005908161359a9161295f565b916135a491612a9c565b68056bc75e2d631000009005600b900590816135bf9161295f565b916135c991612a9c565b68056bc75e2d631000009005600c90056135e29161295f565b6135eb91612a9c565b68056bc75e2d631000009005906130b491612a9c565b61303661361061361692612797565b92612a7e565b9061343b565b61303661362b6136319261277d565b92612a60565b90613429565b61303661364661364c926126ad565b92612a42565b90613417565b61303661366161366792612763565b92612a24565b90613405565b61303661367c61368292612749565b92612a05565b906133f3565b61303661369761369d9261272f565b926129e6565b906133e1565b6130366136b26136b892612715565b926129c5565b906133cf565b6136c891506126fb565b6e01855144814a7ff805980ff0084000906133bd565b6803782dace9d9000000811261370d576136f7906126c7565b6133a06b1425982cf597cd205cef738091612991565b6133a0600191612991565b61372461372991612ea1565b613340565b61252290612abf565b5068070c1cc73b00c8000081131561335456fea2646970667358221220db4780690d28075daf64083af081821724e84d21552df362d72c49f7bdc9eb3264736f6c63430008180033",
  "linkReferences": {},
  "deployedLinkReferences": {}
}