{
  "contractName": "VerifiedMarkets",
  "abi": [
    {
      "inputs": [
        {
          "internalType": "contract Comet",
          "name": "comet_",
          "type": "address"
        }
      ],
      "stateMutability": "payable",
      "type": "constructor"
    },
    {
      "anonymous": false,
      "inputs": [
        {
          "indexed": true,
          "internalType": "address",
          "name": "borrower",
          "type": "address"
        },
        {
          "indexed": true,
          "internalType": "address",
          "name": "base",
          "type": "address"
        },
        {
          "indexed": false,
          "internalType": "uint256",
          "name": "amount",
          "type": "uint256"
        }
      ],
      "name": "Borrowed",
      "type": "event"
    },
    {
      "anonymous": false,
      "inputs": [
        {
          "indexed": true,
          "internalType": "address",
          "name": "issuer",
          "type": "address"
        },
        {
          "indexed": true,
          "internalType": "address",
          "name": "asset",
          "type": "address"
        },
        {
          "indexed": false,
          "internalType": "address",
          "name": "bond",
          "type": "address"
        },
        {
          "indexed": false,
          "internalType": "uint256",
          "name": "apy",
          "type": "uint256"
        },
        {
          "indexed": false,
          "internalType": "string",
          "name": "issuingDocs",
          "type": "string"
        },
        {
          "indexed": false,
          "internalType": "uint256",
          "name": "faceValue",
          "type": "uint256"
        }
      ],
      "name": "NewRWA",
      "type": "event"
    },
    {
      "anonymous": false,
      "inputs": [
        {
          "indexed": true,
          "internalType": "address",
          "name": "issuer",
          "type": "address"
        },
        {
          "indexed": true,
          "internalType": "address",
          "name": "asset",
          "type": "address"
        },
        {
          "indexed": false,
          "internalType": "address",
          "name": "collateral",
          "type": "address"
        },
        {
          "indexed": false,
          "internalType": "uint256",
          "name": "amount",
          "type": "uint256"
        }
      ],
      "name": "PostedCollateral",
      "type": "event"
    },
    {
      "anonymous": false,
      "inputs": [
        {
          "indexed": true,
          "internalType": "address",
          "name": "borrower",
          "type": "address"
        },
        {
          "indexed": true,
          "internalType": "address",
          "name": "base",
          "type": "address"
        },
        {
          "indexed": false,
          "internalType": "uint256",
          "name": "amount",
          "type": "uint256"
        }
      ],
      "name": "Repaid",
      "type": "event"
    },
    {
      "inputs": [],
      "name": "comet",
      "outputs": [
        {
          "internalType": "contract Comet",
          "name": "",
          "type": "address"
        }
      ],
      "stateMutability": "view",
      "type": "function"
    },
    {
      "inputs": [
        {
          "internalType": "address",
          "name": "asset",
          "type": "address"
        },
        {
          "internalType": "address",
          "name": "bond",
          "type": "address"
        },
        {
          "internalType": "uint256",
          "name": "apy",
          "type": "uint256"
        },
        {
          "internalType": "string",
          "name": "issuingDocs",
          "type": "string"
        },
        {
          "internalType": "uint256",
          "name": "faceValue",
          "type": "uint256"
        }
      ],
      "name": "submitNewRWA",
      "outputs": [],
      "stateMutability": "nonpayable",
      "type": "function"
    },
    {
      "inputs": [
        {
          "internalType": "address",
          "name": "asset",
          "type": "address"
        },
        {
          "internalType": "address",
          "name": "collateral",
          "type": "address"
        },
        {
          "internalType": "uint256",
          "name": "amount",
          "type": "uint256"
        }
      ],
      "name": "postCollateral",
      "outputs": [],
      "stateMutability": "nonpayable",
      "type": "function"
    },
    {
      "inputs": [
        {
          "internalType": "address",
          "name": "asset",
          "type": "address"
        },
        {
          "internalType": "address",
          "name": "base",
          "type": "address"
        },
        {
          "internalType": "uint256",
          "name": "amount",
          "type": "uint256"
        }
      ],
      "name": "borrowBase",
      "outputs": [],
      "stateMutability": "nonpayable",
      "type": "function"
    },
    {
      "inputs": [
        {
          "internalType": "address",
          "name": "asset",
          "type": "address"
        },
        {
          "internalType": "address",
          "name": "base",
          "type": "address"
        },
        {
          "internalType": "uint256",
          "name": "amount",
          "type": "uint256"
        }
      ],
      "name": "repayBase",
      "outputs": [],
      "stateMutability": "nonpayable",
      "type": "function"
    }
  ],
  "bytecode": "0x60a0604052604051620023bc380380620023bc8339818101604052810190620000299190620000e2565b8073ffffffffffffffffffffffffffffffffffffffff1660808173ffffffffffffffffffffffffffffffffffffffff16815250505062000114565b600080fd5b600073ffffffffffffffffffffffffffffffffffffffff82169050919050565b6000620000968262000069565b9050919050565b6000620000aa8262000089565b9050919050565b620000bc816200009d565b8114620000c857600080fd5b50565b600081519050620000dc81620000b1565b92915050565b600060208284031215620000fb57620000fa62000064565b5b60006200010b84828501620000cb565b91505092915050565b6080516122626200015a60003960008181610911015281816109a301528181610b6601528181610db401528181611218015281816112e901526114f001526122626000f3fe608060405234801561001057600080fd5b50600436106100575760003560e01c8063100bf6eb1461005c5780638fcfa9ca14610078578063a4bcec5914610094578063b031a4d3146100b0578063ba3e9c12146100cc575b600080fd5b61007660048036038101906100719190611700565b6100ea565b005b610092600480360381019061008d9190611797565b61074c565b005b6100ae60048036038101906100a99190611797565b610cfd565b005b6100ca60048036038101906100c59190611797565b6111a5565b005b6100d46114ee565b6040516100e19190611849565b60405180910390f35b600073ffffffffffffffffffffffffffffffffffffffff168573ffffffffffffffffffffffffffffffffffffffff16141580156101545750600073ffffffffffffffffffffffffffffffffffffffff168473ffffffffffffffffffffffffffffffffffffffff1614155b80156101605750600083115b801561016c5750600081115b6101ab576040517f08c379a00000000000000000000000000000000000000000000000000000000081526004016101a2906118c1565b60405180910390fd5b3373ffffffffffffffffffffffffffffffffffffffff168473ffffffffffffffffffffffffffffffffffffffff1663525564216040518163ffffffff1660e01b8152600401602060405180830381865afa15801561020d573d6000803e3d6000fd5b505050506040513d601f19601f8201168201806040525081019061023191906118f6565b73ffffffffffffffffffffffffffffffffffffffff1614610287576040517f08c379a000000000000000000000000000000000000000000000000000000000815260040161027e9061196f565b60405180910390fd5b600073ffffffffffffffffffffffffffffffffffffffff166000803373ffffffffffffffffffffffffffffffffffffffff1673ffffffffffffffffffffffffffffffffffffffff16815260200190815260200160002060008773ffffffffffffffffffffffffffffffffffffffff1673ffffffffffffffffffffffffffffffffffffffff16815260200190815260200160002060000160009054906101000a900473ffffffffffffffffffffffffffffffffffffffff1673ffffffffffffffffffffffffffffffffffffffff161461048a57600060405180608001604052808673ffffffffffffffffffffffffffffffffffffffff168152602001858152602001848152602001838152509050806000803373ffffffffffffffffffffffffffffffffffffffff1673ffffffffffffffffffffffffffffffffffffffff16815260200190815260200160002060008873ffffffffffffffffffffffffffffffffffffffff1673ffffffffffffffffffffffffffffffffffffffff16815260200190815260200160002060008201518160000160006101000a81548173ffffffffffffffffffffffffffffffffffffffff021916908373ffffffffffffffffffffffffffffffffffffffff1602179055506020820151816001015560408201518160020190816104769190611b9c565b5060608201518160030155905050506106da565b836000803373ffffffffffffffffffffffffffffffffffffffff1673ffffffffffffffffffffffffffffffffffffffff16815260200190815260200160002060008773ffffffffffffffffffffffffffffffffffffffff1673ffffffffffffffffffffffffffffffffffffffff16815260200190815260200160002060000160006101000a81548173ffffffffffffffffffffffffffffffffffffffff021916908373ffffffffffffffffffffffffffffffffffffffff160217905550826000803373ffffffffffffffffffffffffffffffffffffffff1673ffffffffffffffffffffffffffffffffffffffff16815260200190815260200160002060008773ffffffffffffffffffffffffffffffffffffffff1673ffffffffffffffffffffffffffffffffffffffff16815260200190815260200160002060010181905550816000803373ffffffffffffffffffffffffffffffffffffffff1673ffffffffffffffffffffffffffffffffffffffff16815260200190815260200160002060008773ffffffffffffffffffffffffffffffffffffffff1673ffffffffffffffffffffffffffffffffffffffff16815260200190815260200160002060020190816106559190611b9c565b50806000803373ffffffffffffffffffffffffffffffffffffffff1673ffffffffffffffffffffffffffffffffffffffff16815260200190815260200160002060008773ffffffffffffffffffffffffffffffffffffffff1673ffffffffffffffffffffffffffffffffffffffff168152602001908152602001600020600301819055505b8473ffffffffffffffffffffffffffffffffffffffff163373ffffffffffffffffffffffffffffffffffffffff167f7c0346ec0308e754879b9eb61355f12e6d4469883179fb5774ad1c3d9a7313d08686868660405161073d9493929190611cef565b60405180910390a35050505050565b600073ffffffffffffffffffffffffffffffffffffffff168373ffffffffffffffffffffffffffffffffffffffff16141580156107b65750600073ffffffffffffffffffffffffffffffffffffffff168273ffffffffffffffffffffffffffffffffffffffff1614155b80156107c25750600081115b610801576040517f08c379a00000000000000000000000000000000000000000000000000000000081526004016107f890611d87565b60405180910390fd5b80600160003373ffffffffffffffffffffffffffffffffffffffff1673ffffffffffffffffffffffffffffffffffffffff16815260200190815260200160002060008573ffffffffffffffffffffffffffffffffffffffff1673ffffffffffffffffffffffffffffffffffffffff1681526020019081526020016000206002015461088c9190611dd6565b600160003373ffffffffffffffffffffffffffffffffffffffff1673ffffffffffffffffffffffffffffffffffffffff16815260200190815260200160002060008573ffffffffffffffffffffffffffffffffffffffff1673ffffffffffffffffffffffffffffffffffffffff168152602001908152602001600020600201819055507f000000000000000000000000000000000000000000000000000000000000000073ffffffffffffffffffffffffffffffffffffffff16634232cd633384846040518463ffffffff1660e01b815260040161096c93929190611e0a565b600060405180830381600087803b15801561098657600080fd5b505af115801561099a573d6000803e3d6000fd5b505050506000817f000000000000000000000000000000000000000000000000000000000000000073ffffffffffffffffffffffffffffffffffffffff16633b3bec2e856040518263ffffffff1660e01b81526004016109fa9190611e41565b61010060405180830381865afa158015610a18573d6000803e3d6000fd5b505050506040513d601f19601f82011682018060405250810190610a3c9190611fec565b6080015167ffffffffffffffff16610a54919061201a565b905080600160003373ffffffffffffffffffffffffffffffffffffffff1673ffffffffffffffffffffffffffffffffffffffff16815260200190815260200160002060008673ffffffffffffffffffffffffffffffffffffffff1673ffffffffffffffffffffffffffffffffffffffff16815260200190815260200160002060010154610ae19190611dd6565b600160003373ffffffffffffffffffffffffffffffffffffffff1673ffffffffffffffffffffffffffffffffffffffff16815260200190815260200160002060008673ffffffffffffffffffffffffffffffffffffffff1673ffffffffffffffffffffffffffffffffffffffff168152602001908152602001600020600101819055507f000000000000000000000000000000000000000000000000000000000000000073ffffffffffffffffffffffffffffffffffffffff1663c3b35a7e33600160003373ffffffffffffffffffffffffffffffffffffffff1673ffffffffffffffffffffffffffffffffffffffff16815260200190815260200160002060008873ffffffffffffffffffffffffffffffffffffffff1673ffffffffffffffffffffffffffffffffffffffff16815260200190815260200160002060000160009054906101000a900473ffffffffffffffffffffffffffffffffffffffff16846040518463ffffffff1660e01b8152600401610c6093929190611e0a565b600060405180830381600087803b158015610c7a57600080fd5b505af1158015610c8e573d6000803e3d6000fd5b505050508273ffffffffffffffffffffffffffffffffffffffff163373ffffffffffffffffffffffffffffffffffffffff167f0a3fbbea70e93f2daafa3102f5c9a1b8315e6d7a1e43e4bc020bc1162327470a84604051610cef9190612074565b60405180910390a350505050565b600073ffffffffffffffffffffffffffffffffffffffff168373ffffffffffffffffffffffffffffffffffffffff1614158015610d675750600073ffffffffffffffffffffffffffffffffffffffff168273ffffffffffffffffffffffffffffffffffffffff1614155b8015610d735750600081115b610db2576040517f08c379a0000000000000000000000000000000000000000000000000000000008152600401610da990612101565b60405180910390fd5b7f000000000000000000000000000000000000000000000000000000000000000073ffffffffffffffffffffffffffffffffffffffff16634232cd633384846040518463ffffffff1660e01b8152600401610e0f93929190611e0a565b600060405180830381600087803b158015610e2957600080fd5b505af1158015610e3d573d6000803e3d6000fd5b505050508173ffffffffffffffffffffffffffffffffffffffff16600160003373ffffffffffffffffffffffffffffffffffffffff1673ffffffffffffffffffffffffffffffffffffffff16815260200190815260200160002060008573ffffffffffffffffffffffffffffffffffffffff1673ffffffffffffffffffffffffffffffffffffffff16815260200190815260200160002060000160009054906101000a900473ffffffffffffffffffffffffffffffffffffffff1673ffffffffffffffffffffffffffffffffffffffff161461102a57600060405180606001604052808473ffffffffffffffffffffffffffffffffffffffff1681526020018381526020016000815250905080600160003373ffffffffffffffffffffffffffffffffffffffff1673ffffffffffffffffffffffffffffffffffffffff16815260200190815260200160002060008673ffffffffffffffffffffffffffffffffffffffff1673ffffffffffffffffffffffffffffffffffffffff16815260200190815260200160002060008201518160000160006101000a81548173ffffffffffffffffffffffffffffffffffffffff021916908373ffffffffffffffffffffffffffffffffffffffff160217905550602082015181600101556040820151816002015590505050611139565b80600160003373ffffffffffffffffffffffffffffffffffffffff1673ffffffffffffffffffffffffffffffffffffffff16815260200190815260200160002060008573ffffffffffffffffffffffffffffffffffffffff1673ffffffffffffffffffffffffffffffffffffffff168152602001908152602001600020600101546110b59190612121565b600160003373ffffffffffffffffffffffffffffffffffffffff1673ffffffffffffffffffffffffffffffffffffffff16815260200190815260200160002060008573ffffffffffffffffffffffffffffffffffffffff1673ffffffffffffffffffffffffffffffffffffffff168152602001908152602001600020600101819055505b8273ffffffffffffffffffffffffffffffffffffffff163373ffffffffffffffffffffffffffffffffffffffff167f6d9c01d2a1bfe391d97dad0c8485ad9eb8603cf2404ea70f733fe47b186a0f518484604051611198929190612155565b60405180910390a3505050565b600073ffffffffffffffffffffffffffffffffffffffff168373ffffffffffffffffffffffffffffffffffffffff161415801561120f5750600073ffffffffffffffffffffffffffffffffffffffff168273ffffffffffffffffffffffffffffffffffffffff1614155b80156112a857507f000000000000000000000000000000000000000000000000000000000000000073ffffffffffffffffffffffffffffffffffffffff1663300e6beb6040518163ffffffff1660e01b8152600401602060405180830381865afa158015611281573d6000803e3d6000fd5b505050506040513d601f19601f820116820180604052508101906112a59190612193565b81115b6112e7576040517f08c379a00000000000000000000000000000000000000000000000000000000081526004016112de9061220c565b60405180910390fd5b7f000000000000000000000000000000000000000000000000000000000000000073ffffffffffffffffffffffffffffffffffffffff1663c3b35a7e3384846040518463ffffffff1660e01b815260040161134493929190611e0a565b600060405180830381600087803b15801561135e57600080fd5b505af1158015611372573d6000803e3d6000fd5b5050505080600160003373ffffffffffffffffffffffffffffffffffffffff1673ffffffffffffffffffffffffffffffffffffffff16815260200190815260200160002060008573ffffffffffffffffffffffffffffffffffffffff1673ffffffffffffffffffffffffffffffffffffffff168152602001908152602001600020600201546114019190612121565b600160003373ffffffffffffffffffffffffffffffffffffffff1673ffffffffffffffffffffffffffffffffffffffff16815260200190815260200160002060008573ffffffffffffffffffffffffffffffffffffffff1673ffffffffffffffffffffffffffffffffffffffff168152602001908152602001600020600201819055508173ffffffffffffffffffffffffffffffffffffffff163373ffffffffffffffffffffffffffffffffffffffff167f3fc499aeb0bb1cb58b6de8b02b3f86f4e7394e9690bef0110e32ced8a5631045836040516114e19190612074565b60405180910390a3505050565b7f000000000000000000000000000000000000000000000000000000000000000081565b6000604051905090565b600080fd5b600080fd5b600073ffffffffffffffffffffffffffffffffffffffff82169050919050565b600061155182611526565b9050919050565b61156181611546565b811461156c57600080fd5b50565b60008135905061157e81611558565b92915050565b6000819050919050565b61159781611584565b81146115a257600080fd5b50565b6000813590506115b48161158e565b92915050565b600080fd5b600080fd5b6000601f19601f8301169050919050565b7f4e487b7100000000000000000000000000000000000000000000000000000000600052604160045260246000fd5b61160d826115c4565b810181811067ffffffffffffffff8211171561162c5761162b6115d5565b5b80604052505050565b600061163f611512565b905061164b8282611604565b919050565b600067ffffffffffffffff82111561166b5761166a6115d5565b5b611674826115c4565b9050602081019050919050565b82818337600083830152505050565b60006116a361169e84611650565b611635565b9050828152602081018484840111156116bf576116be6115bf565b5b6116ca848285611681565b509392505050565b600082601f8301126116e7576116e66115ba565b5b81356116f7848260208601611690565b91505092915050565b600080600080600060a0868803121561171c5761171b61151c565b5b600061172a8882890161156f565b955050602061173b8882890161156f565b945050604061174c888289016115a5565b935050606086013567ffffffffffffffff81111561176d5761176c611521565b5b611779888289016116d2565b925050608061178a888289016115a5565b9150509295509295909350565b6000806000606084860312156117b0576117af61151c565b5b60006117be8682870161156f565b93505060206117cf8682870161156f565b92505060406117e0868287016115a5565b9150509250925092565b6000819050919050565b600061180f61180a61180584611526565b6117ea565b611526565b9050919050565b6000611821826117f4565b9050919050565b600061183382611816565b9050919050565b61184381611828565b82525050565b600060208201905061185e600083018461183a565b92915050565b600082825260208201905092915050565b7f525741207375626d697373696f6e203a20496e76616c69642072657175657374600082015250565b60006118ab602083611864565b91506118b682611875565b602082019050919050565b600060208201905081810360008301526118da8161189e565b9050919050565b6000815190506118f081611558565b92915050565b60006020828403121561190c5761190b61151c565b5b600061191a848285016118e1565b91505092915050565b7f525741207375626d697373696f6e203a20496e76616c69642069737375657200600082015250565b6000611959601f83611864565b915061196482611923565b602082019050919050565b600060208201905081810360008301526119888161194c565b9050919050565b600081519050919050565b7f4e487b7100000000000000000000000000000000000000000000000000000000600052602260045260246000fd5b600060028204905060018216806119e157607f821691505b6020821081036119f4576119f361199a565b5b50919050565b60008190508160005260206000209050919050565b60006020601f8301049050919050565b600082821b905092915050565b600060088302611a5c7fffffffffffffffffffffffffffffffffffffffffffffffffffffffffffffffff82611a1f565b611a668683611a1f565b95508019841693508086168417925050509392505050565b6000611a99611a94611a8f84611584565b6117ea565b611584565b9050919050565b6000819050919050565b611ab383611a7e565b611ac7611abf82611aa0565b848454611a2c565b825550505050565b600090565b611adc611acf565b611ae7818484611aaa565b505050565b5b81811015611b0b57611b00600082611ad4565b600181019050611aed565b5050565b601f821115611b5057611b21816119fa565b611b2a84611a0f565b81016020851015611b39578190505b611b4d611b4585611a0f565b830182611aec565b50505b505050565b600082821c905092915050565b6000611b7360001984600802611b55565b1980831691505092915050565b6000611b8c8383611b62565b9150826002028217905092915050565b611ba58261198f565b67ffffffffffffffff811115611bbe57611bbd6115d5565b5b611bc882546119c9565b611bd3828285611b0f565b600060209050601f831160018114611c065760008415611bf4578287015190505b611bfe8582611b80565b865550611c66565b601f198416611c14866119fa565b60005b82811015611c3c57848901518255600182019150602085019450602081019050611c17565b86831015611c595784890151611c55601f891682611b62565b8355505b6001600288020188555050505b505050505050565b611c7781611546565b82525050565b611c8681611584565b82525050565b60005b83811015611caa578082015181840152602081019050611c8f565b60008484015250505050565b6000611cc18261198f565b611ccb8185611864565b9350611cdb818560208601611c8c565b611ce4816115c4565b840191505092915050565b6000608082019050611d046000830187611c6e565b611d116020830186611c7d565b8181036040830152611d238185611cb6565b9050611d326060830184611c7d565b95945050505050565b7f5265706179696e672062617365203a20496e76616c6964000000000000000000600082015250565b6000611d71601783611864565b9150611d7c82611d3b565b602082019050919050565b60006020820190508181036000830152611da081611d64565b9050919050565b7f4e487b7100000000000000000000000000000000000000000000000000000000600052601160045260246000fd5b6000611de182611584565b9150611dec83611584565b9250828203905081811115611e0457611e03611da7565b5b92915050565b6000606082019050611e1f6000830186611c6e565b611e2c6020830185611c6e565b611e396040830184611c7d565b949350505050565b6000602082019050611e566000830184611c6e565b92915050565b600080fd5b600060ff82169050919050565b611e7781611e61565b8114611e8257600080fd5b50565b600081519050611e9481611e6e565b92915050565b600067ffffffffffffffff82169050919050565b611eb781611e9a565b8114611ec257600080fd5b50565b600081519050611ed481611eae565b92915050565b60006fffffffffffffffffffffffffffffffff82169050919050565b611eff81611eda565b8114611f0a57600080fd5b50565b600081519050611f1c81611ef6565b92915050565b60006101008284031215611f3957611f38611e5c565b5b611f44610100611635565b90506000611f5484828501611e85565b6000830152506020611f68848285016118e1565b6020830152506040611f7c848285016118e1565b6040830152506060611f9084828501611ec5565b6060830152506080611fa484828501611ec5565b60808301525060a0611fb884828501611ec5565b60a08301525060c0611fcc84828501611ec5565b60c08301525060e0611fe084828501611f0d565b60e08301525092915050565b600061010082840312156120035761200261151c565b5b600061201184828501611f22565b91505092915050565b600061202582611584565b915061203083611584565b9250817fffffffffffffffffffffffffffffffffffffffffffffffffffffffffffffffff048311821515161561206957612068611da7565b5b828202905092915050565b60006020820190506120896000830184611c7d565b92915050565b7f436f6d657420436f6c6c61746572616c2070726f766973696f6e696e673a204960008201527f6e76616c69640000000000000000000000000000000000000000000000000000602082015250565b60006120eb602683611864565b91506120f68261208f565b604082019050919050565b6000602082019050818103600083015261211a816120de565b9050919050565b600061212c82611584565b915061213783611584565b925082820190508082111561214f5761214e611da7565b5b92915050565b600060408201905061216a6000830185611c6e565b6121776020830184611c7d565b9392505050565b60008151905061218d8161158e565b92915050565b6000602082840312156121a9576121a861151c565b5b60006121b78482850161217e565b91505092915050565b7f426f72726f77696e672062617365203a20496e76616c69640000000000000000600082015250565b60006121f6601883611864565b9150612201826121c0565b602082019050919050565b60006020820190508181036000830152612225816121e9565b905091905056fea2646970667358221220d22ec8cc81265444b86dbb25fa973e0b59197dd937e907f5fdf659080c7f59b164736f6c63430008100033",
  "immutableReferences": {
    "12": [
      {
        "length": 32,
        "start": 2321
      },
      {
        "length": 32,
        "start": 2467
      },
      {
        "length": 32,
        "start": 2918
      },
      {
        "length": 32,
        "start": 3508
      },
      {
        "length": 32,
        "start": 4632
      },
      {
        "length": 32,
        "start": 4841
      },
      {
        "length": 32,
        "start": 5360
      }
    ]
  },
  "source": "// SPDX-License-Identifier: BUSL-1.1\npragma solidity ^0.8.16;\n\nimport \"./interfaces/Bond.sol\";\nimport \"./interfaces/IERC20.sol\";\nimport \"./interfaces/CometInterface.sol\";\nimport \"./interfaces/VerifiedMarketsInterface.sol\";\n\n/**\n * @title Verified Markets\n * @notice A Compound III operator to enable staking of collateral for real world assets to Compound.\n * @author Kallol Borah\n */\ncontract VerifiedMarkets is RWA {\n    /// @notice The Comet contract\n    Comet public immutable comet;\n\n    //mapping issuer to RWA to bond\n    mapping(address => mapping(address => Asset)) private assets;\n\n    //mapping issuer to RWA to collateral\n    mapping(address => mapping(address => Collateral)) private guarantees;\n\n    //events\n    event NewRWA(\n        address indexed issuer,\n        address indexed asset,\n        address bond,\n        uint256 apy,\n        string issuingDocs,\n        uint256 faceValue\n    );\n    event PostedCollateral(\n        address indexed issuer,\n        address indexed asset,\n        address collateral,\n        uint256 amount\n    );\n    event Borrowed(\n        address indexed borrower,\n        address indexed base,\n        uint256 amount\n    );\n    event Repaid(\n        address indexed borrower,\n        address indexed base,\n        uint256 amount\n    );\n\n    /**\n     * @notice Construct a new operator.\n     * @param comet_ The Comet contract.\n     **/\n    constructor(Comet comet_) payable {\n        comet = comet_;\n    }\n\n    /**\n     * @notice RWA issuer submits asset details and bond issued that can be purchased to provide collateral to the RWA issuer\n     * @param asset       RWA for which bond is issued\n     * @param bond        bond token that is issued\n     * @param apy         interest rate paid on bond\n     * @param issuingDocs ipfs reference for RWA docs\n     * @param faceValue   par value of bond after discounting it with interest rate\n     **/\n    function submitNewRWA(\n        address asset,\n        address bond,\n        uint256 apy,\n        string memory issuingDocs,\n        uint256 faceValue\n    ) external override {\n        require(\n            asset != address(0x0) &&\n                bond != address(0x0) &&\n                apy > 0 &&\n                faceValue > 0,\n            \"RWA submission : Invalid request\"\n        );\n        require(\n            Bond(bond).getIssuer() == msg.sender,\n            \"RWA submission : Invalid issuer\"\n        );\n        if (assets[msg.sender][asset].bond != address(0x0)) {\n            RWA.Asset memory rwa = RWA.Asset({\n                bond: bond,\n                apy: apy,\n                issuingDocs: issuingDocs,\n                faceValue: faceValue\n            });\n            assets[msg.sender][asset] = rwa;\n        } else {\n            assets[msg.sender][asset].bond = bond;\n            assets[msg.sender][asset].apy = apy;\n            assets[msg.sender][asset].issuingDocs = issuingDocs;\n            assets[msg.sender][asset].faceValue = faceValue;\n        }\n        emit NewRWA(msg.sender, asset, bond, apy, issuingDocs, faceValue);\n    }\n\n    /**\n     * @notice Used by RWA issuer to post collateral used to buy bonds issued by it to borrow from Compound\n     * @param asset       RWA for which collateral is posted\n     * @param collateral  collateral used to buy bond issued by RWA issuer\n     * @param amount      amount of collateral posted\n     **/\n    function postCollateral(\n        address asset,\n        address collateral,\n        uint256 amount\n    ) external override {\n        require(\n            asset != address(0x0) && collateral != address(0x0) && amount > 0,\n            \"Comet Collateral provisioning: Invalid\"\n        );\n        //check if supply cap of collateral is not breached\n        comet.supplyTo(msg.sender, collateral, amount);\n        if (guarantees[msg.sender][asset].collateral != collateral) {\n            RWA.Collateral memory guarantee = RWA.Collateral({\n                collateral: collateral,\n                collateralAmount: amount,\n                borrowed: 0\n            });\n            guarantees[msg.sender][asset] = guarantee;\n        } else {\n            guarantees[msg.sender][asset].collateralAmount =\n                guarantees[msg.sender][asset].collateralAmount +\n                amount;\n        }\n        emit PostedCollateral(msg.sender, asset, collateral, amount);\n    }\n\n    /**\n     * @notice Called by RWA issuer to to borrow base asset from Compound\n     * @param asset       RWA for which base asset is borrowed\n     * @param base        base asset borrowed by RWA issuer\n     * @param amount      amount of base asset borrowed\n     **/\n    function borrowBase(\n        address asset,\n        address base,\n        uint256 amount\n    ) external override {\n        require(\n            asset != address(0x0) &&\n                base != address(0x0) &&\n                amount > comet.baseBorrowMin(),\n            \"Borrowing base : Invalid\"\n        );\n        //does borrower have collateral to borrow ? (&& comet.isBorrowCollateralized(msg.sender))\n        comet.withdrawTo(msg.sender, base, amount);\n        guarantees[msg.sender][asset].borrowed =\n            guarantees[msg.sender][asset].borrowed +\n            amount;\n        emit Borrowed(msg.sender, base, amount);\n    }\n\n    /**\n     * @notice Called by RWA issuer to repay base asset to Compound and withdraw collateral posted earlier\n     * @param asset       RWA for which base asset is paid back\n     * @param base        base asset paid back by RWA issuer\n     * @param amount      amount of base asset paid back\n     **/\n    function repayBase(\n        address asset,\n        address base,\n        uint256 amount\n    ) external override {\n        require(\n            asset != address(0x0) && base != address(0x0) && amount > 0,\n            \"Repaying base : Invalid\"\n        );\n        guarantees[msg.sender][asset].borrowed =\n            guarantees[msg.sender][asset].borrowed -\n            amount;\n        comet.supplyTo(msg.sender, base, amount);\n        uint256 collateralToWithdraw = comet\n            .getAssetInfoByAddress(base)\n            .borrowCollateralFactor * amount;\n        guarantees[msg.sender][asset].collateralAmount =\n            guarantees[msg.sender][asset].collateralAmount -\n            collateralToWithdraw;\n        comet.withdrawTo(\n            msg.sender,\n            guarantees[msg.sender][asset].collateral,\n            collateralToWithdraw\n        );\n        emit Repaid(msg.sender, base, amount);\n    }\n}\n",
  "sourcePath": "/home/mohzcrea9me/Verified/Tasks/VCM/verified-compound-markets/backend/contracts/VerifiedMarkets.sol",
  "compiler": {
    "name": "solc",
    "version": "0.8.16+commit.07a7930e.Emscripten.clang"
  },
  "schemaVersion": "3.4.16",
  "updatedAt": "2024-06-04T18:26:51.256Z",
  "devdoc": {
    "author": "Kallol Borah",
    "kind": "dev",
    "methods": {
      "borrowBase(address,address,uint256)": {
        "params": {
          "amount": "amount of base asset borrowed*",
          "asset": "RWA for which base asset is borrowed",
          "base": "base asset borrowed by RWA issuer"
        }
      },
      "constructor": {
        "params": {
          "comet_": "The Comet contract.*"
        }
      },
      "postCollateral(address,address,uint256)": {
        "params": {
          "amount": "amount of collateral posted*",
          "asset": "RWA for which collateral is posted",
          "collateral": "collateral used to buy bond issued by RWA issuer"
        }
      },
      "repayBase(address,address,uint256)": {
        "params": {
          "amount": "amount of base asset paid back*",
          "asset": "RWA for which base asset is paid back",
          "base": "base asset paid back by RWA issuer"
        }
      },
      "submitNewRWA(address,address,uint256,string,uint256)": {
        "params": {
          "apy": "interest rate paid on bond",
          "asset": "RWA for which bond is issued",
          "bond": "bond token that is issued",
          "faceValue": "par value of bond after discounting it with interest rate*",
          "issuingDocs": "ipfs reference for RWA docs"
        }
      }
    },
    "title": "Verified Markets",
    "version": 1
  },
  "userdoc": {
    "kind": "user",
    "methods": {
      "borrowBase(address,address,uint256)": {
        "notice": "Called by RWA issuer to to borrow base asset from Compound"
      },
      "comet()": {
        "notice": "The Comet contract"
      },
      "constructor": {
        "notice": "Construct a new operator."
      },
      "postCollateral(address,address,uint256)": {
        "notice": "Used by RWA issuer to post collateral used to buy bonds issued by it to borrow from Compound"
      },
      "repayBase(address,address,uint256)": {
        "notice": "Called by RWA issuer to repay base asset to Compound and withdraw collateral posted earlier"
      },
      "submitNewRWA(address,address,uint256,string,uint256)": {
        "notice": "RWA issuer submits asset details and bond issued that can be purchased to provide collateral to the RWA issuer"
      }
    },
    "notice": "A Compound III operator to enable staking of collateral for real world assets to Compound.",
    "version": 1
  }
}