{
  "contractName": "VerifiedMarkets",
  "abi": [
    {
      "inputs": [
        {
          "internalType": "address",
          "name": "comet_",
          "type": "address"
        }
      ],
      "stateMutability": "nonpayable",
      "type": "constructor"
    },
    {
      "anonymous": false,
      "inputs": [
        {
          "indexed": true,
          "internalType": "address",
          "name": "borrower",
          "type": "address"
        },
        {
          "indexed": true,
          "internalType": "address",
          "name": "base",
          "type": "address"
        },
        {
          "indexed": false,
          "internalType": "uint256",
          "name": "amount",
          "type": "uint256"
        }
      ],
      "name": "Borrowed",
      "type": "event"
    },
    {
      "anonymous": false,
      "inputs": [
        {
          "indexed": true,
          "internalType": "address",
          "name": "issuer",
          "type": "address"
        },
        {
          "indexed": true,
          "internalType": "address",
          "name": "asset",
          "type": "address"
        },
        {
          "indexed": false,
          "internalType": "address",
          "name": "bond",
          "type": "address"
        },
        {
          "indexed": false,
          "internalType": "uint256",
          "name": "apy",
          "type": "uint256"
        },
        {
          "indexed": false,
          "internalType": "string",
          "name": "issuingDocs",
          "type": "string"
        },
        {
          "indexed": false,
          "internalType": "uint256",
          "name": "faceValue",
          "type": "uint256"
        }
      ],
      "name": "NewRWA",
      "type": "event"
    },
    {
      "anonymous": false,
      "inputs": [
        {
          "indexed": true,
          "internalType": "address",
          "name": "issuer",
          "type": "address"
        },
        {
          "indexed": true,
          "internalType": "address",
          "name": "asset",
          "type": "address"
        },
        {
          "indexed": false,
          "internalType": "address",
          "name": "collateral",
          "type": "address"
        },
        {
          "indexed": false,
          "internalType": "uint256",
          "name": "amount",
          "type": "uint256"
        }
      ],
      "name": "PostedCollateral",
      "type": "event"
    },
    {
      "anonymous": false,
      "inputs": [
        {
          "indexed": true,
          "internalType": "address",
          "name": "borrower",
          "type": "address"
        },
        {
          "indexed": true,
          "internalType": "address",
          "name": "base",
          "type": "address"
        },
        {
          "indexed": false,
          "internalType": "uint256",
          "name": "amount",
          "type": "uint256"
        }
      ],
      "name": "Repaid",
      "type": "event"
    },
    {
      "inputs": [],
      "name": "comet",
      "outputs": [
        {
          "internalType": "contract Comet",
          "name": "",
          "type": "address"
        }
      ],
      "stateMutability": "view",
      "type": "function"
    },
    {
      "inputs": [
        {
          "internalType": "address",
          "name": "asset",
          "type": "address"
        },
        {
          "internalType": "address",
          "name": "bond",
          "type": "address"
        },
        {
          "internalType": "uint256",
          "name": "apy",
          "type": "uint256"
        },
        {
          "internalType": "string",
          "name": "issuingDocs",
          "type": "string"
        },
        {
          "internalType": "uint256",
          "name": "faceValue",
          "type": "uint256"
        }
      ],
      "name": "submitNewRWA",
      "outputs": [],
      "stateMutability": "nonpayable",
      "type": "function"
    },
    {
      "inputs": [
        {
          "internalType": "address",
          "name": "asset",
          "type": "address"
        },
        {
          "internalType": "address",
          "name": "collateral",
          "type": "address"
        },
        {
          "internalType": "uint256",
          "name": "amount",
          "type": "uint256"
        }
      ],
      "name": "postCollateral",
      "outputs": [],
      "stateMutability": "nonpayable",
      "type": "function"
    },
    {
      "inputs": [
        {
          "internalType": "address",
          "name": "asset",
          "type": "address"
        },
        {
          "internalType": "uint256",
          "name": "amount",
          "type": "uint256"
        }
      ],
      "name": "borrowBase",
      "outputs": [],
      "stateMutability": "nonpayable",
      "type": "function"
    },
    {
      "inputs": [
        {
          "internalType": "address",
          "name": "asset",
          "type": "address"
        },
        {
          "internalType": "uint256",
          "name": "amount",
          "type": "uint256"
        }
      ],
      "name": "repayBase",
      "outputs": [],
      "stateMutability": "nonpayable",
      "type": "function"
    }
  ],
  "bytecode": "0x60a060405234801561001057600080fd5b506040516116fb3803806116fb83398101604081905261002f91610040565b6001600160a01b0316608052610070565b60006020828403121561005257600080fd5b81516001600160a01b038116811461006957600080fd5b9392505050565b6080516116246100d76000396000818160af0152818161044b015281816104e5015281816105b0015281816106550152818161077e015281816108ac0152818161097f01528181610a1901528181610c1b01528181610d040152610e7401526116246000f3fe608060405234801561001057600080fd5b50600436106100575760003560e01c8063100bf6eb1461005c5780632511e8a01461007157806359a8ab5814610084578063a4bcec5914610097578063ba3e9c12146100aa575b600080fd5b61006f61006a366004610fc0565b6100ed565b005b61006f61007f36600461108c565b610370565b61006f61009236600461108c565b610897565b61006f6100a53660046110b8565b610b08565b6100d17f000000000000000000000000000000000000000000000000000000000000000081565b6040516001600160a01b03909116815260200160405180910390f35b6001600160a01b0385161580159061010d57506001600160a01b03841615155b801561012b5750846001600160a01b0316846001600160a01b031614155b80156101375750600083115b80156101435750600081115b6101945760405162461bcd60e51b815260206004820181905260248201527f525741207375626d697373696f6e203a20496e76616c6964207265717565737460448201526064015b60405180910390fd5b336000908152602081815260408083206001600160a01b0389811685529252909120541661024557604080516080810182526001600160a01b0386811682526020808301878152838501878152606085018790523360009081528084528681208c8616825290935294909120835181546001600160a01b031916931692909217825551600182015591519091829160028201906102319082611182565b506060820151816003015590505050610318565b336000908152602081815260408083206001600160a01b0389811685529252909120548116908516146102ba5760405162461bcd60e51b815260206004820152601d60248201527f525741207375626d697373696f6e203a20496e76616c696420626f6e64000000604482015260640161018b565b336000908152602081815260408083206001600160a01b03891684529091529020600181018490556002016102ef8382611182565b50336000908152602081815260408083206001600160a01b038916845290915290206003018190555b846001600160a01b0316336001600160a01b03167f7c0346ec0308e754879b9eb61355f12e6d4469883179fb5774ad1c3d9a7313d0868686866040516103619493929190611266565b60405180910390a35050505050565b6001600160a01b038216158015906103885750600081115b6103d45760405162461bcd60e51b815260206004820152601760248201527f5265706179696e672062617365203a20496e76616c6964000000000000000000604482015260640161018b565b3360009081526001602090815260408083206001600160a01b03868116855292529091205416806104475760405162461bcd60e51b815260206004820152601d60248201527f5265706179696e672062617365203a20496e76616c6964206173736574000000604482015260640161018b565b60007f00000000000000000000000000000000000000000000000000000000000000006001600160a01b031663c55dae636040518163ffffffff1660e01b8152600401602060405180830381865afa1580156104a7573d6000803e3d6000fd5b505050506040513d601f19601f820116820180604052508101906104cb91906112c7565b604051639032317760e01b81529091506001600160a01b037f000000000000000000000000000000000000000000000000000000000000000016906390323177906105209033908190869089906004016112eb565b600060405180830381600087803b15801561053a57600080fd5b505af115801561054e573d6000803e3d6000fd5b50503360009081526001602090815260408083206001600160a01b038a1684529091528120600201805487945090925061058990849061132b565b9091555050604051631d9df61760e11b81526001600160a01b0383811660048301526000917f000000000000000000000000000000000000000000000000000000000000000090911690633b3bec2e9060240161010060405180830381865afa1580156105fa573d6000803e3d6000fd5b505050506040513d601f19601f8201168201806040525081019061061e919061138d565b90506000670de0b6b3a764000085836080015167ffffffffffffffff166106459190611457565b61064f9190611476565b905060007f00000000000000000000000000000000000000000000000000000000000000006001600160a01b03166344c1e5eb6040518163ffffffff1660e01b8152600401602060405180830381865afa1580156106b1573d6000803e3d6000fd5b505050506040513d601f19601f820116820180604052508101906106d59190611498565b905060008590506000816001600160a01b031663313ce5676040518163ffffffff1660e01b8152600401602060405180830381865afa15801561071c573d6000803e3d6000fd5b505050506040513d601f19601f8201168201806040525081019061074091906114b1565b905060008361075083600a6115b0565b61075a9087611457565b6107649190611476565b6040516304c8826360e31b81529091506001600160a01b037f000000000000000000000000000000000000000000000000000000000000000016906326441318906107b990339081908d9087906004016112eb565b600060405180830381600087803b1580156107d357600080fd5b505af11580156107e7573d6000803e3d6000fd5b505050508060016000336001600160a01b03166001600160a01b0316815260200190815260200160002060008c6001600160a01b03166001600160a01b031681526020019081526020016000206001016000828254610846919061132b565b90915550506040518981526001600160a01b0388169033907f0a3fbbea70e93f2daafa3102f5c9a1b8315e6d7a1e43e4bc020bc1162327470a9060200160405180910390a350505050505050505050565b6001600160a01b0382161580159061092f57507f00000000000000000000000000000000000000000000000000000000000000006001600160a01b031663300e6beb6040518163ffffffff1660e01b8152600401602060405180830381865afa158015610908573d6000803e3d6000fd5b505050506040513d601f19601f8201168201806040525081019061092c9190611498565b81115b61097b5760405162461bcd60e51b815260206004820152601860248201527f426f72726f77696e672062617365203a20496e76616c69640000000000000000604482015260640161018b565b60007f00000000000000000000000000000000000000000000000000000000000000006001600160a01b031663c55dae636040518163ffffffff1660e01b8152600401602060405180830381865afa1580156109db573d6000803e3d6000fd5b505050506040513d601f19601f820116820180604052508101906109ff91906112c7565b6040516304c8826360e31b81529091506001600160a01b037f00000000000000000000000000000000000000000000000000000000000000001690632644131890610a549033908190869088906004016112eb565b600060405180830381600087803b158015610a6e57600080fd5b505af1158015610a82573d6000803e3d6000fd5b50503360009081526001602090815260408083206001600160a01b038916845290915281206002018054869450909250610abd9084906115bf565b90915550506040518281526001600160a01b0382169033907f3fc499aeb0bb1cb58b6de8b02b3f86f4e7394e9690bef0110e32ced8a5631045906020015b60405180910390a3505050565b6001600160a01b03831615801590610b2857506001600160a01b03821615155b8015610b465750826001600160a01b0316826001600160a01b031614155b8015610b525750600081115b610b9e5760405162461bcd60e51b815260206004820152601b60248201527f506f7374696e6720436f6c6c61746572616c3a20496e76616c69640000000000604482015260640161018b565b3360009081526001602090815260408083206001600160a01b03878116855292529091205416610dda576040516001600160a01b038316602482015260009060440160408051601f198184030181529181526020820180516001600160e01b0316631d9df61760e11b179052519091506000906001600160a01b037f00000000000000000000000000000000000000000000000000000000000000001690610c479084906115d2565b600060405180830381855afa9150503d8060008114610c82576040519150601f19603f3d011682016040523d82523d6000602084013e610c87565b606091505b5050905080610ced5760405162461bcd60e51b815260206004820152602c60248201527f506f7374696e6720436f6c6c61746572616c3a20496e76616c696420636f6c6c60448201526b185d195c985b0818d85b1b1b60a21b606482015260840161018b565b604051639032317760e01b81526001600160a01b037f00000000000000000000000000000000000000000000000000000000000000001690639032317790610d3f9033908190899089906004016112eb565b600060405180830381600087803b158015610d5957600080fd5b505af1158015610d6d573d6000803e3d6000fd5b5050604080516060810182526001600160a01b0388811682526020808301898152600084860181815233825260018085528783208f87168452909452959020935184546001600160a01b0319169316929092178355905190820155905160029091015550610f1c92505050565b3360009081526001602090815260408083206001600160a01b038781168552925290912054811690831614610e5d5760405162461bcd60e51b815260206004820152602360248201527f506f737420436f6c6c61746572616c3a20496e76616c696420636f6c6c6174656044820152621c985b60ea1b606482015260840161018b565b604051639032317760e01b81526001600160a01b037f00000000000000000000000000000000000000000000000000000000000000001690639032317790610eaf9033908190879087906004016112eb565b600060405180830381600087803b158015610ec957600080fd5b505af1158015610edd573d6000803e3d6000fd5b50503360009081526001602081815260408084206001600160a01b038a1685529091528220018054859450909250610f169084906115bf565b90915550505b604080516001600160a01b0384811682526020820184905285169133917f6d9c01d2a1bfe391d97dad0c8485ad9eb8603cf2404ea70f733fe47b186a0f519101610afb565b6001600160a01b0381168114610f7657600080fd5b50565b634e487b7160e01b600052604160045260246000fd5b604051601f8201601f1916810167ffffffffffffffff81118282101715610fb857610fb8610f79565b604052919050565b600080600080600060a08688031215610fd857600080fd5b8535610fe381610f61565b9450602086810135610ff481610f61565b945060408701359350606087013567ffffffffffffffff8082111561101857600080fd5b818901915089601f83011261102c57600080fd5b81358181111561103e5761103e610f79565b611050601f8201601f19168501610f8f565b91508082528a8482850101111561106657600080fd5b808484018584013760009082019093019290925250949793965091946080013592915050565b6000806040838503121561109f57600080fd5b82356110aa81610f61565b946020939093013593505050565b6000806000606084860312156110cd57600080fd5b83356110d881610f61565b925060208401356110e881610f61565b929592945050506040919091013590565b600181811c9082168061110d57607f821691505b60208210810361112d57634e487b7160e01b600052602260045260246000fd5b50919050565b601f82111561117d57600081815260208120601f850160051c8101602086101561115a5750805b601f850160051c820191505b8181101561117957828155600101611166565b5050505b505050565b815167ffffffffffffffff81111561119c5761119c610f79565b6111b0816111aa84546110f9565b84611133565b602080601f8311600181146111e557600084156111cd5750858301515b600019600386901b1c1916600185901b178555611179565b600085815260208120601f198616915b82811015611214578886015182559484019460019091019084016111f5565b50858210156112325787850151600019600388901b60f8161c191681555b5050505050600190811b01905550565b60005b8381101561125d578181015183820152602001611245565b50506000910152565b60018060a01b038516815283602082015260806040820152600083518060808401526112998160a0850160208801611242565b606083019390935250601f91909101601f19160160a0019392505050565b80516112c281610f61565b919050565b6000602082840312156112d957600080fd5b81516112e481610f61565b9392505050565b6001600160a01b039485168152928416602084015292166040820152606081019190915260800190565b634e487b7160e01b600052601160045260246000fd5b8181038181111561133e5761133e611315565b92915050565b805160ff811681146112c257600080fd5b805167ffffffffffffffff811681146112c257600080fd5b80516fffffffffffffffffffffffffffffffff811681146112c257600080fd5b60006101008083850312156113a157600080fd5b6040519081019067ffffffffffffffff821181831017156113c4576113c4610f79565b816040526113d184611344565b8152602084015191506113e382610f61565b8160208201526113f5604085016112b7565b604082015261140660608501611355565b606082015261141760808501611355565b608082015261142860a08501611355565b60a082015261143960c08501611355565b60c082015261144a60e0850161136d565b60e0820152949350505050565b600081600019048311821515161561147157611471611315565b500290565b60008261149357634e487b7160e01b600052601260045260246000fd5b500490565b6000602082840312156114aa57600080fd5b5051919050565b6000602082840312156114c357600080fd5b6112e482611344565b600181815b808511156115075781600019048211156114ed576114ed611315565b808516156114fa57918102915b93841c93908002906114d1565b509250929050565b60008261151e5750600161133e565b8161152b5750600061133e565b8160018114611541576002811461154b57611567565b600191505061133e565b60ff84111561155c5761155c611315565b50506001821b61133e565b5060208310610133831016604e8410600b841016171561158a575081810a61133e565b61159483836114cc565b80600019048211156115a8576115a8611315565b029392505050565b60006112e460ff84168361150f565b8082018082111561133e5761133e611315565b600082516115e4818460208701611242565b919091019291505056fea2646970667358221220f702272d8eb86962f84ffe8866081356598cdc405fda3983f0a01ef9a2d8c59d64736f6c63430008100033",
  "immutableReferences": {
    "10": [
      {
        "length": 32,
        "start": 175
      },
      {
        "length": 32,
        "start": 1099
      },
      {
        "length": 32,
        "start": 1253
      },
      {
        "length": 32,
        "start": 1456
      },
      {
        "length": 32,
        "start": 1621
      },
      {
        "length": 32,
        "start": 1918
      },
      {
        "length": 32,
        "start": 2220
      },
      {
        "length": 32,
        "start": 2431
      },
      {
        "length": 32,
        "start": 2585
      },
      {
        "length": 32,
        "start": 3099
      },
      {
        "length": 32,
        "start": 3332
      },
      {
        "length": 32,
        "start": 3700
      }
    ]
  },
  "source": "// SPDX-License-Identifier: BUSL-1.1\npragma solidity ^0.8.16;\n\nimport \"./interfaces/Bond.sol\";\nimport \"./interfaces/IERC20.sol\";\nimport \"./interfaces/CometInterface.sol\";\nimport \"./interfaces/VerifiedMarketsInterface.sol\";\n\n/**\n * @title Verified Markets\n * @notice A Compound III operator to enable staking of collateral for real world assets to Compound.\n * @author Kallol Borah\n */\ncontract VerifiedMarkets {\n    /// @notice The Comet contract\n    Comet public immutable comet;\n\n    //mapping issuer to RWA to bond\n    mapping(address => mapping(address => RWA.Asset)) private assets; //only one Asset(bond) per user => RWA\n\n    //mapping issuer to RWA to collateral\n    mapping(address => mapping(address => RWA.Collateral)) private guarantees; //only one collateral per user => RWA\n\n    //events\n    event NewRWA(\n        address indexed issuer,\n        address indexed asset,\n        address bond,\n        uint256 apy,\n        string issuingDocs,\n        uint256 faceValue\n    );\n    event PostedCollateral(\n        address indexed issuer,\n        address indexed asset,\n        address collateral,\n        uint256 amount\n    );\n    event Borrowed(\n        address indexed borrower,\n        address indexed base,\n        uint256 amount\n    );\n    event Repaid(\n        address indexed borrower,\n        address indexed base,\n        uint256 amount\n    );\n\n    /**\n     * @notice Construct a new operator.\n     * @param comet_ The Comet contract.\n     **/\n    constructor(address comet_) {\n        comet = Comet(comet_);\n    }\n\n    /**\n     * @notice RWA issuer submits asset details and bond issued that can be purchased to provide collateral to the RWA issuer\n     * @param asset       RWA for which bond is issued\n     * @param bond        bond token that is issued\n     * @param apy         interest rate paid on bond\n     * @param issuingDocs ipfs reference for RWA docs\n     * @param faceValue   par value of bond after discounting it with interest rate\n     **/\n    //Todo: should issuer be able to overwrite existing bond address tied to an assest???\n    function submitNewRWA(\n        address asset,\n        address bond,\n        uint256 apy,\n        string memory issuingDocs,\n        uint256 faceValue\n    ) external {\n        //verify submitNewRWA params\n        require(\n            asset != address(0x0) &&\n                bond != address(0x0) &&\n                bond != asset &&\n                apy > 0 &&\n                faceValue > 0,\n            \"RWA submission : Invalid request\"\n        );\n        // //verify bond's issuer is the caller\n        // require(\n        //     Bond(bond).getIssuer() == msg.sender,\n        //     \"RWA submission : Invalid issuer\"\n        // );\n        //if issuer has no RWA tied to this assest, create new RWA for the issuer's asset\n        if (assets[msg.sender][asset].bond == address(0x0)) {\n            RWA.Asset memory rwa = RWA.Asset({\n                bond: bond,\n                apy: apy,\n                issuingDocs: issuingDocs,\n                faceValue: faceValue\n            });\n            assets[msg.sender][asset] = rwa;\n        } else {\n            //issuer can only update/overwrite an existing RWA details\n            require(\n                assets[msg.sender][asset].bond == bond,\n                \"RWA submission : Invalid bond\"\n            );\n            assets[msg.sender][asset].apy = apy;\n            assets[msg.sender][asset].issuingDocs = issuingDocs;\n            assets[msg.sender][asset].faceValue = faceValue;\n        }\n        emit NewRWA(msg.sender, asset, bond, apy, issuingDocs, faceValue);\n    }\n\n    /**\n     * @notice Used by RWA issuer to post collateral used to buy bonds issued by it to borrow from Compound\n     * @param asset       RWA for which collateral is posted\n     * @param collateral  collateral used to buy bond issued by RWA issuer(must not be baseToken and must be accepted by comet)\n     * @param amount      amount of collateral posted\n     **/\n    function postCollateral(\n        address asset,\n        address collateral,\n        uint256 amount\n    ) external {\n        //verify postCollateral params\n        require(\n            asset != address(0x0) &&\n                collateral != address(0x0) &&\n                collateral != asset &&\n                amount > 0,\n            \"Posting Collateral: Invalid\"\n        );\n        //if issuer is posting collateral to the assest for first time, create new Collateral for user's assest;\n        if (guarantees[msg.sender][asset].collateral == address(0x0)) {\n            //verify getAssetInfoByAddress didn't revert for collateral(to filter out unaccepted collaterals)\n            bytes memory payload = abi.encodeWithSignature(\n                \"getAssetInfoByAddress(address)\",\n                collateral\n            );\n            (bool success, ) = address(comet).staticcall(payload);\n            require(success, \"Posting Collateral: Invalid collateral calll\");\n            //supply collateral on comet and verify supply cap is not breached\n            comet.supplyFrom(msg.sender, msg.sender, collateral, amount);\n            //create collateral\n            RWA.Collateral memory guarantee = RWA.Collateral({\n                collateral: collateral,\n                collateralAmount: amount,\n                borrowed: 0\n            });\n            guarantees[msg.sender][asset] = guarantee;\n        } else {\n            //issuer can only update/overwrite collateral amount for existing collateral\n            require(\n                guarantees[msg.sender][asset].collateral == collateral,\n                \"Post Collateral: Invalid collateral\"\n            );\n            //supply collateral on comet and verify supply cap is not breached\n            comet.supplyFrom(msg.sender, msg.sender, collateral, amount);\n            guarantees[msg.sender][asset].collateralAmount += amount;\n        }\n        emit PostedCollateral(msg.sender, asset, collateral, amount);\n    }\n\n    /**\n     * @notice Called by RWA issuer to to borrow base asset from Compound\n     * @param asset       RWA for which base asset is borrowed\n     * @param amount      amount of base asset borrowed\n     **/\n    function borrowBase(address asset, uint256 amount) external {\n        //verify borrowBase params\n        require(\n            asset != address(0x0) && amount > comet.baseBorrowMin(),\n            \"Borrowing base : Invalid\"\n        );\n        address baseToken = comet.baseToken();\n        //withdraw base from comet and check for non negative liquidity\n        comet.withdrawFrom(msg.sender, msg.sender, baseToken, amount);\n        guarantees[msg.sender][asset].borrowed += amount;\n        emit Borrowed(msg.sender, baseToken, amount);\n    }\n\n    /**\n     * @notice Called by RWA issuer to repay base asset to Compound and withdraw collateral posted earlier\n     * @param asset       RWA for which base asset is paid back\n     * @param amount      amount of base asset paid back\n     **/\n    function repayBase(address asset, uint256 amount) external {\n        //verify repayBase params\n        require(asset != address(0x0) && amount > 0, \"Repaying base : Invalid\");\n        //verify user has collateral to begin with\n        address collateral = guarantees[msg.sender][asset].collateral;\n        require(collateral != address(0x0), \"Repaying base : Invalid asset\");\n        //supply base on comet\n        address baseToken = comet.baseToken();\n        comet.supplyFrom(msg.sender, msg.sender, baseToken, amount);\n        //update issuer's borrowed amount\n        guarantees[msg.sender][asset].borrowed -= amount;\n        //calculate collateralAmount and downscale with 1e18(since borrowCollateralFactor is always % in wei)\n        Comet.AssetInfo memory collateralInfo = comet.getAssetInfoByAddress(\n            collateral\n        );\n        uint256 collateralToWithdrawInBase = (collateralInfo\n            .borrowCollateralFactor * amount) / 1e18;\n        uint256 baseScale = comet.baseScale();\n        IERC20 collateralContract = IERC20(collateral);\n        uint8 collateralDecmals = collateralContract.decimals();\n        uint256 collateralToWithdraw = (collateralToWithdrawInBase *\n            10 ** collateralDecmals) / baseScale; //amount in collateral decimals\n        //withdraw collateral from comet check for non negative liquidity\n        comet.withdrawFrom(\n            msg.sender,\n            msg.sender,\n            collateral,\n            collateralToWithdraw\n        );\n        guarantees[msg.sender][asset].collateralAmount -= collateralToWithdraw;\n        emit Repaid(msg.sender, baseToken, amount);\n    }\n}\n",
  "sourcePath": "/home/mohzcrea8me/Projects/Verified/verified-compound-markets/backend/contracts/VerifiedMarkets.sol",
  "compiler": {
    "name": "solc",
    "version": "0.8.16+commit.07a7930e.Emscripten.clang"
  },
  "schemaVersion": "3.4.16",
  "updatedAt": "2024-09-02T17:16:14.363Z",
  "devdoc": {
    "author": "Kallol Borah",
    "kind": "dev",
    "methods": {
      "borrowBase(address,uint256)": {
        "params": {
          "amount": "amount of base asset borrowed*",
          "asset": "RWA for which base asset is borrowed"
        }
      },
      "constructor": {
        "params": {
          "comet_": "The Comet contract.*"
        }
      },
      "postCollateral(address,address,uint256)": {
        "params": {
          "amount": "amount of collateral posted*",
          "asset": "RWA for which collateral is posted",
          "collateral": "collateral used to buy bond issued by RWA issuer(must not be baseToken and must be accepted by comet)"
        }
      },
      "repayBase(address,uint256)": {
        "params": {
          "amount": "amount of base asset paid back*",
          "asset": "RWA for which base asset is paid back"
        }
      },
      "submitNewRWA(address,address,uint256,string,uint256)": {
        "params": {
          "apy": "interest rate paid on bond",
          "asset": "RWA for which bond is issued",
          "bond": "bond token that is issued",
          "faceValue": "par value of bond after discounting it with interest rate*",
          "issuingDocs": "ipfs reference for RWA docs"
        }
      }
    },
    "title": "Verified Markets",
    "version": 1
  },
  "userdoc": {
    "kind": "user",
    "methods": {
      "borrowBase(address,uint256)": {
        "notice": "Called by RWA issuer to to borrow base asset from Compound"
      },
      "comet()": {
        "notice": "The Comet contract"
      },
      "constructor": {
        "notice": "Construct a new operator."
      },
      "postCollateral(address,address,uint256)": {
        "notice": "Used by RWA issuer to post collateral used to buy bonds issued by it to borrow from Compound"
      },
      "repayBase(address,uint256)": {
        "notice": "Called by RWA issuer to repay base asset to Compound and withdraw collateral posted earlier"
      },
      "submitNewRWA(address,address,uint256,string,uint256)": {
        "notice": "RWA issuer submits asset details and bond issued that can be purchased to provide collateral to the RWA issuer"
      }
    },
    "notice": "A Compound III operator to enable staking of collateral for real world assets to Compound.",
    "version": 1
  }
}