{
  "contractName": "VerifiedMarkets",
  "abi": [
    {
      "inputs": [
        {
          "internalType": "address",
          "name": "comet_",
          "type": "address"
        }
      ],
      "stateMutability": "payable",
      "type": "constructor",
      "payable": true
    },
    {
      "anonymous": false,
      "inputs": [
        {
          "indexed": true,
          "internalType": "address",
          "name": "borrower",
          "type": "address"
        },
        {
          "indexed": true,
          "internalType": "address",
          "name": "base",
          "type": "address"
        },
        {
          "indexed": false,
          "internalType": "uint256",
          "name": "amount",
          "type": "uint256"
        }
      ],
      "name": "Borrowed",
      "type": "event"
    },
    {
      "anonymous": false,
      "inputs": [
        {
          "indexed": true,
          "internalType": "address",
          "name": "issuer",
          "type": "address"
        },
        {
          "indexed": true,
          "internalType": "address",
          "name": "asset",
          "type": "address"
        },
        {
          "indexed": false,
          "internalType": "address",
          "name": "bond",
          "type": "address"
        },
        {
          "indexed": false,
          "internalType": "uint256",
          "name": "apy",
          "type": "uint256"
        },
        {
          "indexed": false,
          "internalType": "string",
          "name": "issuingDocs",
          "type": "string"
        },
        {
          "indexed": false,
          "internalType": "uint256",
          "name": "faceValue",
          "type": "uint256"
        }
      ],
      "name": "NewRWA",
      "type": "event"
    },
    {
      "anonymous": false,
      "inputs": [
        {
          "indexed": true,
          "internalType": "address",
          "name": "issuer",
          "type": "address"
        },
        {
          "indexed": true,
          "internalType": "address",
          "name": "asset",
          "type": "address"
        },
        {
          "indexed": false,
          "internalType": "address",
          "name": "collateral",
          "type": "address"
        },
        {
          "indexed": false,
          "internalType": "uint256",
          "name": "amount",
          "type": "uint256"
        }
      ],
      "name": "PostedCollateral",
      "type": "event"
    },
    {
      "anonymous": false,
      "inputs": [
        {
          "indexed": true,
          "internalType": "address",
          "name": "borrower",
          "type": "address"
        },
        {
          "indexed": true,
          "internalType": "address",
          "name": "base",
          "type": "address"
        },
        {
          "indexed": false,
          "internalType": "uint256",
          "name": "amount",
          "type": "uint256"
        }
      ],
      "name": "Repaid",
      "type": "event"
    },
    {
      "inputs": [],
      "name": "comet",
      "outputs": [
        {
          "internalType": "contract Comet",
          "name": "",
          "type": "address"
        }
      ],
      "stateMutability": "view",
      "type": "function",
      "constant": true
    },
    {
      "inputs": [
        {
          "internalType": "address",
          "name": "asset",
          "type": "address"
        },
        {
          "internalType": "address",
          "name": "bond",
          "type": "address"
        },
        {
          "internalType": "uint256",
          "name": "apy",
          "type": "uint256"
        },
        {
          "internalType": "string",
          "name": "issuingDocs",
          "type": "string"
        },
        {
          "internalType": "uint256",
          "name": "faceValue",
          "type": "uint256"
        }
      ],
      "name": "submitNewRWA",
      "outputs": [],
      "stateMutability": "nonpayable",
      "type": "function"
    },
    {
      "inputs": [
        {
          "internalType": "address",
          "name": "asset",
          "type": "address"
        },
        {
          "internalType": "address",
          "name": "collateral",
          "type": "address"
        },
        {
          "internalType": "uint256",
          "name": "amount",
          "type": "uint256"
        }
      ],
      "name": "postCollateral",
      "outputs": [],
      "stateMutability": "nonpayable",
      "type": "function"
    },
    {
      "inputs": [
        {
          "internalType": "address",
          "name": "asset",
          "type": "address"
        },
        {
          "internalType": "address",
          "name": "base",
          "type": "address"
        },
        {
          "internalType": "uint256",
          "name": "amount",
          "type": "uint256"
        }
      ],
      "name": "borrowBase",
      "outputs": [],
      "stateMutability": "nonpayable",
      "type": "function"
    },
    {
      "inputs": [
        {
          "internalType": "address",
          "name": "asset",
          "type": "address"
        },
        {
          "internalType": "address",
          "name": "base",
          "type": "address"
        },
        {
          "internalType": "uint256",
          "name": "amount",
          "type": "uint256"
        }
      ],
      "name": "repayBase",
      "outputs": [],
      "stateMutability": "nonpayable",
      "type": "function"
    }
  ],
  "bytecode": "0x60a060405260405161110c38038061110c83398101604081905261002291610033565b6001600160a01b0316608052610063565b60006020828403121561004557600080fd5b81516001600160a01b038116811461005c57600080fd5b9392505050565b6080516110656100a76000396000818160af015281816104990152818161052a0152818161061d01528181610772015281816109450152610a2b01526110656000f3fe608060405234801561001057600080fd5b50600436106100575760003560e01c8063100bf6eb1461005c5780638fcfa9ca14610071578063a4bcec5914610084578063b031a4d314610097578063ba3e9c12146100aa575b600080fd5b61006f61006a366004610bb1565b6100ed565b005b61006f61007f366004610c7d565b6103b6565b61006f610092366004610c7d565b6106d4565b61006f6100a5366004610c7d565b61091c565b6100d17f000000000000000000000000000000000000000000000000000000000000000081565b6040516001600160a01b03909116815260200160405180910390f35b6001600160a01b0385161580159061010d57506001600160a01b03841615155b80156101195750600083115b80156101255750600081115b6101765760405162461bcd60e51b815260206004820181905260248201527f525741207375626d697373696f6e203a20496e76616c6964207265717565737460448201526064015b60405180910390fd5b336001600160a01b0316846001600160a01b031663525564216040518163ffffffff1660e01b8152600401602060405180830381865afa1580156101be573d6000803e3d6000fd5b505050506040513d601f19601f820116820180604052508101906101e29190610cce565b6001600160a01b0316146102385760405162461bcd60e51b815260206004820152601f60248201527f525741207375626d697373696f6e203a20496e76616c69642069737375657200604482015260640161016d565b336000908152602081815260408083206001600160a01b03898116855292529091205416156102ea57604080516080810182526001600160a01b0386811682526020808301878152838501878152606085018790523360009081528084528681208c8616825290935294909120835181546001600160a01b031916931692909217825551600182015591519091829160028201906102d69082610d7b565b50606082015181600301559050505061035e565b336000908152602081815260408083206001600160a01b038981168552925290912080546001600160a01b031916918616919091178155600181018490556002016103358382610d7b565b50336000908152602081815260408083206001600160a01b038916845290915290206003018190555b846001600160a01b0316336001600160a01b03167f7c0346ec0308e754879b9eb61355f12e6d4469883179fb5774ad1c3d9a7313d0868686866040516103a79493929190610e3b565b60405180910390a35050505050565b6001600160a01b038316158015906103d657506001600160a01b03821615155b80156103e25750600081115b61042e5760405162461bcd60e51b815260206004820152601760248201527f5265706179696e672062617365203a20496e76616c6964000000000000000000604482015260640161016d565b3360009081526001602090815260408083206001600160a01b0387168452909152902060020154610460908290610ebd565b3360008181526001602090815260408083206001600160a01b0389811685529252918290206002019390935551639032317760e01b81527f0000000000000000000000000000000000000000000000000000000000000000909216916390323177916104d491819087908790600401610ed6565b600060405180830381600087803b1580156104ee57600080fd5b505af1158015610502573d6000803e3d6000fd5b5050604051631d9df61760e11b81526001600160a01b038581166004830152600093508492507f00000000000000000000000000000000000000000000000000000000000000001690633b3bec2e9060240161010060405180830381865afa158015610572573d6000803e3d6000fd5b505050506040513d601f19601f820116820180604052508101906105969190610f38565b6080015167ffffffffffffffff166105ae9190610fe4565b3360009081526001602081815260408084206001600160a01b038a16855290915290912001549091506105e2908290610ebd565b3360008181526001602081815260408084206001600160a01b038b81168652925292839020918201949094555490516304c8826360e31b81527f000000000000000000000000000000000000000000000000000000000000000084169363264413189361065c939092839291909116908790600401610ed6565b600060405180830381600087803b15801561067657600080fd5b505af115801561068a573d6000803e3d6000fd5b50506040518481526001600160a01b03861692503391507f0a3fbbea70e93f2daafa3102f5c9a1b8315e6d7a1e43e4bc020bc1162327470a9060200160405180910390a350505050565b6001600160a01b038316158015906106f457506001600160a01b03821615155b80156107005750600081115b61075b5760405162461bcd60e51b815260206004820152602660248201527f436f6d657420436f6c6c61746572616c2070726f766973696f6e696e673a20496044820152651b9d985b1a5960d21b606482015260840161016d565b604051639032317760e01b81526001600160a01b037f000000000000000000000000000000000000000000000000000000000000000016906390323177906107ad903390819087908790600401610ed6565b600060405180830381600087803b1580156107c757600080fd5b505af11580156107db573d6000803e3d6000fd5b50503360009081526001602090815260408083206001600160a01b0389811685529252909120548116908516149150610876905057604080516060810182526001600160a01b0384811682526020808301858152600084860181815233825260018085528783208b87168452909452959020935184546001600160a01b031916931692909217835590519082015590516002909101556108ce565b3360009081526001602081815260408084206001600160a01b038816855290915290912001546108a7908290611003565b3360009081526001602081815260408084206001600160a01b038916855290915290912001555b604080516001600160a01b0384811682526020820184905285169133917f6d9c01d2a1bfe391d97dad0c8485ad9eb8603cf2404ea70f733fe47b186a0f5191015b60405180910390a3505050565b6001600160a01b0383161580159061093c57506001600160a01b03821615155b80156109c857507f00000000000000000000000000000000000000000000000000000000000000006001600160a01b031663300e6beb6040518163ffffffff1660e01b8152600401602060405180830381865afa1580156109a1573d6000803e3d6000fd5b505050506040513d601f19601f820116820180604052508101906109c59190611016565b81115b610a145760405162461bcd60e51b815260206004820152601860248201527f426f72726f77696e672062617365203a20496e76616c69640000000000000000604482015260640161016d565b6040516304c8826360e31b81526001600160a01b037f00000000000000000000000000000000000000000000000000000000000000001690632644131890610a66903390819087908790600401610ed6565b600060405180830381600087803b158015610a8057600080fd5b505af1158015610a94573d6000803e3d6000fd5b50503360009081526001602090815260408083206001600160a01b0389168452909152902060020154610aca9250839150611003565b3360008181526001602090815260408083206001600160a01b03898116855290835292819020600201949094559251848152908516927f3fc499aeb0bb1cb58b6de8b02b3f86f4e7394e9690bef0110e32ced8a5631045910161090f565b6001600160a01b0381168114610b3d57600080fd5b50565b634e487b7160e01b600052604160045260246000fd5b604051610100810167ffffffffffffffff81118282101715610b7a57610b7a610b40565b60405290565b604051601f8201601f1916810167ffffffffffffffff81118282101715610ba957610ba9610b40565b604052919050565b600080600080600060a08688031215610bc957600080fd5b8535610bd481610b28565b9450602086810135610be581610b28565b945060408701359350606087013567ffffffffffffffff80821115610c0957600080fd5b818901915089601f830112610c1d57600080fd5b813581811115610c2f57610c2f610b40565b610c41601f8201601f19168501610b80565b91508082528a84828501011115610c5757600080fd5b808484018584013760009082019093019290925250949793965091946080013592915050565b600080600060608486031215610c9257600080fd5b8335610c9d81610b28565b92506020840135610cad81610b28565b929592945050506040919091013590565b8051610cc981610b28565b919050565b600060208284031215610ce057600080fd5b8151610ceb81610b28565b9392505050565b600181811c90821680610d0657607f821691505b602082108103610d2657634e487b7160e01b600052602260045260246000fd5b50919050565b601f821115610d7657600081815260208120601f850160051c81016020861015610d535750805b601f850160051c820191505b81811015610d7257828155600101610d5f565b5050505b505050565b815167ffffffffffffffff811115610d9557610d95610b40565b610da981610da38454610cf2565b84610d2c565b602080601f831160018114610dde5760008415610dc65750858301515b600019600386901b1c1916600185901b178555610d72565b600085815260208120601f198616915b82811015610e0d57888601518255948401946001909101908401610dee565b5085821015610e2b5787850151600019600388901b60f8161c191681555b5050505050600190811b01905550565b60018060a01b038516815260006020858184015260806040840152845180608085015260005b81811015610e7d5786810183015185820160a001528201610e61565b50600060a0828601015260a0601f19601f8301168501019250505082606083015295945050505050565b634e487b7160e01b600052601160045260246000fd5b81810381811115610ed057610ed0610ea7565b92915050565b6001600160a01b039485168152928416602084015292166040820152606081019190915260800190565b805167ffffffffffffffff81168114610cc957600080fd5b80516fffffffffffffffffffffffffffffffff81168114610cc957600080fd5b60006101008284031215610f4b57600080fd5b610f53610b56565b825160ff81168114610f6457600080fd5b8152610f7260208401610cbe565b6020820152610f8360408401610cbe565b6040820152610f9460608401610f00565b6060820152610fa560808401610f00565b6080820152610fb660a08401610f00565b60a0820152610fc760c08401610f00565b60c0820152610fd860e08401610f18565b60e08201529392505050565b6000816000190483118215151615610ffe57610ffe610ea7565b500290565b80820180821115610ed057610ed0610ea7565b60006020828403121561102857600080fd5b505191905056fea2646970667358221220b0f437d8240872bb1f174c7e7ceeb55a9f7e8e017cf7a50808735c1ad23423e164736f6c63430008100033",
  "immutableReferences": {
    "12": [
      {
        "length": 32,
        "start": 175
      },
      {
        "length": 32,
        "start": 1177
      },
      {
        "length": 32,
        "start": 1322
      },
      {
        "length": 32,
        "start": 1565
      },
      {
        "length": 32,
        "start": 1906
      },
      {
        "length": 32,
        "start": 2373
      },
      {
        "length": 32,
        "start": 2603
      }
    ]
  },
  "source": "// SPDX-License-Identifier: BUSL-1.1\npragma solidity ^0.8.16;\n\nimport \"./interfaces/Bond.sol\";\nimport \"./interfaces/IERC20.sol\";\nimport \"./interfaces/CometInterface.sol\";\nimport \"./interfaces/VerifiedMarketsInterface.sol\";\n\n/**\n * @title Verified Markets\n * @notice A Compound III operator to enable staking of collateral for real world assets to Compound.\n * @author Kallol Borah\n */\ncontract VerifiedMarkets is RWA {\n    /// @notice The Comet contract\n    Comet public immutable comet;\n\n    //mapping issuer to RWA to bond\n    mapping(address => mapping(address => Asset)) private assets;\n\n    //mapping issuer to RWA to collateral\n    mapping(address => mapping(address => Collateral)) private guarantees;\n\n    //events\n    event NewRWA(\n        address indexed issuer,\n        address indexed asset,\n        address bond,\n        uint256 apy,\n        string issuingDocs,\n        uint256 faceValue\n    );\n    event PostedCollateral(\n        address indexed issuer,\n        address indexed asset,\n        address collateral,\n        uint256 amount\n    );\n    event Borrowed(\n        address indexed borrower,\n        address indexed base,\n        uint256 amount\n    );\n    event Repaid(\n        address indexed borrower,\n        address indexed base,\n        uint256 amount\n    );\n\n    /**\n     * @notice Construct a new operator.\n     * @param comet_ The Comet contract.\n     **/\n    constructor(address comet_) payable {\n        comet = Comet(comet_);\n    }\n\n    /**\n     * @notice RWA issuer submits asset details and bond issued that can be purchased to provide collateral to the RWA issuer\n     * @param asset       RWA for which bond is issued\n     * @param bond        bond token that is issued\n     * @param apy         interest rate paid on bond\n     * @param issuingDocs ipfs reference for RWA docs\n     * @param faceValue   par value of bond after discounting it with interest rate\n     **/\n    function submitNewRWA(\n        address asset,\n        address bond,\n        uint256 apy,\n        string memory issuingDocs,\n        uint256 faceValue\n    ) external override {\n        require(\n            asset != address(0x0) &&\n                bond != address(0x0) &&\n                apy > 0 &&\n                faceValue > 0,\n            \"RWA submission : Invalid request\"\n        );\n        require(\n            Bond(bond).getIssuer() == msg.sender,\n            \"RWA submission : Invalid issuer\"\n        );\n        if (assets[msg.sender][asset].bond != address(0x0)) {\n            RWA.Asset memory rwa = RWA.Asset({\n                bond: bond,\n                apy: apy,\n                issuingDocs: issuingDocs,\n                faceValue: faceValue\n            });\n            assets[msg.sender][asset] = rwa;\n        } else {\n            assets[msg.sender][asset].bond = bond;\n            assets[msg.sender][asset].apy = apy;\n            assets[msg.sender][asset].issuingDocs = issuingDocs;\n            assets[msg.sender][asset].faceValue = faceValue;\n        }\n        emit NewRWA(msg.sender, asset, bond, apy, issuingDocs, faceValue);\n    }\n\n    /**\n     * @notice Used by RWA issuer to post collateral used to buy bonds issued by it to borrow from Compound\n     * @param asset       RWA for which collateral is posted\n     * @param collateral  collateral used to buy bond issued by RWA issuer\n     * @param amount      amount of collateral posted\n     **/\n    function postCollateral(\n        address asset,\n        address collateral,\n        uint256 amount\n    ) external override {\n        require(\n            asset != address(0x0) && collateral != address(0x0) && amount > 0,\n            \"Comet Collateral provisioning: Invalid\"\n        );\n        //check if supply cap of collateral is not breached\n        comet.supplyFrom(msg.sender, msg.sender, collateral, amount);\n        if (guarantees[msg.sender][asset].collateral != collateral) {\n            RWA.Collateral memory guarantee = RWA.Collateral({\n                collateral: collateral,\n                collateralAmount: amount,\n                borrowed: 0\n            });\n            guarantees[msg.sender][asset] = guarantee;\n        } else {\n            guarantees[msg.sender][asset].collateralAmount =\n                guarantees[msg.sender][asset].collateralAmount +\n                amount;\n        }\n        emit PostedCollateral(msg.sender, asset, collateral, amount);\n    }\n\n    /**\n     * @notice Called by RWA issuer to to borrow base asset from Compound\n     * @param asset       RWA for which base asset is borrowed\n     * @param base        base asset borrowed by RWA issuer\n     * @param amount      amount of base asset borrowed\n     **/\n    function borrowBase(\n        address asset,\n        address base,\n        uint256 amount\n    ) external override {\n        require(\n            asset != address(0x0) &&\n                base != address(0x0) &&\n                amount > comet.baseBorrowMin(),\n            \"Borrowing base : Invalid\"\n        );\n        //does borrower have collateral to borrow ? (&& comet.isBorrowCollateralized(msg.sender))\n        comet.withdrawFrom(msg.sender, msg.sender, base, amount);\n        guarantees[msg.sender][asset].borrowed =\n            guarantees[msg.sender][asset].borrowed +\n            amount;\n        emit Borrowed(msg.sender, base, amount);\n    }\n\n    /**\n     * @notice Called by RWA issuer to repay base asset to Compound and withdraw collateral posted earlier\n     * @param asset       RWA for which base asset is paid back\n     * @param base        base asset paid back by RWA issuer\n     * @param amount      amount of base asset paid back\n     **/\n    function repayBase(\n        address asset,\n        address base,\n        uint256 amount\n    ) external override {\n        require(\n            asset != address(0x0) && base != address(0x0) && amount > 0,\n            \"Repaying base : Invalid\"\n        );\n        guarantees[msg.sender][asset].borrowed =\n            guarantees[msg.sender][asset].borrowed -\n            amount;\n        comet.supplyFrom(msg.sender, msg.sender, base, amount);\n        uint256 collateralToWithdraw = comet\n            .getAssetInfoByAddress(base)\n            .borrowCollateralFactor * amount;\n        guarantees[msg.sender][asset].collateralAmount =\n            guarantees[msg.sender][asset].collateralAmount -\n            collateralToWithdraw;\n        comet.withdrawFrom(msg.sender, msg.sender, guarantees[msg.sender][asset].collateral, collateralToWithdraw);\n        emit Repaid(msg.sender, base, amount);\n    }\n}\n",
  "sourcePath": "/home/mohzcrea9me/Verified/Tasks/VCM/verified-compound-markets/backend/contracts/VerifiedMarkets.sol",
  "compiler": {
    "name": "solc",
    "version": "0.8.16+commit.07a7930e.Emscripten.clang"
  },
  "schemaVersion": "3.4.16",
  "updatedAt": "2024-06-10T19:48:48.785Z",
  "networkType": "ethereum",
  "devdoc": {
    "author": "Kallol Borah",
    "kind": "dev",
    "methods": {
      "borrowBase(address,address,uint256)": {
        "params": {
          "amount": "amount of base asset borrowed*",
          "asset": "RWA for which base asset is borrowed",
          "base": "base asset borrowed by RWA issuer"
        }
      },
      "constructor": {
        "params": {
          "comet_": "The Comet contract.*"
        }
      },
      "postCollateral(address,address,uint256)": {
        "params": {
          "amount": "amount of collateral posted*",
          "asset": "RWA for which collateral is posted",
          "collateral": "collateral used to buy bond issued by RWA issuer"
        }
      },
      "repayBase(address,address,uint256)": {
        "params": {
          "amount": "amount of base asset paid back*",
          "asset": "RWA for which base asset is paid back",
          "base": "base asset paid back by RWA issuer"
        }
      },
      "submitNewRWA(address,address,uint256,string,uint256)": {
        "params": {
          "apy": "interest rate paid on bond",
          "asset": "RWA for which bond is issued",
          "bond": "bond token that is issued",
          "faceValue": "par value of bond after discounting it with interest rate*",
          "issuingDocs": "ipfs reference for RWA docs"
        }
      }
    },
    "title": "Verified Markets",
    "version": 1
  },
  "userdoc": {
    "kind": "user",
    "methods": {
      "borrowBase(address,address,uint256)": {
        "notice": "Called by RWA issuer to to borrow base asset from Compound"
      },
      "comet()": {
        "notice": "The Comet contract"
      },
      "constructor": {
        "notice": "Construct a new operator."
      },
      "postCollateral(address,address,uint256)": {
        "notice": "Used by RWA issuer to post collateral used to buy bonds issued by it to borrow from Compound"
      },
      "repayBase(address,address,uint256)": {
        "notice": "Called by RWA issuer to repay base asset to Compound and withdraw collateral posted earlier"
      },
      "submitNewRWA(address,address,uint256,string,uint256)": {
        "notice": "RWA issuer submits asset details and bond issued that can be purchased to provide collateral to the RWA issuer"
      }
    },
    "notice": "A Compound III operator to enable staking of collateral for real world assets to Compound.",
    "version": 1
  }
}