{
    "contractName": "VerifiedMarkets",
    "abi": [
        {
            "inputs": [
                {
                    "internalType": "address",
                    "name": "comet_",
                    "type": "address"
                }
            ],
            "stateMutability": "nonpayable",
            "type": "constructor"
        },
        {
            "inputs": [],
            "name": "ReentrancyGuardReentrantCall",
            "type": "error"
        },
        {
            "inputs": [
                {
                    "internalType": "uint8",
                    "name": "bits",
                    "type": "uint8"
                },
                {
                    "internalType": "uint256",
                    "name": "value",
                    "type": "uint256"
                }
            ],
            "name": "SafeCastOverflowedUintDowncast",
            "type": "error"
        },
        {
            "anonymous": false,
            "inputs": [
                {
                    "indexed": true,
                    "internalType": "address",
                    "name": "borrower",
                    "type": "address"
                },
                {
                    "indexed": true,
                    "internalType": "address",
                    "name": "base",
                    "type": "address"
                },
                {
                    "indexed": false,
                    "internalType": "uint256",
                    "name": "amount",
                    "type": "uint256"
                },
                {
                    "indexed": false,
                    "internalType": "address",
                    "name": "bond",
                    "type": "address"
                }
            ],
            "name": "Borrowed",
            "type": "event"
        },
        {
            "anonymous": false,
            "inputs": [
                {
                    "indexed": true,
                    "internalType": "address",
                    "name": "issuer",
                    "type": "address"
                },
                {
                    "indexed": true,
                    "internalType": "address",
                    "name": "asset",
                    "type": "address"
                },
                {
                    "indexed": false,
                    "internalType": "address",
                    "name": "collateral",
                    "type": "address"
                },
                {
                    "indexed": false,
                    "internalType": "address",
                    "name": "bond",
                    "type": "address"
                },
                {
                    "indexed": false,
                    "internalType": "uint256",
                    "name": "apy",
                    "type": "uint256"
                },
                {
                    "indexed": false,
                    "internalType": "string",
                    "name": "issuingDocs",
                    "type": "string"
                },
                {
                    "indexed": false,
                    "internalType": "uint256",
                    "name": "couponFrequency",
                    "type": "uint256"
                },
                {
                    "indexed": false,
                    "internalType": "uint256",
                    "name": "faceValue",
                    "type": "uint256"
                },
                {
                    "indexed": false,
                    "internalType": "uint256",
                    "name": "tenure",
                    "type": "uint256"
                }
            ],
            "name": "NewRWA",
            "type": "event"
        },
        {
            "anonymous": false,
            "inputs": [
                {
                    "indexed": true,
                    "internalType": "address",
                    "name": "issuer",
                    "type": "address"
                },
                {
                    "indexed": true,
                    "internalType": "address",
                    "name": "bond",
                    "type": "address"
                },
                {
                    "indexed": false,
                    "internalType": "address",
                    "name": "collateral",
                    "type": "address"
                },
                {
                    "indexed": false,
                    "internalType": "uint256",
                    "name": "amount",
                    "type": "uint256"
                }
            ],
            "name": "PostedCollateral",
            "type": "event"
        },
        {
            "anonymous": false,
            "inputs": [
                {
                    "indexed": true,
                    "internalType": "address",
                    "name": "borrower",
                    "type": "address"
                },
                {
                    "indexed": true,
                    "internalType": "address",
                    "name": "base",
                    "type": "address"
                },
                {
                    "indexed": false,
                    "internalType": "uint256",
                    "name": "amount",
                    "type": "uint256"
                },
                {
                    "indexed": false,
                    "internalType": "address",
                    "name": "bond",
                    "type": "address"
                }
            ],
            "name": "Repaid",
            "type": "event"
        },
        {
            "inputs": [
                {
                    "internalType": "address",
                    "name": "bond",
                    "type": "address"
                }
            ],
            "name": "borrowBase",
            "outputs": [],
            "stateMutability": "nonpayable",
            "type": "function"
        },
        {
            "inputs": [],
            "name": "comet",
            "outputs": [
                {
                    "internalType": "contract Comet",
                    "name": "",
                    "type": "address"
                }
            ],
            "stateMutability": "view",
            "type": "function"
        },
        {
            "inputs": [
                {
                    "internalType": "address",
                    "name": "bond",
                    "type": "address"
                },
                {
                    "internalType": "address",
                    "name": "issuer",
                    "type": "address"
                },
                {
                    "internalType": "address",
                    "name": "factory",
                    "type": "address"
                }
            ],
            "name": "postCollateral",
            "outputs": [],
            "stateMutability": "nonpayable",
            "type": "function"
        },
        {
            "inputs": [
                {
                    "internalType": "address",
                    "name": "bond",
                    "type": "address"
                },
                {
                    "internalType": "uint256",
                    "name": "amount",
                    "type": "uint256"
                }
            ],
            "name": "repayBase",
            "outputs": [],
            "stateMutability": "nonpayable",
            "type": "function"
        },
        {
            "inputs": [
                {
                    "internalType": "address",
                    "name": "asset",
                    "type": "address"
                },
                {
                    "internalType": "address",
                    "name": "collateral",
                    "type": "address"
                }
            ],
            "name": "repayLenders",
            "outputs": [],
            "stateMutability": "nonpayable",
            "type": "function"
        },
        {
            "inputs": [
                {
                    "internalType": "address",
                    "name": "asset",
                    "type": "address"
                },
                {
                    "internalType": "address",
                    "name": "collateral",
                    "type": "address"
                },
                {
                    "internalType": "address",
                    "name": "bond",
                    "type": "address"
                },
                {
                    "internalType": "uint256",
                    "name": "apy",
                    "type": "uint256"
                },
                {
                    "internalType": "string",
                    "name": "issuingDocs",
                    "type": "string"
                },
                {
                    "internalType": "uint256",
                    "name": "frequency",
                    "type": "uint256"
                },
                {
                    "internalType": "uint256",
                    "name": "faceValue",
                    "type": "uint256"
                },
                {
                    "internalType": "address",
                    "name": "factory",
                    "type": "address"
                }
            ],
            "name": "submitNewRWA",
            "outputs": [],
            "stateMutability": "nonpayable",
            "type": "function"
        },
        {
            "inputs": [
                {
                    "internalType": "address",
                    "name": "bond",
                    "type": "address"
                },
                {
                    "internalType": "address",
                    "name": "issuer",
                    "type": "address"
                },
                {
                    "internalType": "address",
                    "name": "factory",
                    "type": "address"
                }
            ],
            "name": "withdrawCollateral",
            "outputs": [],
            "stateMutability": "nonpayable",
            "type": "function"
        }
    ],
    "bytecode": "60a034608f57601f613cd438819003918201601f19168301916001600160401b03831184841017609357808492602094604052833981010312608f57516001600160a01b03811690819003608f5760015f55608052604051613c2c90816100a882396080518181816101930152818161095601528181610f6e01528181611409015281816117270152611cfa0152f35b5f80fd5b634e487b7160e01b5f52604160045260245ffdfe60806040526004361015610011575f80fd5b5f803560e01c806318eb20f814611c8b5780632511e8a01461163f5780633f53b0a71461130657806371b92aed14610f9d578063ba3e9c1214610f58578063befff427146107e35763fa8df4b114610067575f80fd5b346107e0576101003660031901126107e057610081612546565b61008961255c565b90610092612572565b6084356001600160401b0381116107dc57366023820112156107dc578060040135906001600160401b0382116107c8578590604051926100dc6020601f19601f84011601856125b7565b80845236602482840101116107c45780602460209301838601378301015260e4356001600160a01b03811692908390036107c057602060249361011d61282f565b604051632d7a398560e11b81526001600160a01b038416600482015294859182905afa9283156107b5578693610781575b506001600160a01b03841615158061076f575b806106f6575b806106eb575b806106e0575b806106d7575b806106cc575b1561069557604051637eb7113160e01b81527f00000000000000000000000000000000000000000000000000000000000000006001600160a01b031690602081600481855afa801561068a578890610653575b60209150602460405180948193634fd41dad60e11b835260048301525afa8015610648578790610604575b6001600160401b039150166a1a1601fc4ea7109e0000008102908082046a1a1601fc4ea7109e00000014901517156105f057670de0b6b3a764000061024791046064351015612671565b3386526001602090815260408088206001600160a01b038481165f908152919093522054161561027a575b856001815580f35b60405161012081018181106001600160401b038211176105dc5760405260018060a01b0385168152602081019060018060a01b03831682526040810160018060a01b0388168152606082016064358152608083019186835260a43560a085015260c43560c08501528760e08501528a610100850152338b52600160205260408b2060018060a01b0387165f5260205260405f209460018060a01b0360018060a01b03865116166001600160601b0360a01b87541617865560018060a01b03905116600186019060018060a01b03166001600160601b0360a01b82541617905560018060a01b03905116600285019060018060a01b03166001600160601b0360a01b825416179055516003840155518051906001600160401b0382116105c8576004840154600181811c911680156105be575b60208210146105aa57601f8111610565575b506020908a601f84116001146104cb57938360209a989694600894610100947f51e5546c727cfefd961160e8b7d8b4b74a30073dd5a01071b59aea301282c5979c9a98926104c0575b50508160011b915f199060031b1c19161760048501555b60a0810151600585015560c0810151600685015560e0810151600785015501519101556040519660018060a01b0316875260018060a01b031685870152606435604087015260e0606087015280519485918260e08901520161010087015e85610100858701015260a435608086015260c43560a086015260c085015260018060a01b031692610100813394601f80199101168101030190a35f80808080610272565b015190505f80610407565b5090600485018b52808b20918b5b601f198516811061054d575093600184600894610100947f51e5546c727cfefd961160e8b7d8b4b74a30073dd5a01071b59aea301282c5979c9a9860209e9c9a98601f19811610610535575b505050811b01600485015561041e565b01515f1960f88460031b161c191690555f8080610525565b919260206001819286850151815501940192016104d9565b600485018b5260208b20601f840160051c8101602085106105a3575b8c601f840160051c83018210610599575050506103be565b8155600101610581565b5080610581565b634e487b7160e01b8b52602260045260248bfd5b90607f16906103ac565b634e487b7160e01b8a52604160045260248afd5b634e487b7160e01b88526041600452602488fd5b634e487b7160e01b87526011600452602487fd5b506020813d602011610640575b8161061e602093836125b7565b8101031261063c576106376001600160401b039161262c565b6101fd565b8680fd5b3d9150610611565b6040513d89823e3d90fd5b506020813d602011610682575b8161066d602093836125b7565b8101031261067e57602090516101d2565b5f80fd5b3d9150610660565b6040513d8a823e3d90fd5b60405162461bcd60e51b815260206004820152600f60248201526e125b9d985b1a59081c995c5d595cdd608a1b6044820152606490fd5b5060c435151561017f565b50821515610179565b5060a4351515610173565b50606435151561016d565b50604051635255642160e01b81526020816004816001600160a01b0386165afa908115610648578791610735575b506001600160a01b03163314610167565b90506020813d602011610767575b81610750602093836125b7565b8101031261063c57610761906126ab565b5f610724565b3d9150610743565b506001600160a01b0385161515610161565b9092506020813d6020116107ad575b8161079d602093836125b7565b8101031261067e5751915f61014e565b3d9150610790565b6040513d88823e3d90fd5b8580fd5b8280fd5b634e487b7160e01b86526041600452602486fd5b8480fd5b80fd5b50346107e05760603660031901126107e0576107fd612546565b61080561255c565b61080d612572565b9061081661282f565b604051635255642160e01b81526001600160a01b0384169390602081600481885afa9081156107b5578691610f1e575b506001600160a01b03168015610ee8578086526001602090815260408088205f88815292529020546001600160a01b031615610eb55760405163410a6c7d60e01b81523360048201526001600160a01b038381166024830152909360809185916044918391165afa80156107b55786938791610e7d575b5060405163b946762960e01b8152600481019190915293602090859060249082906001600160a01b03165afa9384156107b5578694610e41575b506001600160a01b0384169182151580610e38575b610915906125d8565b8187526001602090815260408089205f89815292529020600201546001600160a01b03168303610dfb57604080516359e017bd60e01b8152600481018590527f00000000000000000000000000000000000000000000000000000000000000006001600160a01b0316929181602481865afa908115610df0578991610da5575b50604051631d9df61760e11b81526004810186905261010081602481875afa908115610d9a576001600160801b039160e0918c91610d6b575b50015116906001600160801b038711610d52576001600160801b03166001600160801b038716016001600160801b038111610d3e576001600160801b03161015610d085760405163095ea7b360e01b81526001600160a01b0383166004820152602481018690528892908390602081604481858b5af18015610cfd57610cd0575b508484526002602090815260408086205f8c815292529020546001600160a01b03168614610c19575b15610acd575b604080516001600160a01b03891681526020810188905284918a9133917f6d9c01d2a1bfe391d97dad0c8485ad9eb8603cf2404ea70f733fe47b186a0f519190819081015b0390a36001815580f35b803b156107c4578583918883610afb9560405196879586948593639032317760e01b85523060048601612786565b03925af18015610c0e57610bf9575b5050600160405191610b1b83612588565b83835260208301908582528852600260205260408820875f5260205260405f2092828060a01b0390838060a01b03905116166001600160601b0360a01b84541617835551910155338552600460205260408520845f5260205260405f20905f526020528060405f2055828452600360205260408420805490600160401b8210156107c85791610bd4827f6d9c01d2a1bfe391d97dad0c8485ad9eb8603cf2404ea70f733fe47b186a0f51946001610ac3950181556127f8565b81546001600160a01b0360039290921b91821b19163390911b17905591855f80610a7e565b81610c03916125b7565b6107c057855f610b0a565b6040513d84823e3d90fd5b50803b156107c457604051639032317760e01b8152838180610c418a8c883060048601612786565b038183865af1908115610cc5578491610cb0575b50849052600260205260408320885f52602052600160405f2001610c7a8782546127b1565b90556001338452600460205260408420895f5260205260405f20865f5260205260405f20610ca98882546127b1565b9055610a78565b81610cba916125b7565b6107c457825f610c55565b6040513d86823e3d90fd5b610cf19060203d602011610cf6575b610ce981836125b7565b810190612614565b610a4f565b503d610cdf565b6040513d87823e3d90fd5b60405162461bcd60e51b815260206004820152600e60248201526d0436f6c6c61746572616c206361760941b6044820152606490fd5b634e487b7160e01b8a52601160045260248afd5b6306dfcc6560e41b8a526080600452602487905260448afd5b610d8d91506101003d8111610d93575b610d8581836125b7565b8101906126d3565b5f6109ce565b503d610d7b565b6040513d8c823e3d90fd5b90506040813d604011610de8575b81610dc0604093836125b7565b81010312610de457610ddd6020610dd6836126bf565b92016126bf565b505f610995565b8880fd5b3d9150610db3565b6040513d8b823e3d90fd5b60405162461bcd60e51b8152602060048201526015602482015274155b9858d8d95c1d19590818dbdb1b185d195c985b605a1b6044820152606490fd5b5083151561090c565b9093506020813d602011610e75575b81610e5d602093836125b7565b810103126107c057610e6e906126ab565b925f6108f7565b3d9150610e50565b60209450610ea3915060803d608011610eae575b610e9b81836125b7565b81019061280d565b5094915093906108bd565b503d610e91565b60405162461bcd60e51b815260206004820152600b60248201526a496e76616c69642052574160a81b6044820152606490fd5b60405162461bcd60e51b815260206004820152600e60248201526d24b73b30b634b21034b9b9bab2b960911b6044820152606490fd5b90506020813d602011610f50575b81610f39602093836125b7565b810103126107c057610f4a906126ab565b5f610846565b3d9150610f2c565b50346107e057806003193601126107e0576040517f00000000000000000000000000000000000000000000000000000000000000006001600160a01b03168152602090f35b50346107e05760603660031901126107e057610fb7612546565b610fbf61255c565b90610fc8612572565b91610fd161282f565b604051635255642160e01b8152926001600160a01b0383811693921690602085600481875afa9485156107b55786956112c4575b506040516323eea71f60e21b81526001600160a01b039586166004820152948316602486015260a08580604481015b0381855afa9485156107b557869561128d575b50604051632d7a398560e11b8152600481018590526001600160a01b039190911694602082602481895afa908115610648578791611257575b61108a9250612ac1565b421061121d5760405163410a6c7d60e01b81523360048201526001600160a01b038316602482015290608090829060449082905afa8015610cfd5760209186916111fa575b5060246040518096819363b946762960e01b835260048301525afa928315610cc55784936111b4575b503384526004602081815260408087205f8681529083528181206001600160a01b0388811683529084529082902054915163a9059cbb60e01b815294169284019290925260248301919091528180604481015b0381876001600160a01b0388165af18015610cc557611197575b50338352600460205260408320905f5260205260405f209060018060a01b03165f526020528060405f20556001815580f35b6111af9060203d602011610cf657610ce981836125b7565b611165565b9092506020813d6020116111f2575b816111d0602093836125b7565b810103126111ee5760206111e661114b926126ab565b9391506110f8565b8380fd5b3d91506111c3565b611213915060803d608011610eae57610e9b81836125b7565b509150505f6110cf565b60405162461bcd60e51b815260206004820152601260248201527124b73b30b634b2103932b232b6b83a34b7b760711b6044820152606490fd5b90506020823d602011611285575b81611272602093836125b7565b8101031261067e5761108a915190611080565b3d9150611265565b90945060a0813d60a0116112bc575b816112a960a093836125b7565b810103126107c05760800151935f611047565b3d915061129c565b94506020853d6020116112fe575b816112df602093836125b7565b810103126107c05760a0836112f6611034976126ab565b965050611005565b3d91506112d2565b50346107e05760403660031901126107e057611320612546565b61132861255c565b9061133161282f565b33835260016020526040832060018060a01b0382165f5260205260405f206001808060a01b039101541690818452600560205260408420545f1981019080821161162b57838652600560205261138a82604088206127be565b505484875260056020526040872090916001190190838211611617576113bc92916113b4916127be565b5054906129bb565b33865260016020526040862060018060a01b0384165f52602052600560405f200154106113ec575b846001815580f35b604051630dd3126d60e21b815260048101849052906020826024817f00000000000000000000000000000000000000000000000000000000000000006001600160a01b03165afa9182156107b55786926115e2575b5090600161145d611466938689526005602052604089206127be565b500154906129bb565b908285526005602052604085208054156115ce576114bf92916114b99187969596526001602088200154903388526001602052604088209060018060a01b03165f52602052600560405f20015490612902565b90612ac1565b6001600160a01b039182169291821691845b818652600360205260408620548110156115c05761158690828752600360205260206115008260408a206127f8565b60018060a01b0391549060031b1c16848952600382526115238360408b206127f8565b60018060a01b0391549060031b1c1689526004825260408920875f52825260405f20885f52825261155860405f205487612902565b60405163a9059cbb60e01b81526001600160a01b039092166004830152602482015292839081906044820190565b03818a8a5af1918215610648576001926115a2575b50016114d1565b6115b99060203d8111610cf657610ce981836125b7565b505f61159b565b50505050505f8080806113e4565b634e487b7160e01b86526032600452602486fd5b91506020823d60201161160f575b816115fd602093836125b7565b8101031261067e579051906001611441565b3d91506115f0565b634e487b7160e01b88526011600452602488fd5b634e487b7160e01b86526011600452602486fd5b50346107e05760403660031901126107e057611659612546565b60243561166461282f565b8015611c555733835260016020526040832060018060a01b0383165f52602052600860405f2001548015611c1d5733845260016020526040842060018060a01b0384165f52602052600360405f200154670de0b6b3a76400000180670de0b6b3a764000011611c09576116fa839133875260016020526040872060018060a01b0387165f52602052600760405f2001549061284d565b91818110611bf557506117106117159282612a9c565b6129bb565b60405163c55dae6360e01b81529084907f00000000000000000000000000000000000000000000000000000000000000006001600160a01b031690602084600481855afa938415611afd578394611bb9575b50813b156107c457604051639032317760e01b815283818061178f89898c3360048601612786565b038183875af1908115610cc5578491611ba4575b505080151580611b3a575b611a1e575b503382526002602090815260408084206001600160a01b038881165f81815292855291839020549251632e12a4f760e11b8152600481019290925291909116602482018190529181604481865afa8015610cc55784906119e3575b611844915033855260026020526040852060018060a01b0389165f526020526001600160801b03600160405f20015491166129bb565b604051630dd3126d60e21b81526001600160a01b0388166004820152602081602481875afa908115610cfd5785916119ae575b501561198657503383526001602090815260408085206001600160a01b0389165f9081529252902060080154839086116119865733845260016020526040842060018060a01b0388165f52602052600860405f20016118d78782546127eb565b90555b8061192e575b5050604080519485526001600160a01b039586166020860152949092169333937f2c412fe92e482062f3c7e5b28aac7c416970080bc41441f95189351eb974ee7f9350915081908101610ac3565b823b156111ee5761195b928492836040518096819582946304c8826360e31b84528d309060048601612786565b03925af18015610c0e57611971575b80806118e0565b8161197b916125b7565b6111ee57835f61196a565b33845260016020526040842060018060a01b0388165f5260205283600860405f2001556118da565b9450506020843d6020116119db575b816119ca602093836125b7565b8101031261067e578793515f611877565b3d91506119bd565b506020813d602011611a16575b816119fd602093836125b7565b810103126111ee57611a11611844916126bf565b61180e565b3d91506119f0565b813b156107c4576040516304c8826360e31b8152838180611a458589308060048601612786565b038183875af1908115610cc5578491611b25575b505060405163095ea7b360e01b81526001600160a01b03831660048201526024810182905260208180604481010381876001600160a01b038a165af18015610cc557611b08575b50813b156107c45782611aca9160405180938192639032317760e01b8352888b3060048601612786565b038183865af1908115611afd578391611ae4575b506117b3565b81611aee916125b7565b611af957815f611ade565b5080fd5b6040513d85823e3d90fd5b611b209060203d602011610cf657610ce981836125b7565b611aa0565b81611b2f916125b7565b6107c457825f611a59565b506040516370a0823160e01b8152306004820152602081602481865afa908115610cc5578491611b6e575b508111156117ae565b9350506020833d602011611b9c575b81611b8a602093836125b7565b8101031261067e578087935190611b65565b3d9150611b7d565b81611bae916125b7565b6107c457825f6117a3565b9093506020813d602011611bed575b81611bd5602093836125b7565b810103126107c457611be6906126ab565b925f611767565b3d9150611bc8565b9050611710611c049282612a9c565b611715565b634e487b7160e01b85526011600452602485fd5b60405162461bcd60e51b815260206004820152601060248201526f125b9d985b1a5908109bdc9c9bddd95960821b6044820152606490fd5b60405162461bcd60e51b815260206004820152600e60248201526d125b9d985b1a5908105b5bdd5b9d60921b6044820152606490fd5b503461067e57602036600319011261067e57611ca5612546565b611cad61282f565b335f52600260205260405f2060018060a01b0382165f52602052611cd9600160405f20015415156125d8565b6040516338aa813f60e01b81526001600160a01b03828116600483018190527f0000000000000000000000000000000000000000000000000000000000000000909116929091602081602481875afa9081156122fa57611d46916001915f91612527575b501515146125d8565b604051637eb7113160e01b8152602081600481875afa9081156122fa575f916124f5575b5060405190634fd41dad60e11b82526004820152602081602481875afa80156122fa575f906124b5575b6001600160401b039150166a1a1601fc4ea7109e0000008102908082046a1a1601fc4ea7109e00000014901517156124a157611df790335f52600160205260405f20845f526020526003670de0b6b3a764000060405f2092049101541015612671565b60405163c55dae6360e01b815291602083600481875afa9283156122fa575f93612465575b50335f52600260205260405f20815f5260205260405f2060018060a01b0390541660405190631d9df61760e11b8252600482015261010081602481885afa9081156122fa575f91612446575b50335f52600260205260405f20825f52602052670de0b6b3a7640000611ea3600160405f2001546001600160401b0360808501511690612640565b6040516344c1e5eb60e01b81529190046020826004818a5afa9081156122fa575f91612410575b611ed49250612640565b60408281015190516341976e0960e01b81526001600160a01b0390911660048201529091906020816024818a5afa9081156122fa575f916123dd575b506060611f286001600160401b0392611f3295612640565b9201511690612653565b60405163e7dad6bd60e01b815290602082600481895afa9182156122fa575f926123a1575b506040516341976e0960e01b81526001600160a01b039092166004830152602082602481895afa9081156122fa575f9161236b575b611f969250612653565b9360405163300e6beb60e01b8152602081600481855afa9081156122fa575f91612339575b5085111561230557803b1561067e576040516304c8826360e31b81525f8180611fea8989308a60048601612786565b038183865af180156122fa576122e5575b50338652600260205260408620825f5260205285600160405f200155338652600160205260408620825f52602052600360405f200154670de0b6b3a76400000180670de0b6b3a7640000116105f0576120786120728892338452600160205260408420865f52602052600760405f2001549061284d565b87612902565b94338252600160205260408220845f52602052600860405f200161209d8782546127b1565b905560405163a9059cbb60e01b8152336004820152602481018790526001600160a01b0382169790602081604481878d5af18015610cc5576122c8575b506120e587826129bb565b6121f5575b5050829052600560205260206040872092602460405180948193630dd3126d60e21b835260048301525afa9081156107b55786916121c3575b506040519161213183612588565b42835260208301918252805490600160401b8210156105dc579061215a916001820181556127be565b9290926121af5751825551600190910155604080519283526001600160a01b03909116602083015233917f6307558490eadb9b37b03c11433d50aef004f9316be36f5d959936dfed4d5a729181908101610ac3565b634e487b7160e01b87526004879052602487fd5b90506020813d6020116121ed575b816121de602093836125b7565b8101031261067e57515f612123565b3d91506121d1565b80602061220589612235946129bb565b60405163095ea7b360e01b81526001600160a01b0388166004820152602481019190915292839081906044820190565b0381878d5af1908115610cc5576122539289926122ab575b506129bb565b90833b156107c457604051639032317760e01b81529183918391829161227f9190308060048601612786565b038183875af18015610c0e57612296575b806120ea565b816122a0916125b7565b6107c057855f612290565b6122c39060203d602011610cf657610ce981836125b7565b61224d565b6122e09060203d602011610cf657610ce981836125b7565b6120da565b6122f29196505f906125b7565b5f945f611ffb565b6040513d5f823e3d90fd5b60405162461bcd60e51b815260206004820152600c60248201526b42617365206d696e696d756d60a01b6044820152606490fd5b90506020813d602011612363575b81612354602093836125b7565b8101031261067e57515f611fbb565b3d9150612347565b90506020823d602011612399575b81612386602093836125b7565b8101031261067e57611f96915190611f8c565b3d9150612379565b9091506020813d6020116123d5575b816123bd602093836125b7565b8101031261067e576123ce906126ab565b905f611f57565b3d91506123b0565b90506020813d602011612408575b816123f8602093836125b7565b8101031261067e57516060611f10565b3d91506123eb565b90506020823d60201161243e575b8161242b602093836125b7565b8101031261067e57611ed4915190611eca565b3d915061241e565b61245f91506101003d8111610d9357610d8581836125b7565b5f611e68565b9092506020813d602011612499575b81612481602093836125b7565b8101031261067e57612492906126ab565b915f611e1c565b3d9150612474565b634e487b7160e01b5f52601160045260245ffd5b506020813d6020116124ed575b816124cf602093836125b7565b8101031261067e576124e86001600160401b039161262c565b611d94565b3d91506124c2565b90506020813d60201161251f575b81612510602093836125b7565b8101031261067e57515f611d6a565b3d9150612503565b612540915060203d602011610cf657610ce981836125b7565b5f611d3d565b600435906001600160a01b038216820361067e57565b602435906001600160a01b038216820361067e57565b604435906001600160a01b038216820361067e57565b604081019081106001600160401b038211176125a357604052565b634e487b7160e01b5f52604160045260245ffd5b90601f801991011681019081106001600160401b038211176125a357604052565b156125df57565b60405162461bcd60e51b815260206004820152600d60248201526c139bc818dbdb1b185d195c985b609a1b6044820152606490fd5b9081602091031261067e5751801515810361067e5790565b51906001600160401b038216820361067e57565b818102929181159184041417156124a157565b811561265d570490565b634e487b7160e01b5f52601260045260245ffd5b1561267857565b60405162461bcd60e51b815260206004820152600b60248201526a496e76616c69642041505960a81b6044820152606490fd5b51906001600160a01b038216820361067e57565b51906001600160801b038216820361067e57565b908161010091031261067e576040519061010082018281106001600160401b038211176125a357604052805160ff8116810361067e5761277e9160e091845261271e602082016126ab565b602085015261272f604082016126ab565b60408501526127406060820161262c565b60608501526127516080820161262c565b608085015261276260a0820161262c565b60a085015261277360c0820161262c565b60c0850152016126bf565b60e082015290565b6001600160a01b03918216815291811660208301529091166040820152606081019190915260800190565b919082018092116124a157565b80548210156127d7575f5260205f209060011b01905f90565b634e487b7160e01b5f52603260045260245ffd5b919082039182116124a157565b80548210156127d7575f5260205f2001905f90565b919082608091031261067e578151916020810151916060604083015192015190565b60025f541461283e5760025f55565b633ee5aeb560e01b5f5260045ffd5b90670de0b6b3a76400008103612861575090565b671bc16d674ec80000810361287e57508061287b91612a9c565b90565b673782dace9d90000081036128a1575061289b8161287b92612a9c565b80612a9c565b6128aa91612f90565b6128b381612a00565b60018101908181116124a15781106128ce5761287b91612ac1565b60405162461bcd60e51b815260206004820152600c60248201526b4144445f4f564552464c4f5760a01b6044820152606490fd5b90801561298657816129145750505f90565b670de0b6b3a7640000820291808304670de0b6b3a7640000036124a157612944670de0b6b3a76400009184612653565b036129525761287b91612653565b60405162461bcd60e51b815260206004820152600c60248201526b11125597d25395115493905360a21b6044820152606490fd5b60405162461bcd60e51b815260206004820152600d60248201526c2d22a927afa224ab24a9a4a7a760991b6044820152606490fd5b908181116129cc5761287b916127eb565b60405162461bcd60e51b815260206004820152600c60248201526b5355425f4f564552464c4f5760a01b6044820152606490fd5b61271090818102918183048114821517156124a1578115918215612a88575b505015612a545780612a3057505f90565b5f1981019081116124a157670de0b6b3a76400009004600181018091116124a15790565b60405162461bcd60e51b815260206004820152600c60248201526b4d554c5f4f564552464c4f5760a01b6044820152606490fd5b612a9491925083612653565b145f80612a1f565b612aa68282612640565b918115918215612a8857505015612a545780612a3057505f90565b90612acc90826127b1565b9081106128ce5790565b9068056bc75e2d630fffff1982019182136001166124a157565b906803782dace9d8ffffff1982019182136001166124a157565b906806f05b59d3b1ffffff1982019182136001166124a157565b9068ad78ebc5ac61ffffff1982019182136001166124a157565b906856bc75e2d630ffffff1982019182136001166124a157565b90682b5e3af16b187fffff1982019182136001166124a157565b906815af1d78b58c3fffff1982019182136001166124a157565b90680ad78ebc5ac61fffff1982019182136001166124a157565b906802b5e3af16b187ffff1982019182136001166124a157565b9068015af1d78b58c3ffff1982019182136001166124a157565b906803782dace9d90000008201915f6803782dace9d9000000841291129080158216911516176124a157565b9068ad78ebc5ac620000008201915f68ad78ebc5ac62000000841291129080158216911516176124a157565b906856bc75e2d6310000008201915f6856bc75e2d631000000841291129080158216911516176124a157565b90682b5e3af16b188000008201915f682b5e3af16b18800000841291129080158216911516176124a157565b906815af1d78b58c4000008201915f6815af1d78b58c400000841291129080158216911516176124a157565b90680ad78ebc5ac62000008201915f680ad78ebc5ac6200000841291129080158216911516176124a157565b9068056bc75e2d631000008201915f68056bc75e2d63100000841291129080158216911516176124a157565b906802b5e3af16b18800008201915f6802b5e3af16b1880000841291129080158216911516176124a157565b9068015af1d78b58c400008201915f68015af1d78b58c40000841291129080158216911516176124a157565b9067ad78ebc5ac6200008201915f67ad78ebc5ac620000841291129080158216911516176124a157565b906756bc75e2d63100008201915f6756bc75e2d6310000841291129080158216911516176124a157565b908168056bc75e2d63100000019182126001166124a157565b9190915f83820193841291129080158216911516176124a157565b908160011b91808305600214901517156124a157565b906064820291808305606414901517156124a157565b9068056bc75e2d6310000082029180830568056bc75e2d6310000014901517156124a157565b906b02df0ab5a80a22c61ab5a7008202918083056b02df0ab5a80a22c61ab5a70014901517156124a157565b90693f1fce3da636ea5cf850820291808305693f1fce3da636ea5cf85014901517156124a157565b90690127fa27722cc06cc5e2820291808305690127fa27722cc06cc5e214901517156124a157565b9068280e60114edb805d0382029180830568280e60114edb805d0314901517156124a157565b90680ebc5fb41746121110820291808305680ebc5fb4174612111014901517156124a157565b906808f00f760a4b2db55d8202918083056808f00f760a4b2db55d14901517156124a157565b906806f5f17757889379378202918083056806f5f177578893793714901517156124a157565b81810292915f8212600160ff1b8214166124a15781840514901517156124a157565b811561265d57600160ff1b81145f198314166124a1570590565b8115613327578015613321578060ff1c6132ea57770bce5086492111aea88f4bb1ca6bcf584181ea8059f765328210156132b35780670c7d713b49da000012806132a2575b1561328257670de0b6b3a76400008102908105670de0b6b3a7640000036124a1576ec097ce7bc90715b34b9f0fffffffff198101906001818313166124a1576a0c097ce7bc90715b34b9f160241b8202918083056a0c097ce7bc90715b34b9f160241b14901517156124a1576a0c097ce7bc90715b34b9f160241b8101905f6a0c097ce7bc90715b34b9f160241b831291129080158216911516176124a15761307d91612f76565b6130878180612f54565b6a0c097ce7bc90715b34b9f160241b900580808080856130a8828098612f54565b6a0c097ce7bc90715b34b9f160241b900590600382056130c791612dd3565b916130d191612f54565b6a0c097ce7bc90715b34b9f160241b900590600582056130f091612dd3565b916130fa91612f54565b6a0c097ce7bc90715b34b9f160241b9005906007820561311991612dd3565b9161312391612f54565b6a0c097ce7bc90715b34b9f160241b9005906009820561314291612dd3565b9161314c91612f54565b6a0c097ce7bc90715b34b9f160241b900590600b820561316b91612dd3565b9161317591612f54565b6a0c097ce7bc90715b34b9f160241b900590600d820561319491612dd3565b9161319e91612f54565b6a0c097ce7bc90715b34b9f160241b9005600f90056131bc91612dd3565b6131c590612dee565b906131da81670de0b6b3a76400008405612f54565b91670de0b6b3a76400009007906131f091612f54565b670de0b6b3a7640000900561320491612dd3565b670de0b6b3a7640000905b0580680238fd42c5cf03ffff1913158061326f575b156132325761287b906137e3565b60405162461bcd60e51b815260206004820152601560248201527450524f445543545f4f55545f4f465f424f554e445360581b6044820152606490fd5b5068070c1cc73b00c80000811315613224565b670de0b6b3a76400009161329861329d92613345565b612f54565b61320f565b50670f43fc2c04ee00008112612fd5565b60405162461bcd60e51b815260206004820152600f60248201526e595f4f55545f4f465f424f554e445360881b6044820152606490fd5b60405162461bcd60e51b815260206004820152600f60248201526e585f4f55545f4f465f424f554e445360881b6044820152606490fd5b50505f90565b5050670de0b6b3a764000090565b600160ff1b81146124a1575f0390565b670de0b6b3a7640000811261377b5761354061287b915f7e1600ef3172e58d2e933ec884fde10064c63b5372d805e203c0000000000000821215613750575b73011798004d755d3c8bc8e03204cf44619e0000008212156136f6575b61353b6134f96134f96135346134c961350e61352e6135246134c96134b36133d46133ce6134f99c612e04565b9c612e04565b6e01855144814a7ff805980ff00840008112156136c6575b6b02df0ab5a80a22c61ab5a700811215613699575b693f1fce3da636ea5cf85081121561366e575b690127fa27722cc06cc5e2811215613643575b68280e60114edb805d03811215613619575b680ebc5fb417461211108112156135ef575b6808f00f760a4b2db55d8112156135c5575b6806f5f177578893793781121561359b575b6806248f33704b286603811215613571575b6805c548670b9510e7ac811215613547575b6134ad6134a76134a283612ad6565b612e1a565b91612ce2565b90612f76565b61351e6135146134c96134d86134c98580612f54565b68056bc75e2d63100000900590565b8098856135056134c9846134ff6134f36134c983809d612f54565b94600386055b90612dd3565b93612f54565b9e8f6005900590565b9c612f54565b9960078b056134f9565b98612f54565b95600987056134f9565b94612f54565b600b900590565b612dee565b6064900590565b61356561355661356b92612e1a565b6805c548670b9510e7ac900590565b9c612d90565b9b613493565b61358f61358061359592612e1a565b6806248f33704b286603900590565b9c612d66565b9b613481565b6135b96135aa6135bf92612e1a565b6806f5f1775788937937900590565b9c612d3a565b9b61346f565b6135e36135d46135e992612e1a565b6808f00f760a4b2db55d900590565b9c612d0e565b9b61345d565b61360d6135fe61361392612e1a565b680ebc5fb41746121110900590565b9c612ce2565b9b61344b565b61363761362861363d92612e1a565b68280e60114edb805d03900590565b9c612cb6565b9b613439565b61366261365261366892612e1a565b690127fa27722cc06cc5e2900590565b9c612c8a565b9b613427565b61368d61367d61369392612e1a565b693f1fce3da636ea5cf850900590565b9c612c5e565b9b613414565b6136ba6136a86136c092612e1a565b6b02df0ab5a80a22c61ab5a700900590565b9c612c32565b9b613401565b6136ea6136d56136f092612e1a565b6e01855144814a7ff805980ff0084000900590565b9c612c06565b9b6133ec565b9061353b6134f96134f96135346134c961350e61352e6135246134c96134b36133d46133ce61373d6137376134f99e6b1425982cf597cd205cef7380900590565b9e612bda565b9c505050505050505050505050506133a1565b50770195e54c5dd42177f53a27172fa9ec63026282700000000090056806f05b59d3b2000000613384565b61379661379b916a0c097ce7bc90715b34b9f160241b612f76565b613345565b61287b90613335565b156137ab57565b60405162461bcd60e51b815260206004820152601060248201526f1253959053125117d1561413d391539560821b6044820152606490fd5b680238fd42c5cf03ffff1981121580613be3575b613800906137a4565b5f8112613bba576806f05b59d3b20000008112613b805761382090612b0a565b613842770195e54c5dd42177f53a27172fa9ec63026282700000000091612e04565b68056bc75e2d631000009068ad78ebc5ac62000000811215613b60575b6856bc75e2d631000000811215613b45575b682b5e3af16b18800000811215613b2a575b6815af1d78b58c400000811215613b0f575b680ad78ebc5ac6200000811215613af4575b68056bc75e2d63100000811215613ad9575b6802b5e3af16b1880000811215613abe575b68015af1d78b58c40000811215613aa3575b8080808080808080806138ef81612dba565b6138f98280612f54565b68056bc75e2d63100000900560029005908161391491612dd3565b9161391e91612f54565b68056bc75e2d63100000900560039005908161393991612dd3565b9161394391612f54565b68056bc75e2d63100000900560049005908161395e91612dd3565b9161396891612f54565b68056bc75e2d63100000900560059005908161398391612dd3565b9161398d91612f54565b68056bc75e2d6310000090056006900590816139a891612dd3565b916139b291612f54565b68056bc75e2d6310000090056007900590816139cd91612dd3565b916139d791612f54565b68056bc75e2d6310000090056008900590816139f291612dd3565b916139fc91612f54565b68056bc75e2d631000009005600990059081613a1791612dd3565b91613a2191612f54565b68056bc75e2d631000009005600a90059081613a3c91612dd3565b91613a4691612f54565b68056bc75e2d631000009005600b90059081613a6191612dd3565b91613a6b91612f54565b68056bc75e2d631000009005600c9005613a8491612dd3565b613a8d91612f54565b68056bc75e2d6310000090059061354091612f54565b6134c9613ab2613ab892612bc0565b92612f2e565b906138dd565b6134c9613acd613ad392612ba6565b92612f08565b906138cb565b6134c9613ae8613aee92612ad6565b92612ee2565b906138b9565b6134c9613b03613b0992612b8c565b92612ebc565b906138a7565b6134c9613b1e613b2492612b72565b92612e94565b90613895565b6134c9613b39613b3f92612b58565b92612e6c565b90613883565b6134c9613b54613b5a92612b3e565b92612e40565b90613871565b613b6a9150612b24565b6e01855144814a7ff805980ff00840009061385f565b6803782dace9d90000008112613baf57613b9990612af0565b6138426b1425982cf597cd205cef738091612e04565b613842600191612e04565b613bda613bd56a0c097ce7bc90715b34b9f160241b92613335565b6137e3565b61287b91612f76565b5068070c1cc73b00c800008113156137f756fea2646970667358221220dd93ab4b2b8bff9cb1c916cbc09c606f5fb072b9cf6849934e4896251b88e6e464736f6c634300081a0033",
    "sourcePath": "/home/mohzcrea8me/Projects/Verified/verified-compound-markets/backend/contracts/VerifiedMarkets.sol",
    "compiler": {
        "name": "solc",
        "version": "0.8.26+commit.8a97fa7a"
    },
    "functionHashes": {
        "borrowBase(address)": "18eb20f8",
        "comet()": "ba3e9c12",
        "postCollateral(address,address,address)": "befff427",
        "repayBase(address,uint256)": "2511e8a0",
        "repayLenders(address,address)": "3f53b0a7",
        "submitNewRWA(address,address,address,uint256,string,uint256,uint256,address)": "fa8df4b1",
        "withdrawCollateral(address,address,address)": "71b92aed"
    },
    "gasEstimates": {
        "creation": {
            "codeDepositCost": "3080800",
            "executionCost": "infinite",
            "totalCost": "infinite"
        },
        "external": {
            "borrowBase(address)": "infinite",
            "comet()": "infinite",
            "postCollateral(address,address,address)": "infinite",
            "repayBase(address,uint256)": "infinite",
            "repayLenders(address,address)": "infinite",
            "submitNewRWA(address,address,address,uint256,string,uint256,uint256,address)": "infinite",
            "withdrawCollateral(address,address,address)": "infinite"
        }
    }
}